:100000000C94DD020C9415030C9415030C94150349
:100010000C9415030C9415030C9415030C94150300
:100020000C9415030C9415030C94782C0C94342C1C
:100030000C94CB2D0C9415030C9415030C94150300
:100040000C9415030C9415030C9415030C941503D0
:100050000C9415030C94A72D0C9415030C94150304
:100060000C9415030C9415030C9415030C941503B0
:100070000C9415030C9415030C9415030C941503A0
:100080000C9415030C9415030C9415030C94150390
:100090000C9415030C9415030C9415030C94150380
:1000A0000C9415030C9415030C9415030631FF09E9
:1000B00074A1010975150026FF00952075088102BD
:1000C0000976150026FF00952075089102C00501EC
:1000D0000902A10185020901A100050919012905EB
:1000E00015002501950575018102950175038101B2
:1000F0000501093009311581257F950275088106B2
:1001000009381581257F950175088106050C0A3887
:10011000021581257F950175088106C0C00501097A
:1001200080A101850319012AB700150126B70095A2
:100130000175108100C0050C0901A1018504190198
:100140002AA002150126A002950175108100C006A3
:1001500060FF0961A1010962150026FF0095207565
:100160000881020963150026FF0095207508910299
:10017000C005010906A101050719E029E7150025B9
:10018000019508750181029501750881010507191E
:100190000029FF150026FF00950675088100050857
:1001A00019012905950575019102950175039101C4
:1001B000C00000000000000000000000000000007F
:1001C000000000000000000000000000000000002F
:1001D00000000000007E0F00D4FFFFFFC7000000FA
:1001E0007800000000000000002A2B28000000001A
:1001F00000000000000000000000000029000000D6
:10020000002C1E3420212224342627252E362D377B
:1002100038271E1F202122232425263333362E374C
:10022000381F0405060708090A0B0C0D0E0F1011E4
:1002300012131415161718191A1B1C1D2F313023F1
:100240002D350405060708090A0B0C0D0E0F1011B9
:1002500012131415161718191A1B1C1D2F313035BF
:100260004C0A00253464005B735D000A00253038B9
:1002700062003A200025303258000A722F63203085
:10028000313233343536370A00FD377A585A000098
:1002900004E6D6B4460200210116000000742FE5E2
:1002A000A3E000EC00B25D003D8889C65436C31758
:1002B0004FE4F3759B85931F9162B16266F4D45D40
:1002C0005D3F2CBBEAFAA219371A20B3B99DF82D6D
:1002D000EF93C9550355AEF456C9A73AF478DEE753
:1002E0005DD21875C809D6AE7E5F0A6449BAF7C3F5
:1002F00077A4E2FFD0EF43DAAB16F0B0DA52226F08
:100300002F17A5012D1C0FA9D1468014A532891ED7
:10031000C787AF4183C9714F4968015B25617D8FF4
:10032000D08A4EEBB80CF1784B5D27F3CBB97FBD8B
:10033000B3F669122B693F0FE33878F118A91F87CC
:100340000166FC4ED389C2C019E08169DEBCDFF8CA
:10035000E393D43FFCF00D0142000000007EDDF489
:10036000C2F679199D0001CE01ED0100007B7100FC
:10037000F0B1C467FB020000000004595A290A00CA
:100380002575002F002575005D28002564002000DC
:10039000256400200025640020002564007C0025E1
:1003A000303258006D6F7573656B6579205B6274D0
:1003B0006E7C782079207620685D287265702F61C8
:1003C000636C293A205B00280001000100EC03E087
:1003D0000D120E000002000200E803E00D120E00F4
:1003E0000003000100ED03E00D120E000004000206
:1003F00000D203E00D120E150705000100EE03E028
:100400000D120E000006000200D403E00D120E00D3
:100410000007000200EA03E00D120E0000080001D0
:1004200000EF03E00D120E000009000200D603E009
:100430000D120EF0060A000200D803E00D120EF0B5
:10044000060B000200DA03E00D120EF0060C0002AB
:1004500000DC03E00D120EF0060D000200DE03E0EA
:100460000D120EF0060E000200E003E00D120EF079
:10047000060F000200E203E00D120EF0061000026B
:1004800000E403E00D120EF00611000200E603E0A6
:100490000D120EF00612000200F003E00D120E0025
:1004A0000013000200F203E00D120E000014000120
:1004B00000F403E00D120E00001500000000006DB6
:1004C00006951600005B435D005B445D005B535D79
:1004D000005B575D005B525D0009027B0004010078
:1004E000A0FA090400000103010100092111010023
:1004F00001224000070581030800010904010002F0
:1005000003000000092111010001222200070582D9
:100510000320000107050303200001090402000174
:100520000300000009211101000122810007058458
:100530000320000109040300020300000009211147
:10054000010001222200070585032000010705059F
:1005500003200001120100020000000869637C6BA7
:100560000100010203011C037600690061006C00B8
:100570003A00660036003400630032006200330047
:10058000630000001E0369007300300054006F0018
:1005900070007200650028003300320075003400DE
:1005A00029000000100343006900700075006C0012
:1005B0006F00740000000403090411241FBECFEF74
:1005C000DAE0DEBFCDBF04B603FE18C08091D504CB
:1005D0009091D604A091D704B091D8048730904B65
:1005E000A740B04B59F41092D5041092D604109243
:1005F000D7041092D804E0E0F8E3099511E0A0E0F8
:10060000B1E0E4ECFBE602C005900D92AC36B10718
:10061000D9F724E0ACE6B1E001C01D92A53DB207D8
:10062000E1F70E94F22D0C94B5350C940000FF9375
:10063000EF93E0916C01F0916D01309709F009950D
:10064000EF91FF910895FC018591803011F0EFDF6B
:10065000FBCF0895FF27E0E230E247FF0CC0419551
:1006600097FF09C0EDE26095709580959095611DAA
:10067000711D811D911D27FF02C0219530E350E2BD
:10068000AA27660F771F881F991FAA1FA41710F0AB
:10069000A41B63955A95A9F7AA3008F0A95FA05D3D
:1006A000AF93F395611571058105910541F7ED3221
:1006B00011F4EF93F395F21718F43F93F395FBCFF2
:1006C0008F91B5DFFA95E1F70895E991F991859158
:1006D000803021F0853219F0AADFF9CF089520E0AB
:1006E000E89455915532C1F3503311F46894559103
:1006F0005A3348F4505390F3220F022E220F220F48
:10070000200D250FF4CF0EF4219589919991533640
:1007100019F3533729F1533559F1BC01882799272B
:10072000E8945C3621F489919991689455915436F6
:1007300039F446EF7EF077FF0DC08FEF9FEF0AC0D0
:1007400055374AE039F0583540E121F0523642E061
:1007500009F00895FF93EF937DDFEF91FF91B7CFFD
:10076000FF93EF93FC0181918030B9F360DFFBCF01
:10077000FF93EF9368DFF1CFDF93CF93CDB7DEB771
:100780002596A3DFCF91DF910895E8EDF0E0808119
:100790008E7F80831092E2001092DA001092E100C6
:1007A000A0EEB0E08C9181608C9380818F77808304
:1007B00019BCA7EDB0E08C918E7F8C9380818F7EE9
:1007C00080831092BC0408952091E4003091E500EC
:1007D00095E6A9012091EC00822F817020FF06C0D0
:1007E0008091E80080FF06C080E008952091E80035
:1007F00022FD1AC08091C904882389F0853089F0D0
:100800008091EB0085FD0FC02091E4003091E50060
:1008100042175307F9F29150E1F684E0089582E01F
:10082000089583E0089581E00895EF92FF920F9379
:100830001F93CF937C018B010E94E403C82F811189
:1008400017C08091E80085FD0BC08091E8008E778D
:100850008093E8000E94E403882399F3C82F08C01E
:10086000F70181917F018093F1000150110949F74F
:100870008C2FCF911F910F91FF90EF900895809151
:10088000CB0487FF13C08091E80082FF06C08091EF
:10089000E8008B778093E80004C08091C90481113F
:1008A000F2CF08958091C9048823D9F38091E8009C
:1008B00080FFF8CF8091E8008E77ECCF982F90934F
:1008C000E900242F762F50E0891731F07091EC0069
:1008D0002091ED005091F00021FD07C09F5F9730FF
:1008E00071F78093E90081E008953091EB003E7F3D
:1008F0003093EB003091ED003D7F3093ED0030916F
:10090000EB0031603093EB007093EC002093ED002E
:100910005093F0002091EE0027FDE0CF80E0089595
:10092000CF92DF92EF92FF920F931F93CF93DF93BB
:10093000C8EDD0E088818F7E8883E7EDF0E080818C
:100940008160808384E082BF81E08093BC048881E1
:100950008E7F888302EE10E0F80110821092DA0098
:1009600081EEC82ED12CF601108288818F77888382
:1009700088818068888388818F7D888319BC1092E4
:10098000C9041092CA041092C8041092C70490EED1
:10099000E92EF12CF70180818B7F80838881816033
:1009A000888342E060E080E00E945E04F60180817E
:1009B0008E7F8083F8018081816080838081886060
:1009C0008083F70180818E7F808388818061888326
:1009D000DF91CF911F910F91FF90EF90DF90CF901B
:1009E0000895FC018091D1049091D2048617970755
:1009F000A0F06115710529F49091E8009E7790931D
:100A0000E80090E06115710551F4911108C08091E2
:100A1000E80082FF34C080E00895BC01F2CF8091ED
:100A2000C9048823C1F18530C1F18091E80083FDBC
:100A300030C08091E80082FDEACF8091E80080FF1D
:100A4000E1CF8091F3002091F200382F61157105FC
:100A500019F02830310558F091E02830310509F0BF
:100A600090E02091E8002E772093E800CBCF819191
:100A70008093F100615071092F5F3F4FE7CF809164
:100A8000C904882341F0853041F08091E80083FF5C
:100A9000BECF81E0089582E0089583E0089508952F
:100AA0008091BE0408959C014FB7F8948091B204E0
:100AB0009091B304A091B404B091B5044FBF821BD0
:100AC000930B08952FB7F8946091B2047091B3041A
:100AD0008091B4049091B5042FBF08952FB7F89476
:100AE0008091B2049091B304A091B404B091B50484
:100AF0002FBF08952091AF043091B0042817390713
:100B000071F09093B0048093AF04E091AD04F09144
:100B1000AE04309721F00084F185E02D099408950A
:100B20002091AB043091AC042817390771F09093F1
:100B3000AC048093AB04E091AD04F091AE04309727
:100B400021F00680F781E02D09940895E091AD042D
:100B5000F091AE04309721F00190F081E02D0994DE
:100B600080E00895CF93DF93EC014091C70350914B
:100B7000C8036091C9037091CA032FB7F89480919C
:100B8000B2049091B304A091B404B091B5042FBF06
:100B9000841B950BA60BB70B843F9140A105B105B3
:100BA00018F58091C7039091C803A091C903B09133
:100BB000CA038093C3039093C403A093C503B09367
:100BC000C60384EF91E0A0E0B0E08093BF03909370
:100BD000C003A093C103B093C203D093CF03C093CB
:100BE000CE03DF91CF9108950E9462056093C30305
:100BF0007093C4038093C5039093C60382E390E08F
:100C0000A0E0B0E0E2CFFC018481862351F4928120
:100C10009923B9F06923808583FF05C081E06111C4
:100C20000FC080E00895892F8F7092959F70982B48
:100C3000862F8F7062956F70682B81E09613F1CFCD
:100C4000089581E0FDCF452B39F0682381E06F3FA7
:100C500009F080E08170089581E0FCCFDC016091B3
:100C6000BB038091BC03962F891301C00895292FDF
:100C700030E0F901EE0FFF1FED54FC4F4081518130
:100C80004A175B07A1F487E08A9FA0018B9F500D54
:100C9000112445585C4F81E0FA0184839613E6CF16
:100CA0002F5F3F4F237033272093BB0308952F5F9F
:100CB0003F4F922F9370D8CF1092180310921703C2
:100CC000EBE7F3E08581811102C01482168237962A
:100CD00083E0E33BF807B1F70895AF92BF92CF925C
:100CE000DF92EF92FF920F931F93CF93DF938FEFDB
:100CF0009FEF4430510508F468C04091F00241FB79
:100D0000882780F990E0880F991F42FB002700F99F
:100D100010E0000F111F000F111F802B912B40FBC3
:100D2000CC24C0F8D12C8C299D2943FB222720F903
:100D3000C22FE0E0DE2F53E0CC0FDD1F5A95E1F724
:100D40008C2B9D2B44FBAA27A0F9B0E0E4E0AA0F6E
:100D5000BB1FEA95E1F78A2B9B2B45FBEE27E0F9B9
:100D6000F0E0A5E0EE0FFF1FAA95E1F78E2B9F2B79
:100D700046FB222720F930E0B6E0220F331FBA9558
:100D8000E1F7822B932B47FB222720F930E03695A1
:100D9000322F222737952795822B932B2091F10212
:100DA000322F3170F32EF92A26952170B22EBB0C0A
:100DB000A82EBF28C501BB0CAA0BBB0BFB0180836F
:100DC0009183A283B38390E080E0DF91CF911F9164
:100DD0000F91FF90EF90DF90CF90BF90AF9008956C
:100DE000E2EDF3E0848195812AE030E0B9010E94D0
:100DF0000035609319018681809318018285809364
:100E0000170184858093160186859785B9010E9414
:100E10000035609315018089809314018289809345
:100E2000130184898093120108958091D2039091D7
:100E3000D30390931B0180931A01089581152CE52B
:100E4000920741F42091100130911101232B11F4EC
:100E500090E080E008959091FB01803F59F48091EB
:100E6000FC0187FF0DC01092FC0191110BC0109284
:100E7000F30108C0813F81F48091FC0118169CF3B6
:100E8000992381F08091FD019091FE01892B09F059
:100E900064C01092F1010895823F49F497FFF0CFAA
:100EA0001092FB018091FC018111ECCFE0CF833FD8
:100EB00019F41916ACF3E4CF2091FD01893F29F410
:100EC0001216F4F61092FD01DBCF8A3F19F427FFCA
:100ED000D7CFF8CF2091FE018B3F29F427FFD0CF49
:100EE0001092FE01CDCF8C3F19F41216CCF3C8CF6F
:100EF000843F31F48091FA018E7F8093FA01C0CF54
:100F0000853F21F48091FA018D7FF7CF863F21F450
:100F10008091FA018B7FF1CF873F21F48091FA0114
:100F2000877FEBCF883F21F48091FA018F7EE5CF58
:100F30008D3F31F48091F2018E7F8093F201A0CF3A
:100F40008E3F21F48091F2018D7FF7CF8F3F09F022
:100F500097CF8091F2018B7FF0CF08958091F201BD
:100F600080FF0CC06091130170E0759567957595D1
:100F700067956115710549F1862F089581FF06C0B7
:100F80006091130170E075956795F3CF609113013F
:100F900082FD0BC09091F1019923A1F060911201A3
:100FA00080911301961738F0682F70E06038710552
:100FB00000F38FE70895899FC001112470E00E941B
:100FC0001435F4CF61E070E0D7CF81E008958091CF
:100FD000F2016091DA037091DB0380FF16C020916B
:100FE0001701269FC001279F900D1124BC01769503
:100FF0006795769567956038710508F043C061156F
:10100000710509F441C0862F089581FF0BC020911E
:101010001701269FC001279F900D1124BC017695D2
:101020006795E9CF82FF09C0809117019B01829FDC
:10103000B001839F700D1124DECF2091F301222394
:10104000D1F29091160180911701482F50E0291795
:1010500048F0CB01849FB001859F700D949F700D67
:101060001124C9CF289F90011124269FA001279FFA
:10107000500D369F500D1124692F70E0CA010E9457
:101080000035B9CF8FE7089581E00895803F31F4AE
:101090000E94E70781958093FC010895813F19F430
:1010A0000E94E707F8CF823F31F40E94E70781955D
:1010B0008093FB010895833F19F40E94E707F8CF5E
:1010C000893F29F40E94AE078093FD0108958A3F6D
:1010D00021F40E94AE078195F7CF8B3F31F40E9437
:1010E000AE0781958093FE0108958C3F19F40E940C
:1010F000AE07F8CF843F31F48091FA01816080938C
:10110000FA010895853F21F48091FA018260F7CFBA
:10111000863F21F48091FA018460F1CF873F21F46A
:101120008091FA018860EBCF883F21F48091FA0129
:101130008061E5CF8D3F31F48091F2018160809331
:10114000F20108958E3F21F48091F2018260F7CF81
:101150008F3FB9F78091F2018460F1CF9091F00256
:1011600092FF06C0282F28712830F9F4877F846009
:1011700093FF06C0282F28712831F1F4877E8461FF
:101180002091F10220FF06C0382F38713830D9F491
:10119000877F816021FF06C0282F28712831D1F474
:1011A000877E816194FD877E0895282F24712430E5
:1011B000F9F68B7F8860DCCF282F2471243101F76A
:1011C0008B7E8861DDCF382F3171313019F78E7FFA
:1011D0008860E0CF282F2171213121F78E7E886130
:1011E000E1CFCF93DF93EC0182389105A9F1D8F5D7
:1011F0008133910509F496C048F58932910509F4C7
:101200008AC08A9709F495C0C11521E5D20708F074
:10121000BCC0C11530E5D30708F014C1C83ED105E4
:1012200008F09CC0C13ED10560F5C83AD10508F070
:1012300087C0C53AD10508F0FDC0C130D10509F11C
:101240002097F9F0C430D105E0F440C08533910512
:1012500009F45AC0C997C1F68091F002837089F0F1
:10126000C0EED0E00EC0833E910599F170F4803E4F
:10127000910501F1823E910539F68091F00282FDDF
:1012800021C0CE01DF91CF910895863E910561F195
:10129000873E910571F1843E910509F0B5CF8091AB
:1012A000F10281FFEECF8091F002C7EED0E084FD25
:1012B0000DC0E7CF8091F00280FD12C19091F10244
:1012C00090FFDFCFC3EED0E084FFDBCFD0E0C0E003
:1012D000D8CF8091F00282FD06C19091F10290FD7D
:1012E000BFCF84FFCECFF2CF8091F00283FDDDCF60
:1012F000C8CF8091F00283FDF9C09091F10291FF77
:10130000F0CFC4EED0E0BDCF8091F00285FFB9CF21
:10131000C9E2D0E0B6CF8091F00285FFB2CFC5E33D
:10132000D0E0AFCF8091F00286FFABCFCAE2D0E031
:10133000A8CF8091F00286FFA4CFC1E3D0E0A1CF77
:10134000CF3BD10518F6C85AD0E0CC0FDD1FC65DE3
:10135000DE4F0990D881C02DD46493CFC11540E2EF
:10136000D40758F4C11581E0D80708F08ACFC03FF0
:10137000D10508F4ABCFD06584CFC11590E4D9076F
:1013800008F4A4CFDF70D06A7CCFC11525E5D20761
:1013900000F5C11534E5D30708F08AC0C11543E54F
:1013A000D40708F071C0C11582E5D80708F467C0FA
:1013B000CE018370992721E030E002C0220F331F55
:1013C0008A95E2F7C695C69580E2C89FE001112490
:1013D00052C0C11599E5D907A8F4C11528E5D2076F
:1013E00008F06BC0C11536E5D30708F06FCF8C2F1E
:1013F0000E94AE08C82FD0E0DC2FCC27CC27DF71AD
:10140000D0623FCFC1154AE5D40708F45BC0CE01D6
:1014100090568115904208F059CF8D2F8F710E9400
:10142000AE0890E0982F882788279F719C012C2B6D
:10143000E901E6CFC55AD0E0C95DDE4FC881D0E0F2
:10144000D0641FCFCE01E4E096958795EA95E1F749
:1014500083702C2F26952695237040E2249F9001BF
:101460001124382B8C2F8370C1E0D0E002C0CC0F48
:10147000DD1F8A95E2F7C22BD32BDC6802CFDC2F6D
:10148000CC27C16FD06AFDCECE018370992721E0B1
:1014900030E002C0220F331F8A95E2F7C695C69549
:1014A00090E2C99FE0011124C22BD32BDA68E9CE68
:1014B000DC2FCC27C46FD06AE4CEDC2FCC27C06FE2
:1014C000D06ADFCE8C2F8F700E94AE0834E0D695A4
:1014D000C7953A95E1F7CF709C2FEC01D069D1CE3A
:1014E000C9E3D0E0CECEC2EED0E0CBCEC6EED0E0A7
:1014F000C8CE8091D601882331F01092D601109287
:10150000D5011092D4010895CF93C82F8091F10294
:1015100082FD0CC08091D6018C1741F00E946E05AF
:101520009093D5018093D401C093D601CF910895B3
:1015300080959091D40498239093D4040895809535
:101540009091F20298239093F20208959091F20202
:10155000892B8093F20208951092CB011092CA0158
:101560001092C90108958091D4039091D503892BDD
:1015700089F00E946E052091D4013091D501AC0113
:10158000421B530B81E02091D4033091D5034217C5
:10159000530708F480E0817008958091C80181119B
:1015A0001092C8010895E0E7F1E09191891303C01A
:1015B000DF0111971C9291E0E637F907B1F7089522
:1015C000A0E7B1E0EFEF90E02D91821751F0EF3FEF
:1015D00019F4211101C0E92F9F5F9630A9F7EF3F61
:1015E00009F408950E2E000CFF0BE259FE4F828382
:1015F00008952091C70190918601291302C080E0CF
:10160000089530E0F90153E0EE0FFF1F5A95E1F71E
:10161000E957FE4F5181561306C05081581303C03D
:101620005281541304C02F5F3F4F2770E6CF81E0F3
:1016300008958091C70190918601981301C0089583
:101640008F5F8770FACF9E3F29F1980F692F6770DF
:1016500096959695969583E0989FF0011124E5580C
:10166000FE4F50E040E080E0219130E0062E02C0C5
:10167000369527950A94E2F721703327042E01C08E
:10168000220F0A94EAF7822B4F5F5F4F43305105D8
:1016900059F7089580E008959E3F49F1980F892FEA
:1016A000877041E001C0440F8A95EAF796959695B8
:1016B000969583E0989FF0011124E558FE4F30E0A5
:1016C00020E070E05191DF011197CB01022E02C0A2
:1016D000969587950A94E2F78170819585278423F2
:1016E00085278C932F5F3F4F2330310559F708959D
:1016F00092959F70963091F058F4925F9F7092305F
:1017000058F4803F19F030F4883E30F481E00895B9
:101710009A5FF4CF843FD1F380E00895883EB0F320
:10172000813FD1F7F3CF829590E09C01220F331FC8
:10173000220F331F2C7C95958795959587958373FC
:10174000282B30E0C901880F991F8A7A3595279593
:101750002575822B08959C013A9521153F4150F53E
:10176000FC01EE27F170BC0166277270AC014427C2
:1017700054709C012227387094FF0EC080E1EF2B3B
:1017800009F480E0672B09F08062452B09F0806442
:10179000232B89F08068089581E0EF2B09F480E025
:1017A000672B09F08260452B09F08460232B19F028
:1017B0008860089580E008959FB7F8941092BA0465
:1017C0009FBF9091C904943009F048C02091E9006E
:1017D0002F703091EC00932F917030FD90E8922B98
:1017E00025E02093E9002091EB0020FF34C02091F8
:1017F000EE0027FF30C02091B904222321F0209170
:10180000E80025FF28C01092B90426E03091E800D6
:1018100035FF14C08093F1008091E80085FD27C05A
:101820008091E80080FFFCCF8091E8008E77809364
:10183000E8009F709093E90080E008953091C9041A
:10184000343049F43091EB0035FD05C0215041F4AE
:1018500081E08093B9049F709093E9008FEF089521
:10186000EFE9FFE03197F1F700C00000CFCF8FB76D
:10187000F89421E02093BA048FBFDBCF8093B604A5
:101880007093B8046093B7048091C9048430F9F46C
:101890008093E9008FEF9091E800815095FD06C09C
:1018A00095ED9A95F1F700008111F5CF8091E80050
:1018B00085FF0DC050E040E063E070E086EB94E00F
:1018C0000E9415048091E8008E778093E8000895C7
:1018D000BC0184E00C943E0CBC0183E00C943E0CF3
:1018E0009C0184E08093E9009FEF8091E800915093
:1018F00085FD06C085ED8A95F1F700009111F5CFC1
:101900008091E80085FF0CC050E040E066E070E0A8
:10191000C9010E9415048091E8008E778093E80049
:101920000895CF93DF93EC0181E08093E9008FEF7E
:101930009091E800815095FD06C095ED9A95F1F7DC
:1019400000008111F5CF8091E80085FF14C050E0C0
:1019500040E068E070E0CE010E9415048091E8004C
:101960008E778093E80088E0FE01AFEBB4E0019051
:101970000D928A95E1F7DF91CF91089581E08093F0
:10198000E00080E28093D8001092C9008FE19EE4CD
:101990000197F1F700C0000087E090EBDC01809335
:1019A000D5049093D604A093D704B093D80488E1CB
:1019B0009CE00FB6F894A895809360000FBE9093BA
:1019C0006000FFCF019708F40895EFE9FFE0319739
:1019D000F1F700C00000F6CF0F931F93CF93DF9372
:1019E00002ED13E0C9E2D0E0CE010E946B35F801B0
:1019F00081938F012196CD34D105B1F7C3EDD3E0AA
:101A0000FE0185919491009711F0FC0109952C96A7
:101A1000F4E0CF3CDF07A1F7DF91CF911F910F9149
:101A20000895CF93DF932091EE023091EF02232BA4
:101A300041F47E3F49F48091EC029091ED026E3FBB
:101A4000A9F090E080E012C0762B782BD1F787E2E6
:101A500090E00E946B35C82FD0E0DC2FCC2788E2C5
:101A600090E00E946B359E01282BC901DF91CF9138
:101A70000895CF92DF92FF920F931F93CF93DF933E
:101A80006C010091D3048091D701082BC7E0D0E00E
:101A900010E0FC2EC8010C2E02C0959587950A9483
:101AA000E2F780FD0CC02197A0F7F12C8F2DDF917C
:101AB000CF911F910F91FF90DF90CF900895B601C5
:101AC0008C2F0E94110D0E94F108019761F3EECF57
:101AD000CF93DF93EC010E94390DBE010E94110DDE
:101AE000DF91CF910C94F108FC01868197810097DA
:101AF00021F00E94F1080C94780B808191810E9462
:101B0000680DF9CF1F93CF93DF9300D000D00F92D1
:101B1000CDB7DEB749835A8389819A816623B9F0AC
:101B20002223A9F00E94390D182F682F89819A81EC
:101B30000E944C0B69817A81812F0F900F900F903A
:101B40000F900F90DF91CF911F910C94110D0E9477
:101B5000230B182FEFCFFC01262F8681978100974A
:101B600039F4408151816281738184810C94820DAA
:101B7000089583E290E00E946B358B3889F484E20B
:101B800090E00E946B35833559F485E290E00E9425
:101B90006B3591E08E3409F090E0892F81700895C3
:101BA00080E0FCCFCF9384E090E00E946B35C82F9B
:101BB00082E290E00E946B35982F8C2FCF91089590
:101BC000DB01FC013296259134914217530758F0FE
:101BD000FC01349665917491A901CD010E944B35A9
:101BE00090E080E008958FEF9FEF08950F931F938B
:101BF000CF93DF9302ED13E0C9E2D0E0CE010E9463
:101C00006B35F80161918F01681719F0CE010E94C0
:101C100079352196CD34D10589F7DF91CF911F9188
:101C20000F910895DA019C012E5F3F4FF901459114
:101C30005491F90125913491A217B30758F0FC0192
:101C40003496859194910E944B350E94F60D90E058
:101C500080E008958FEF9FEF0895CF93DF93CDE35A
:101C6000D1E060E0CE010E9479352196C11584E073
:101C7000D807B9F7DF91CF910895CF93C82F6FEFB1
:101C800081116BE883E290E00E9479356FEFC1111A
:101C900063E584E290E00E9479356FEFC1116EE454
:101CA00085E290E0CF910C947935CF93C92F682FBE
:101CB00084E090E00E9479356C2F82E290E0CF9131
:101CC0000C9479359B01883070F49AE0899FB001BB
:101CD0001124635B7F4F4AE050E0C9010E945B35ED
:101CE00090E080E008958FEF9FEF08958F929F928C
:101CF000AF92BF92CF92DF92EF92FF920F931F931A
:101D0000CF93DF93CDB7DEB72A970FB6F894DEBF37
:101D10000FBECDBF0BEF13E0F12CE12C8EE8C82EE7
:101D20008BE2D82E98EBA92E9BE2B92E27EF822EBC
:101D30002AE2922EF801D182C082B382A2829582D9
:101D40008482F58AE48ABE016F5F7F4F8E2D0E94E8
:101D5000620E892B29F489859A85F801938B828BF1
:101D6000FFEFEF1AFF0A0A5E1F4F88E0E816F10442
:101D700009F72A960FB6F894DEBF0FBECDBFDF91EC
:101D8000CF911F910F91FF90EF90DF90CF90BF9078
:101D9000AF909F908F9008958F929F92AF92BF9235
:101DA000CF92DF92EF92FF920F931F93CF93DF9327
:101DB000CDB7DEB72A970FB6F894DEBF0FBECDBF02
:101DC00004E712E082E6C82E82E0D82E9DEEE92ECE
:101DD000F12C27E0922E31E6A32E32E0B32E882498
:101DE0008394D6010D931D936D014AE050E0B70135
:101DF000CE0101960E945B35F8013896DF01892DEE
:101E00001D928A95E9F789819A81D80111969C9350
:101E10008E938F8112968C9312978D8113968C934B
:101E20001397888514968C931497898515968C93AF
:101E300015978B819C8117969C938E931697189675
:101E40001C9218978A8587FF4BC01E961C921E9283
:101E50001D9780FF03C0D80118968C9281FF04C0A3
:101E6000F80190859260908782FF07C0D80118968C
:101E70009C911897946018969C9383FF04C0F80176
:101E800090859860908784FF07C0D80118969C9130
:101E90001897906118969C9385FF04C0F80180857F
:101EA00080628087015F1F4FFAE0EF0EF11C8DE327
:101EB000E81681E0F80609F094CF2A960FB6F89458
:101EC000DEBF0FBECDBFDF91CF911F910F91FF906D
:101ED000EF90DF90CF90BF90AF909F908F9008953C
:101EE000F801B686A586B5CFCF92DF92EF92FF922A
:101EF0000F931F93CF93DF93CDB7DEB72A970FB61B
:101F0000F894DEBF0FBECDBFE1E1F2E080E5DF0176
:101F10001D928A95E9F7EBE7F3E088E3DF011D9274
:101F20008A95E9F781E1C82E82E0D82E7F010DE97C
:101F300010E0F701D182C0824AE050E0B801CE0142
:101F400001960E945B3588E0FE013196D601019032
:101F50000D928A95E1F789859A85D70113969C930E
:101F60008E931297BAE0CB0ED11CE7E0EE0EF11C77
:101F7000065F1F4F0D3E1105E1F62A960FB6F89445
:101F8000DEBF0FBECDBFDF91CF911F910F91FF90AC
:101F9000EF90DF90CF9008958091F40183FF7EC091
:101FA00084EA93E00E9423038091FA011F928F93A9
:101FB0008FE993E09F938F930E94BC038DE993E098
:101FC0000E9423038091FB01282F082E000C330B65
:101FD0003F938F938AE993E09F938F930E94BC0372
:101FE00088E993E00E9423038091FC01282F082EAA
:101FF000000C330B3F938F9385E993E09F938F936E
:102000000E94BC0383E993E00E9423038091FD01B9
:10201000282F082E000C330B3F938F9380E993E019
:102020009F938F930E94BC038EE893E00E9423034A
:102030008091FE01282F082E000C330B3F938F93C5
:102040008BE893E09F938F930E94BC0388E893E012
:102050000E9423038091F3011F928F9385E893E000
:102060009F938F930E94BC0383E893E00E94230315
:102070008091F2011F928F9380E893E09F938F935A
:102080000E94BC038DE793E00E9423038DB79EB7A7
:102090004C960FB6F8949EBF0FBE8DBF0E946E0582
:1020A0009C019091FB018091FC01982B21F03093D1
:1020B000F8012093F7019091FD018091FE01982B8A
:1020C00021F03093F6012093F501E091AD04F091F9
:1020D000AE04309749F082E08093F9010480F581E5
:1020E000E02D89EF91E009940895CF936E9A6E9A4E
:1020F0002F98F8946E9876982F9A86E880937A00B5
:1021000080EA80937B0080910101816080937C0054
:1021100080917A00806480937A0080917A0086FDB5
:10212000FCCF2091780080917900382F80917A003F
:102130008F7780937A0078943093D9012093D801D7
:102140008091E30180FF0AC04091DF015091E001DE
:102150008E7F2417350750F0C0E00BC04091E1019D
:102160005091E20142175307B8F781608093E30171
:10217000C1E06E9A8091DA019091DB019C012F5FA2
:102180003F4F8C329140F1F03093DB012093DA0124
:10219000CC2389F181E08093DE010E946E0590934B
:1021A000DD018093DC018091DC019091DD010E94D2
:1021B0005305059720F18091E3018093F00110927F
:1021C000DE011DC01092DB011092DA018091D9016D
:1021D0008F938091D8018F9383E692E09F938F93A2
:1021E0000E94BC0381E692E00E9423030F900F90AF
:1021F0000F900F90CDCF8091DE018111D4CF8C2F25
:10220000CF9108958091F2029091D404892B80930C
:102210006E018091D601882309F18091D4039091B9
:10222000D503892B29F00E94B30A81110E94790AF3
:1022300080916E019091D601892B80936E0120E0F0
:1022400080E791E0FC013191CF0131112F5FF1E086
:1022500086379F07B9F721110E94790A8091CB0335
:10226000809590916E0189239091CC03892B809366
:102270006E0148E050E06CEC71E08EE691E00E9467
:102280003E35892BA9F088E0EEE6F1E0ACECB1E058
:1022900001900D928A95E1F7E091AD04F091AE04C2
:1022A000309731F00280F381E02D8EE691E00994C1
:1022B0000895EF92FF920F931F93CF93DF93EC015A
:1022C0008A85811134C0EB80FC8087E5F81A26E10D
:1022D0002E9DC0012F9D900D1124DC01A550BC4FF7
:1022E0001496ED91FC911597309731F054966D91BD
:1022F0007C918F5F9B4F099586E18E9D80018F9D1C
:10230000100D112405501C4FF80187810E949F0A6F
:10231000F80180850E94980A0E940211188219868D
:102320001B861E821D821092FA031092F903DF9120
:10233000CF911F910F91FF90EF900895CF93DF936E
:10234000EC018989811118C081E0898B8F810E94FD
:10235000A60A8091D4049885892B8093D4040E9486
:102360000211EA81FB81309739F06C897D89CE01B9
:102370000696DF91CF910994DF91CF9108958091D6
:102380001C01877F80931C0182E00E94980A809143
:102390001C0184FF06C08F7E80931C0182E00E9496
:1023A000A60A80911C0185FF06C08F7D80931C01C9
:1023B00080E20E94A60A0C94021190E080E00E9444
:1023C000900590E080E00E947A051092D4040E946B
:1023D000021186E0E9EFF1E0DF011D928A95E9F74D
:1023E0001092F3011092F1011092F2010C94CC0FB3
:1023F0008093D3040C94DD118091D304982F9670B0
:10240000963019F488600C94F811877FFCCF21E096
:1024100030E001C0220F8A95EAF720958091D3041D
:1024200082230C94F8119091CB018095892380939D
:10243000CB01282F277091F4282F082E000C330B86
:102440009217130659F09091F10292FD07C08595FD
:10245000859585950E9407120C94AC0A0895909179
:10246000F10292FB222720F9281769F080FB92F9EC
:102470009093F1028091F0029091F1020E94550E2A
:1024800082E00C941312089521E030E001C0220F85
:102490008A95EAF78091D304822B0C94F8119091DD
:1024A000F10292FD10C098E0899F90011124622BE7
:1024B0006093CB010E9444120E946E059093CA0162
:1024C0008093C90108950C9444128093D7010C9411
:1024D000DD111092F202E0E7F1E086E0DF011D92EB
:1024E0008A95E9F70C94DD111F93CF93DF93CDB755
:1024F000DEB7AA970FB6F894DEBF0FBECDBF8BEC48
:1025000094E02091F100DC012D93CD01B4E0833DF6
:102510009B07B9F78091CC04833009F472C0B8F4FA
:10252000813009F449C0823009F4B3C08091E800D9
:1025300083FF9CC28091CB049091CC049A3008F028
:1025400095C2E92FF0E0E954FA4C0C9428358A3012
:1025500009F48EC08B3009F471C0893039F780914D
:10256000CB04813219F78091CF049091D004009769
:1025700011F00297D9F68091E800877F8093E800F8
:102580008091E80082FF38C09091F3008091F200C2
:10259000029731F48091F100813011F0863021F4FE
:1025A0008091F1008093BE048091E8008B77809346
:1025B000E8000E943F04BACF8091CB04813A09F031
:1025C000B5CF8091E800877F8093E8008091CF04A9
:1025D0009091D004892B61F468E08FEB94E070E077
:1025E0000E94F1048091E8008B778093E8009ECFF1
:1025F00060E090E080E0F3CF8091C9048111C0CF0A
:1026000095CF8091CB04813A09F090CF8091CF048F
:102610009091D004892B09F089CF8091E800877FC1
:102620008093E8008091E80080FFFCCF80911E013C
:102630008093F1008091E8008E77B9CF8091CB0430
:10264000813209F073CF8091CF049091D004892B0F
:1026500009F06CCF8091E800877F8093E8000E94AA
:102660003F048091CD0480931E010E9469125ECFC9
:102670008091CB04813209F059CF8091E800877FA7
:102680008093E8000E943F048091CE048093BD04B3
:102690004DCF8091CB04813A09F048CF8091E8007A
:1026A000877F8093E8008091E80080FFFCCF8091D5
:1026B000BD04BECF803899F0823809F0D7C180912F
:1026C000CF048F70873008F0D1C18093E9008091EA
:1026D000EB0085FB882780F91092E90006C0809105
:1026E000C7049091C804911182609091E800977F8F
:1026F0009093E8008093F1001092F1008091E8003F
:102700008E77B0C1882309F49EC1823009F0AEC132
:102710008091CD048111A1C18091CF048F702FEFE2
:10272000280F263008F0A2C18093E9002091EB0029
:1027300020FF93C1933031F48091EB00806280934D
:10274000EB008BC19091EB0090619093EB0021E046
:1027500030E001C0220F8A95EAF72093EA00109238
:10276000EA008091EB008860EACF81117FC110916F
:10277000CD041F778091E3008078812B8093E30064
:102780008091E800877F8093E8000E943F04809159
:10279000E80080FFFCCF8091E30080688093E30035
:1027A00082E0111183E08093C90460C180588230B7
:1027B00008F05CC12091CD043091CE042C3DE3E0C3
:1027C0003E07A1F583E08A838AE289834FB7F894B4
:1027D000DE01139620E03EE051E2E32FF0E050935B
:1027E0005700E49120FF03C0E295EF703F5FEF7068
:1027F0008E2F90E0EA30C0F0C7968D939D932F5FA7
:10280000243159F74FBF8091E800877F8093E8001B
:102810006AE270E0CE0101960E94F1048091E80026
:102820008B778093E80022C1C096E7CF8091CF04D8
:102830009091D004432F55274330510509F44AC0E5
:1028400078F54130510509F485C08BE790E0E9ED5A
:10285000F4E04230510509F009C12091E800277FDA
:102860002093E8002091D1043091D204821793077D
:1028700008F49C0140E02115310509F070C04111B8
:102880006EC08091E80082FDC9CF8091C904882381
:1028900029F2853019F28091E80083FFF2CFBECF94
:1028A0004132510509F447C04232510509F0DEC0FA
:1028B0008430910508F0DAC0FC01EE0FFF1FE45AE6
:1028C000FE4F0190F081E02D885A9E4FDC018C91E3
:1028D00090E01DC0332721303105E9F02115310585
:1028E00079F022303105F9F02330310509F0BEC00E
:1028F000E6E6F5E0E4918E2F90E0E6E6F5E007C02D
:10290000E6EBF5E0E4918E2F90E0E6EBF5E0009742
:1029100009F4ACC0A2CFE4EAF5E0E4918E2F90E098
:10292000E4EAF5E0F4CFE4E8F5E0E4918E2F90E0FE
:10293000E4E8F5E0ECCF8430910508F097C0880F0B
:10294000991FFC01EC59FE4F0190F081E02D89E0C8
:1029500090E083CF82E190E0E4E5F5E07ECF8091E6
:10296000C904882309F45ACF853009F457CF8091E0
:10297000E80083FD53CF8091E80082FD82CF8091F3
:10298000E80080FF78CF9091F3008091F20021154C
:10299000310519F08830910550F041E0089709F0B1
:1029A00040E08091E8008E778093E80064CF449106
:1029B0004093F1003196215031090196E8CF8038DB
:1029C00009F054C08091E800877F8093E8008091EF
:1029D000CA048093F10092CE811148C01091CD04B9
:1029E000123008F043C08091E800877F8093E800B0
:1029F0001093CA040E943F04112311F084E005C023
:102A00008091E30087FDFACF81E08093C90442E022
:102A100061EC81E00E945E0442E261EC84E00E948D
:102A20005E0442E261EC82E00E945E0442E260ECFD
:102A300083E00E945E0442E261EC85E00E945E0455
:102A40008091C90413C08091CD04813079F481E074
:102A5000933009F080E08093C8041092E9008091DF
:102A6000E800877F8093E8000E943F048091E8009F
:102A700083FF0AC08091E800877F8093E8008091FF
:102A8000EB0080628093EB00AA960FB6F894DEBF4D
:102A90000FBECDBFDF91CF911F910895E2EDF3E01E
:102AA000128E138E8FEA90E09183808325E0248F2D
:102AB00088E893E1938382838AE090E0958384831E
:102AC00044E150E05783468368E070E07187608797
:102AD000938782874EE150E05587448797878687A2
:102AE00040E550E0518B408B738B628B68E270E065
:102AF000758B648B62E370E0778B668B68EC70E0BB
:102B0000718F608F158E978F868F51A340A322A35C
:102B10000E94F60D0E9469121092F1021092F002CA
:102B200090E080E00E94550E0C94EC0CCF92DF9266
:102B3000EF92FF920F931F93CF93DF93CDB7DEB742
:102B40006E970FB6F894DEBF0FBECDBFC0901001D8
:102B5000D090110181E090E09093110180931001D9
:102B6000E7ECF3E005911491612F87E290E00E9479
:102B70007935602F88E290E00E9479350E944E15E9
:102B80001A8219821C821B821E821D8218861F8255
:102B900088EC90E09A8789870DE410E04AE050E0E5
:102BA000B801CE0101960E949D35065F1F4F0D3979
:102BB0001105A1F77E018BE0E80EF11C8AE0F70118
:102BC00011928A95E9F74AE050E0B801C7010E94E6
:102BD0009D35065F1F4F0D3E1105A9F77E01F5E1FA
:102BE000EF0EF11C8AE0F70111928A95E9F78FEF59
:102BF0009FEF9A8F898F87E08E8F4AE050E0B8016F
:102C0000C7010E949D35065F1F4F0D33F1E01F077E
:102C1000A1F7D0921101C09210016E960FB6F894F0
:102C2000DEBF0FBECDBFDF91CF911F910F91FF90FF
:102C3000EF90DF90CF90089580E00E943D0E60E01D
:102C400086E290E00E9479350E9496150E942D0E32
:102C500081E00C943D0E69EE7EEF90E080E00E94F2
:102C6000973560E082E090E00E94793560E083E093
:102C700090E00E9479351092D70160E084E090E006
:102C80000E94793560E082E290E00E94793560E050
:102C900085E090E00E94793560E086E090E00E9457
:102CA00079356FEF87E090E00E94793540E050E0A1
:102CB000BA0188E090E00E948B3560E08DE090E002
:102CC0000E94793540E050E0BA0188E190E00E942E
:102CD0008B3560E087E190E00E94793540E050E07C
:102CE000BA018CE190E00E948B3570E060E080E2F8
:102CF00090E00E94973540E050E0BA0188E190E012
:102D00000E948B3580E00E943D0E0E941C1640E020
:102D100050E0BA018FE090E00E948B3540E050E037
:102D2000BA0183E190E00C948B35CF92DF92EF9261
:102D3000FF928FEF9FEF4430510508F46AC0FB010A
:102D4000C080D180E280F3800E9469128091F002FD
:102D5000C0FA80F9B701A601769567955795479512
:102D600040FB81F9B701A60122E07695679557955A
:102D700047952A95D1F740FB82F9B701A60133E0C8
:102D800076956795579547953A95D1F740FB83F926
:102D9000B701A601E4E07695679557954795EA95C2
:102DA000D1F740FB84F9B701A601F5E07695679568
:102DB00057954795FA95D1F740FB85F9B701A601DC
:102DC000A6E07695679557954795AA95D1F740FB6C
:102DD00086F9B701A601B7E07695679557954795AF
:102DE000BA95D1F740FB87F98093F0028091F10208
:102DF000D0FA80F9D1FACC24C0F8C0FA81F98093D6
:102E0000F1028091F0029091F1020E94550E90E043
:102E100080E0FF90EF90DF90CF900895882321F01D
:102E20000E94980A0C9402110895882339F0909119
:102E3000D404982B9093D4040C9402110895882301
:102E400021F00E949F0A0C9402110895882321F01A
:102E50000E94A60A0C9402110895882309F452C016
:102E6000823871F40E94A60581FF4CC089E30E945C
:102E7000E00A0E94021189E30E94D30A0C94021115
:102E8000833859F40E94A60580FF3CC083E50E9468
:102E9000E00A0E94021183E5EFCF843859F40E94C2
:102EA000A60582FF2FC087E40E94E00A0E9402115B
:102EB00087E4E2CF9CEF980F913AF0F290E2980FFE
:102EC000983050F4877091E001C0990F8A95EAF725
:102ED000892F0E949F0AD2CF9BE5980F933020F450
:102EE00090E080E00C94900598E5980F973120F4DD
:102EF00090E080E00C947A05803F20F00E942B0740
:102F00000C94CC0F0895FF920F931F93CF93DF93F0
:102F1000F82E0091D0031091D1030115110509F489
:102F200049C01092CF031092CE031092CB0310929F
:102F3000CC03D8011696CD91DC919E013A952115CE
:102F40003F4108F4D07ED1E0C11101C0D0E0D801EA
:102F50001996ED91FC911A97309731F01B966D916F
:102F60007C9180E00995D823DD2339F08CEF8C0F1C
:102F7000813A38F58C2F0E94D30AFF2099F0E09116
:102F8000D003F091D103808584FD0CC08091CD03E6
:102F9000882341F0808191819C0121503109253A9B
:102FA0003D45A8F00E9402111092D1031092D00367
:102FB0001092CD03C801DF91CF911F910F91FF9027
:102FC00008950E9402118C2F0E942D17D6CF0E94C7
:102FD000B205E8CFCF93DF93EC010E942D17CE010D
:102FE0000E94AB0B9E01205E31092830310510F0A4
:102FF000CD2B21F4DF91CF910C941F17DF91CF914E
:103000000C940E17CF93C82F882309F48CC08238F4
:10301000C1F40E94A60581FD86C089E30E94E00AF2
:103020000E9402112FEF81EE94E0215080409040E9
:10303000E1F700C0000089E30E94D30ACF910C940D
:1030400002118338A1F40E94A60580FD6CC083E5BF
:103050000E94E00A0E9402112FEF81EE94E02150BD
:1030600080409040E1F700C0000083E5E5CF843860
:10307000A1F40E94A60582FD56C087E40E94E00AE2
:103080000E9402112FEF81EE94E021508040904089
:10309000E1F700C0000087E4CFCF8CEF8C0F813ABE
:1030A00068F4E0E7F1E08191C817B9F121E0E63773
:1030B000F207C9F78C2F0E94E00AC0CF80E28C0F84
:1030C000883048F4C77081E001C0880FCA95EAF7DC
:1030D0000E94A60AB3CFEBE5EC0FE33040F4F0E03A
:1030E000E95DFE4F808190E0CF910C949005E8E57A
:1030F000EC0FE73150F4F0E0EE0FFF1FE65DFE4FFE
:1031000080819181CF910C947A05C03F60F08C2F23
:103110000E944608CF910C94CC0F8C2F0E94D30AAA
:103120000E940211C7CFCF9108951F93CF93DF93D1
:10313000182FC091F203D091F303893321F0C0918D
:10314000F003D091F103812F0E940218209731F4EF
:10315000812FDF91CF911F910C942D178FE99FE064
:103160000197F1F700C000002197F0CF0F931F9354
:10317000CF93DF93C42FD22FFC0182818823A1F04B
:103180004093F8030E946E059093F7038093F60333
:10319000C77081E001C0880FCA95EAF7DF91CF912F
:1031A0001F910F910C9426171091F803141339C036
:1031B0008091F6039091F7030E9453052091EA0352
:1031C0003091EB038217930760F5C0E2CD0F1D1716
:1031D000B9F080E2810F883040F4177081E001C0BF
:1031E000880F1A95EAF70E941F17C83048F481E04B
:1031F0009D2F977001C0880F9A95EAF70E942617B5
:10320000802F0E949518C83098F4D77081E001C0D3
:10321000880FDA95EAF7DF91CF911F910F910C9407
:103220001F17C77081E001C0880FCA95EAF7F3CF76
:10323000DF91CF911F910F910895AF92BF92CF92DE
:10324000DF92EF92FF920F931F93CF93DF93EC01E6
:103250008AE0A82E2881222309F48CC02130C9F5E8
:1032600099818A81913021F422960E94951805C097
:10327000923029F422960E9402182196EBCF9330C7
:1032800021F422960E942D17F8CF943011F0219648
:10329000F4CF229630E020E0AE014F5F5F4F8053C5
:1032A000990B8A30910550F02150310930F38FE9A4
:1032B0009FE00197F1F700C00000F6CFA29EB00199
:1032C000A39E700D11249C01260F371F8981EA01EE
:1032D000E3CFE22FF0E0EF51FE4FB490822F8695BE
:1032E0008695869590E0FC01EF52FE4FE4902770A2
:1032F000F12C022E02C0F594E7940A94E2F731E033
:10330000E322FF24FC01EF53FE4FC490D12C022E88
:1033100002C0D594C7940A94E2F731E0C322DD24B9
:10332000FC01EF54FE4F049110E002C01595079583
:103330002A95E2F701701127E114F10419F081EEEA
:103340000E940218C114D10419F086EE0E940218DE
:103350008B2D0E949518CD2819F086EE0E942D170E
:10336000EF2819F081EE0E942D17012B09F485CF6B
:103370008CE27BCFDF91CF911F910F91FF90EF9067
:10338000DF90CF90BF90AF900895CF93DF93EC0183
:103390000E94AB0B9E01205E31092830310510F0F0
:1033A000209739F40E9426178C2FDF91CF910C942F
:1033B00002180E941517F8CF662329F02091D40433
:1033C00022602093D4049C013056211540E234073A
:1033D00020F0305E2115304108F499270C94C5196E
:1033E000DF92EF92FF920F931F93CF93DF937C01B5
:1033F0008B01D42E80911C0182FF8CC0C0911503DB
:10340000D0911603CE15DF0521F0E114F10409F087
:1034100081C080911C018B7F80931C0181FD73C052
:103420008091130390911403A801481B590B81E06C
:1034300020911A0130911B014217530708F480E0D4
:103440008170F82E80911C01F0FA81F980931C01A3
:10345000FE0183E0F695E7958A95E1F7EE71FF2787
:10346000ED50FD4F20813181AE014F70552781E035
:1034700090E002C0880F991F4A95E2F7FF2009F4F7
:1034800044C0822B932B918380838091F20281FF31
:1034900008C080911C01806180931C0182E00E9421
:1034A0009F0A8091F20285FF08C080911C01806212
:1034B00080931C0180E20E949F0A6F2DCE010E9422
:1034C000DC19DD2031F08091ED0385FF02C086FF1D
:1034D0003BC08091F0039091F1030E94E20C809137
:1034E0001503909116039C013056211540E23407D4
:1034F00020F0305E2115304108F499270E94EA1728
:103500000E94BF111DC081E09BCF809590958223C2
:103510009323B9CFC701992797013056211540E26F
:10352000340728F0305E2115304108F0C7010E94B1
:10353000EA1780911503909116038E159F0501F3EC
:103540001093140300931303DF91CF911F910F91F8
:10355000FF90EF90DF9008952F923F924F925F92ED
:103560006F927F928F929F92AF92BF92CF92DF9293
:10357000EF92FF920F931F93CF93DF9300D000D071
:1035800000D00F92CDB7DEB77C01DC0113964D91D0
:103590005C91149711966C9111978C910E9423065F
:1035A0008111CBC061E0C7010E94AB0D8C01F70116
:1035B0008281811161C0D70112968C9181119BC0CB
:1035C0000031FFE51F0709F473C101312FE5120730
:1035D00009F472C16801E7E5DE1AFFEFCF16D104E6
:1035E00009F060F567E072E08C2D0E94620E892B75
:1035F00029F586E18C9DF0018D9DF00D1124E5509B
:10360000FC4F8681813009F059C180910702909169
:103610000802892B99F08091090290910A02892B66
:1036200069F080910B0290910C0220910D02309173
:103630000E02822B932B892B09F44AC1F701528089
:10364000552009F457C10F35FDE51F0709F44EC198
:1036500000362DE5120751F00E353DE5130709F050
:1036600049C180910001882309F440C110920001F2
:1036700080E00E94831751C080910E0190910F014C
:10368000019609F498CFEBEFCE2EE3E0DE2EB12CBD
:10369000A12C9924939480910E0190910F018A1589
:1036A0009B050CF488CFF60186818823E9F081859B
:1036B00092850817190739F48091F9039091FA035C
:1036C0000817190789F0D6011F969C921F971C9620
:1036D0001C930E931B97C6010E949E11C60106966D
:1036E0000E9459111092D404BFEFAB1ABB0AE6E155
:1036F000CE0ED11CD0CFC80182519F45409710F00B
:103700000C94C4238FEF93E00E946B357EEED72E8E
:10371000D00E0DE311E08823A9F18091CB018770D1
:1037200061F0D70112968C91882339F08091F102D3
:1037300082FD03C082E00E94131227960FB6F89410
:10374000DEBF0FBECDBFDF91CF911F910F91FF90D4
:10375000EF90DF90CF90BF90AF909F908F907F9031
:103760006F905F904F903F902F9008950115F4E077
:103770001F0799F2C8010E946B35811101C0DA94CC
:103780000F5F1F4FD110F2CF19821A821B821C8249
:1037900099249A9468012FEFC21AD20AC8010E9494
:1037A0006B3589831A82882309F4B7CF813009F0F9
:1037B00073C0580132E0A30EB11CC6010E946B35E4
:1037C000C82E8A83882309F4A8CFC5010E946B35CF
:1037D000D82E8FEF8C0D833068F4580143E0A40E8F
:1037E000B11CDB82DD2021F0CE0101960E941D1963
:1037F0008501D0CF8BEF8C0D833030F5C801039657
:10380000DB825C01DD20A1F3580154E0A50EB11C60
:103810000E946B358C83882359F38B819C81813086
:10382000AFEF9A0710F0982F8827B6E0CB1631F04B
:10383000E7E0CE1631F00E947E2BDACF0E944E2BAD
:10384000D7CF0E94C82AD4CFF4E0CF12D1CF5801ED
:1038500024E0A20EB11CC80103960E946B35DD2046
:1038600009F45BCF882309F458CF8150990B989EB7
:103870009001999E300D11244D2D4150550BCA01D8
:10388000820F931F019708F4B3CFAFE9BFE0119700
:10389000F1F700C00000F6CFCE0101960E941D197D
:1038A0005601A6CF81E00E9444120E94FC1135CF40
:1038B00081E00E940712F9CF82E0FBCF823009F04D
:1038C000BDCE80910B0290910C02892B09F4B6CEEB
:1038D00026E12C9DC0012D9D900D112485509C4FFB
:1038E000DC0150961C920E949E11A8CE81E080932C
:1038F000000113CF80910001882309F46DC64801AF
:1039000040EE841A91084090D6018091C801482A5F
:103910008091F202482A58E08516910408F086C08A
:1039200098012770332781E090E001C0880F2A9525
:10393000EAF7552009F477C0482AD7018D919C9168
:103940000E94230B21E030E0390102C0660C771C95
:103950008A95E2F7E091D003F091D103FF83EE83E3
:1039600020907601309077011D822D81E22FF0E0CA
:10397000EE0FFF1FEE59FD4FC080D180C114D1045E
:1039800009F4EDC6411005C0D60112968C91811143
:1039900087C0F601838190E086219721892B09F465
:1039A0007FC08085982F977009F487E0F8E08F1624
:1039B000910408F055C0552009F44EC086958170D9
:1039C000882309F46DC0D601AD90BC900A151B0583
:1039D00019F4552009F464C0EE81FF81CE16DF068C
:1039E00009F45EC0D6011D96ED91FC91309721F04F
:1039F0008081882309F454C0642DC6010E94030607
:103A0000882309F44DC00A151B0509F0FAC60115F3
:103A1000110509F4FBC65110FBC6A214B30409F04A
:103A20003FC0512CF5C68095482287CF552009F418
:103A30007FC610937701009376010E946205609320
:103A4000C7037093C8038093C9039093CA0310926D
:103A5000CF031092CE0371CF82FB882780F9B0CFBD
:103A60005520F1F08170ACCF0E942D17EFC604975E
:103A7000813A910548F48A2D0E94E00A552009F404
:103A8000ABC50E94021149CE0E9402118FE39CE94E
:103A90000197F1F700C000008A2D0E940218EECFB6
:103AA0009D819F5F9D8361CFFC0120813181021741
:103AB000130709F08AC551108AC51092CD0380E022
:103AC00060C6882309F4D7C5FA018189882309F4DF
:103AD000D2C5C5018F5F9B4F0E945911CCC5809103
:103AE0001C01816080931C01F4C580911C018E7FB4
:103AF00080931C010E94BF11ECC580911C018F7E38
:103B0000013E110531F0053E1105C9F480911C01FB
:103B10008F7D80931C0180911C0180FFE9C5D70136
:103B200012968C910832110528F50E31110508F016
:103B300074C00430110580F58111D6C5D9C5C801FE
:103B40009056811540E2940720F0905E81159041D7
:103B500010F780911C0182FFCBC58091EF0381FD9E
:103B6000C7C525EE31E040E0B60190E080E00E945C
:103B7000F019BEC50933110558F40D32110518F4BA
:103B80000B321105C9F69091ED0392FDD5CF08C017
:103B900004361105C1F3D0CF9091ED0394FDCCCF45
:103BA000882309F4A1C09091F2028091D601282FB8
:103BB000292B322F3D7FB1F110921603109215037D
:103BC0003091ED0331FD2EC0F80143E0F695E79505
:103BD0004A95E1F7EE71FF27ED50FD4F98012F70E8
:103BE000332781E090E002C0880F991F2A95E2F701
:103BF00080959095208131818223932391838083C6
:103C000060E0C8010E94DC198091D6018D7F0E947E
:103C1000840A82E00E94131280CD9091ED0393FDFF
:103C20008BCFBECF38E0F701A5EEB1E001900D9249
:103C30003A95E1F71092E7011092E9011092E8013C
:103C4000A0901503B09016030A151B05B1F530912D
:103C5000ED0335FF32C040911C0141FB992490F8DF
:103C600041FF02C036FF29C0409113035091140355
:103C7000B601641B750B4091EA035091EB03641786
:103C80007507D8F491FF08C080911C018061809372
:103C90001C0182E00E949F0A8091F20285FF08C009
:103CA00080911C01806280931C0180E20E949F0A27
:103CB000692DC5010E94DC1930CD90911C0121FBBA
:103CC00091F990931C018D7F0E94840A1093160332
:103CD00000931503D0921403C092130380911C012A
:103CE000846080931C0195CF970140E0B601C80124
:103CF0000E94F01912CD053F4CE5140709F462C08B
:103D000008F45AC0063F8CE5180709F461C0D701D2
:103D100012963C91332309F444C51092F803033002
:103D2000BDE51B0708F060C00A3FECE51E0730F454
:103D3000C80182509C45449708F060C00E94D20D93
:103D40009093F1028093F00201313CE5130709F4EE
:103D500065C108F0E2C009305CE5150709F44CC103
:103D600008F0AFC005309CE5190709F43DC108F023
:103D700095C00330BCE51B0709F42CC108F030C125
:103D80008091F002816002301C4509F426C18091C7
:103D9000F0029091F1020E94550E0E946912BDCC72
:103DA00007E225EE45EE68ED7CE5BDC406E221EEB6
:103DB00040EE63EF7CE5B7C407E225EE44EE64EF26
:103DC0007CE5B1C406E221EE42EE65EF7CE5ABC4D2
:103DD00007E225EE46EE66EF7CE5A5C408E221E0A9
:103DE00045EE69ED7CE59FC40136FDE51F0709F44A
:103DF000A5CF053A2DE5120709F4A0CF06318CE5D1
:103E0000180709F4D2C40A358DE5180709F45CC116
:103E100008F038C10115ACE51A0709F445C10E3D9B
:103E20001C4509F44EC1F70186819781009709F47A
:103E30004FC10E94F108182F092FF701D280C580C9
:103E4000C2943FE0C3228091CB018770C1F0AD2CBA
:103E5000DD20B1F0892F807F803421F080E2810F56
:103E6000883068F08091F10282FD09C082E00E94F2
:103E700013128091CB018770AA24A3948111A12CE5
:103E8000902E92942FE09222FBE0F91508F4ADC138
:103E9000E92DF0E0EF53FA4C0C9428358091F002B4
:103EA000806207302CE5120709F497C08091F00278
:103EB000806108301C4508F490C08091F002806455
:103EC0008CC08091F0028B7F0D304CE5140709F413
:103ED00084C080F40B308CE5180709F493C08091FE
:103EE000F0028C600C301C4508F477C08091F00221
:103EF0008D7F73C08091F0028F7E0F30ACE51A0782
:103F000009F46BC08091F002877F00311C4508F4F2
:103F100064C08091F0028F7D60C00D3FECE51E070C
:103F200009F478C050F505312CE5120709F480C07A
:103F300098F48091F002837F03314CE5140709F473
:103F40004CC008F46FC00E9469129091F002892F52
:103F500097FB87F9805841C00B3F8CE5180709F49F
:103F600047C008F053C08091F10281600A3F1C45B0
:103F700009F00DCF8093F1020ACF0130BDE51B0798
:103F800009F462C0B8F48091F1028C7F0F3FFCE528
:103F90001F0781F38091F102836001151D4550F3E5
:103FA0008091F102982F909591708E7F892B90FBD4
:103FB00081F9E0CF01363DE5130709F44BC0053A1E
:103FC0004DE5140709F44DC002301D4509F0DFCE60
:103FD00060E03BC08091F00282608093F002D7CE17
:103FE0008091F0028460F9CF8091F0028860F5CF73
:103FF0008091F1028260BECF0E9469128091F0022E
:104000008068EBCF8091F0028E7FE7CF8091F10244
:104010008E7FB0CF8091F1028D7FACCF8091F00286
:104020008F7BDBCF0E9469128091F0028F77D5CF12
:104030008091F00282FB992790F921E0922790FB72
:1040400082F990FB83F9C9CF61E08EE090E00E9495
:1040500079359DCE9091F002892F8F7E94FF8061FB
:10406000BCCF9091F002892F8E7F90FF8160B5CFF9
:1040700080917801811104C089E20E94D30A01CDA8
:1040800085E3FBCF0B35EDE51E0701F10C351D4532
:1040900009F0C9CE8091F10282FB882780F991E076
:1040A00089270E942F12BFCE0E9469122FEF34E39E
:1040B0004CE0215030404040E1F700C000000E9439
:1040C000BE0C0E942B1629CB81E0EBCF80E0E9CF1C
:1040D000828100811181882369F0C8010E94390D15
:1040E000D82E682FC8010E944C0BB8018D2D0E945C
:1040F000110D9FCEC8010E94230BD82EF6CF202F82
:104100002F70B22E802F807F19F0B29490EFB922D9
:10411000DD20A9F0BB2059F080E2810F883010F03B
:10412000111107C08B2D0E94A60A0E940211812F37
:104130005AC08091D404B82AB092D404F6CF812F0B
:104140000E942D17BB2009F450C080E2810F8830F7
:1041500010F0111104C08B2D0E949F0A03C08B2DFB
:104160000E94980A0E94021140C0302F3F70B32E67
:10417000802F807F803219F0B29480EFB822112313
:1041800021F1113009F4A4C0DD2009F4ADC0CC2028
:1041900009F47DC020E0D7014C9111965C911197F4
:1041A00012966C91129713967C91139714968C919A
:1041B0000E94820D8091EF0381FDB9CFF7018581C7
:1041C00080FFB5CF8F70858362C08091F10282FF3E
:1041D00040C0DD20C1F1BB2029F08B2D0E94A60A32
:1041E0000E94021180E00E940218A92DA850BB0B6A
:1041F000149710F40E94A605812F902F0E94780B2F
:104200008111C4C110927A0110927901AA20B1F0F3
:104210008091CB0180FD12C0D70112961C9285952A
:10422000859585950E944412C7010E94AC1A809121
:10423000CB018595859585950E94071260E0C701A1
:104240000E94AB0D7ACA80E00E942D17BB2069F254
:1042500082CFDD2001F1C11004C08091D6018B29ED
:1042600017C041E0C41206C08091D6018B290E947C
:10427000840ABBCF8091EE03823078F3C812EDCF71
:104280000E94790A8091C801B812B092C8018B2DA2
:104290000E942617AACFC11006C00E94790A8B2D52
:1042A0000E941F17A2CF8091EE0351E0C5120BC0F0
:1042B000823008F49ACF8091F2028B2109F495CFD5
:1042C0000E94CD0AEACF823040F3C812E6CF8DCFEC
:1042D0008091F403DD2021F08C1508F486CFD7CF30
:1042E000C81608F082CFDBCFCC20C9F28091F20350
:1042F0009091F303193321F08091F0039091F10331
:104300000E94E20C812F0E942D176FCF802F86957F
:104310008695837069F0813009F067CF812F902FE7
:104320009370D11002C090E080E00E947A055DCFCA
:10433000812F902F9370D11002C090E080E00E94F6
:10434000900553CF812FDD2029F00E9446080E945E
:10435000CC0F4BCF0E942B07FACF802F837091F5A3
:10436000D11043CF412F429546954770440F440FDB
:10437000812F8F70042E01C0880F0A94EAF7212F35
:10438000207114FF07C02FE030E001C0220F4A95D2
:10439000EAF72095302F369536953370323069F034
:1043A00050F44091D701313029F0822B84230E94B0
:1043B00065121BCF842B822BFACF282B8091D7013B
:1043C0008227F5CF8695DD2011F0802F817088231C
:1043D00009F40BCF412F429546954770440F440F87
:1043E000812F8F70042E01C0880F0A94EAF7212FC5
:1043F000207114FF07C02FE030E001C0220F4A9562
:10440000EAF72095302F369536953370323069F0C3
:1044100050F44091D304313029F0822B84230E9440
:10442000F811E3CE842B822BFACF282B8091D30472
:104430008227F5CFF02FFF70BF2EDD2029F08F2FC0
:104440000E944412812F24CF812F0E941F178B2D91
:104450000E940712CACE123F89F160F4103FB9F0F2
:10446000113F81F0DD2009F48CC0C11060CE802F97
:104470008F7128C0133F49F1143FA1F78091F102D9
:1044800082FF2FC0802F8F71DD2011F31BC0809120
:10449000F403DD2079F0C81608F0A7CE202F2F7185
:1044A00081E090E001C0880F2A95EAF79091D3044B
:1044B0008927B5CF8C1508F498CEF0CF802F8F7157
:1044C000D110C6CF0E94441290CE80E0DD2009F4C6
:1044D000A6CF81E0902F9F7101C0880F9A95EAF7CF
:1044E0009ECF8091EE038230A0F18091C801DD2043
:1044F000F1F00E949F0A8091CB018770843041F4D3
:104500000E94AC0A802F8F710E940712A12C6DCEE1
:104510008091EE03C816D0F7202F2F71B22E822F74
:104520000E94441263E08B2D0E944F12EFCF0E9435
:10453000A60A8091EE03C81640F00E94AC0A0E94C1
:10454000CD0A64E0802F8F71EFCF81E00E941312BB
:10455000DDCFDD2059F0302F3F71B32E832F0E9425
:10456000441263E08B2D0E944F123FCE81E00E94E7
:10457000131241E04C1508F038CE82E00E9413126D
:1045800034CEC110B3CE802F8F7162CFDD2019F0F1
:10459000C11038CE3BCEC11035CE20E0F7014081AE
:1045A00051816281738184810E94820D8091EF0329
:1045B00083FF28CE8091790190917A01029709F0CA
:1045C00021CE812F0E9495181DCE552029F0DC01A7
:1045D00018968C9185FF73CAC80197558F3F910536
:1045E00011F008F048C020910E0130910F012817FA
:1045F000390724F490930F0180930E01F701228173
:1046000036E1389F5001399FB00C1124A501455067
:104610005C4F6A01DA0150962C935097928116965E
:104620008C911697992309F44CCA1A961C930E93F1
:1046300019978F5F16968C930E946E05F6019687E8
:1046400085878091D60187838091D4049091F2026E
:10465000892B80870190F081E02D309741F0D601C1
:1046600054966D917C91C5018F5F9B4F0995109376
:10467000FA030093F9038091ED0380FF39C00E9493
:104680006E056C01D70112968C91882309F435CA06
:1046900080911C0182FF08C025EE31E040E0B601A8
:1046A00090E080E00E94F0190B31BCE51B0709F493
:1046B00016CA0C31ECE51E0709F417CA90911C01CB
:1046C000892F8E7F90FF81600A31FCE51F0709F476
:1046D0000FCAC8019056811520E2920728F0905E1B
:1046E0008115904108F017CA109216031092150315
:1046F000033FBCE51B0709F459CB08F0FCCA083D91
:10470000FCE51F0709F44CCB093D2CE5120709F421
:1047100065CB073D3CE5130709F0F9CA06E221EE37
:1047200041EE67ED7CE5C7010E94B6180C948D1B25
:1047300080917601909177010817190781F4109202
:104740007701109276011092C7031092C80310925D
:10475000C9031092CA031092CF031092CE03809126
:10476000D0039091D103009709F436CFA8E08A16C0
:10477000910408F099C9642D0E94030681112CCF81
:1047800081E00E94831728CF00313FE5130709F429
:1047900089C801314FE5140711F00C941E1B82E00B
:1047A00082C806311C4509F03ECB8091F202982F59
:1047B0009A7A2091EC0320FF04C0482F447409F03A
:1047C00090E021FF04C0482F417109F090E022FFE2
:1047D00004C0482F487809F090E023FF03C082729C
:1047E00009F090E0332309F443CC81E0911101C03A
:1047F00080E08093780189E2911185E30E94E00ACC
:1048000040C9A114B10409F008C9512CB12CA12C44
:1048100080E00E948317D092D103C092D00381E040
:104820008093CD03F60185818093CB0351100EC098
:10483000AB2861F0F601808191819C0124503109FF
:10484000213A310508F010C90E94D30AD601169604
:10485000AD90BC90C5019A9581159F4110F4E0EE92
:10486000BE2277247394C5010197853A9D4508F0CF
:10487000712CD6011996ED91FC911A97309731F071
:104880001B966D917C9181E009957822772079F0D3
:10489000F601868197810E94AB0B8093CC03C50102
:1048A000F8E08F16910408F0E2C80E94B2050E9459
:1048B0000211E4C8CF92DF92EF92FF920F931F9301
:1048C000CF93DF9380918301807F31F480918001C9
:1048D000C091C70181110BC0DF91CF911F910F9142
:1048E000FF90EF90DF90CF9008952196C770809150
:1048F00086018C1789F3F0907E01E0907F01C090D3
:104900008101D0908201A6016E2D8F2D0E94230679
:10491000D0E08111EACF8E0183E0000F111F8A954C
:10492000E1F7F801E957FE4F81818E11DECF8081DA
:104930008F11DBCF82818111D8CFE380F480EC1816
:10494000FD0860E08EE791E00E94AB0D8091EA03E4
:104950009091EB03E816F90640F6809183018F7081
:10496000806180938301F801E457FE4F80818F704E
:10497000806180838EE791E00E94AC1ADF91CF9135
:104980001F910F91FF90EF90DF90CF900C94190B37
:104990003F924F925F926F927F928F929F92AF92CF
:1049A000BF92CF92DF92EF92FF920F931F93CF931C
:1049B000DF93CDB7DEB765970FB6F894DEBF0FBEB5
:1049C000CDBF8C0185E0F801DE01519601900D927A
:1049D0008A95E1F7D8014C9011965C901197129648
:1049E000EC9012971396CD90DC9060E08EE791E00A
:1049F0000E94AB0D8EE7A82E81E0B82E8090810139
:104A000090908201A40160917F0180917E010E94BB
:104A100023068111CAC1F0908001F601E819F90955
:104A20004F0160E0FF2009F46DC1C5010E94AB0D8C
:104A30006090EA037090EB03309083018614970432
:104A400008F013C14091810150918201B0907E0124
:104A5000A0907F01832D807F6A2D09F0ADC08B2D42
:104A60000E942306FE2C81113BC0D80111968C9127
:104A700011978A1135C08C918B1132C0209184011D
:104A80003091850116968D919C912817390741F533
:104A9000E11026C0832D8F708061809383018EE7A3
:104AA00091E00E94AC1A80918301F80185838F2DDB
:104AB00065960FB6F894DEBF0FBECDBFDF91CF91E4
:104AC0001F910F91FF90EF90DF90CF90BF90AF902C
:104AD0009F908F907F906F905F904F903F90089540
:104AE000F4EF6F16F1E07F0620F48091EF0380FF72
:104AF00021C0A601652D842D0E942306811118C0B6
:104B000081E08E2580FF16C04E2D652D842D0E94DC
:104B1000F90A882379F08EE791E00E94AC1A88E0C8
:104B2000EEE7F1E0DF011D928A95E9F7F12CBFCFA6
:104B300080E0E8CFA601652D842D0E942306811117
:104B400024C081E08E25B82FB170CB2E80FF2BC002
:104B50004E2D652D842D0E94F90AD82E811123C077
:104B6000498A5A8A89899A890E94680D292F229533
:104B70002F70223060F0243088F49F7061F0F801CB
:104B80009581907F41F4FD2C92CF80E0DCCF9F7027
:104B900011F08823C1F3805E8830A8F3C8010E9419
:104BA000AC1ADC2CF0CFEE2009F481CF8091830188
:104BB000816080938301BACF8B2D0E9423068111DF
:104BC00024C0D80111968C9111978A111EC08C9126
:104BD0008B111BC0209184013091850116968D9117
:104BE0009C9117972817390781F4E1100EC015968C
:104BF0003C92C8010E94AC1A88E0F801AEE7B1E02F
:104C000001900D928A95E1F752CFC8010E94740D70
:104C1000882339F1EE2029F1809183018032A0F0C0
:104C200020917E0130917F013A8729871B86DD869E
:104C3000CC868E878091840190918501988B8F8797
:104C4000CE0109960E94AC1A88E0F801AEE7B1E007
:104C500001900D928A95E1F70E945A24FF24F39463
:104C600026CFC8010E94AC1AF9CF832D807F09F4AA
:104C700052CF90907E0180907F01409181015091B0
:104C80008201682D892D0E94230681111CC0F80124
:104C90008181881118C08081891115C020918401FB
:104CA00030918501868197812817390761F4E110D9
:104CB0000AC03582C8010E94AC1A88E0D5011D9255
:104CC0008A95E9F7F4CEC8010E94740D882349F251
:104CD000EE2039F280918301803208F4B5CF209123
:104CE0007E0130917F013A8329831B82DD82CC8251
:104CF0008E83809184019091850198878F83CE0166
:104D00000196A0CF8EE791E00E94AB0D8091EA035F
:104D10009091EB038816990680F6FE2CEE2009F49C
:104D2000A0CFE0907E01D0907F0140918101509111
:104D300082016D2D8E2D0E942306811128C0F8015D
:104D400081818D1124C080818E1121C02091840128
:104D5000309185018681978128173907C1F48091A8
:104D6000EF0382FD49CF9091830190FD45CF907F65
:104D700009F442CF809183018583903F09F439CFB4
:104D8000982F907F905F8F70892B858332CFC801D9
:104D90000E94740D811158CF8091830181608093AE
:104DA0008301C8010E94AC1A82CEEE2009F459CFCB
:104DB000C8010E94740DF82E882309F452CF88E0B0
:104DC000F801AEE7B1E001900D928A95E1F780918C
:104DD0007E0190917F010E94680D0E945A2467CE47
:104DE000CF93DF93CDB7DEB760970FB6F894DEBFF1
:104DF0000FBECDBF29873A874B875C876D877E873B
:104E00008F87988BCE0109960E94C82481112FC0EC
:104E100088E0FE013996DE01119601900D928A9587
:104E2000E1F74C855D856A8589850E94230681119D
:104E30001EC0A0918601B0E0CD0101968770992730
:104E40002091C7012817190609F193E0AA0FBB1F8B
:104E50009A95E1F7A957BE4F98E0FE01319601906F
:104E60000D929A95E1F7809386010E94190B80912B
:104E7000C70190918601891317C060960FB6F89408
:104E8000DEBF0FBECDBFDF91CF9108950E946912A2
:104E9000109286011092C70188E0EEE7F1E0DF0191
:104EA0001D928A95E9F7E3CFB8E08B9FC0011124EA
:104EB00089579E4F0E94C8248823F9F28091C70128
:104EC00090E00196877099278093C701D0CFEF9229
:104ED000FF920F931F93CF93DF9380911A03882340
:104EE00061F0C09119038CE0F82E80911A03C81765
:104EF00058F010921A0310921903DF91CF911F916D
:104F00000F91FF90EF900895EE24E394EC0EE09261
:104F100019030C2F10E0CF9DE0011124C55EDC4F7A
:104F20004B815C81698188810E94230681111DC0AB
:104F30008E819F81892B21F488859985019651F472
:104F4000288139814A815B816C817D818E819F813D
:104F50000E94F026F09EF001F19EF00D1124E55E16
:104F6000FC4F148213821092D404CE2DBECF109227
:104F7000BE031092BD0310921D018091BC0380936B
:104F8000BB030E945C060C9467273F924F925F928E
:104F90006F927F928F929F92AF92BF92CF92DF9249
:104FA000EF92FF920F931F93CF93DF93C091BB03B8
:104FB00097E0892E01E010E02CE0322E3EEF932E98
:104FC000442443948091BC038C1315C00E9467272E
:104FD000DF91CF911F910F91FF90EF90DF90CF90D5
:104FE000BF90AF909F908F907F906F905F904F9009
:104FF0003F900C945C06D0E0FE01EE0FFF1FED54D5
:10500000FC4F80819181889ED001899EB00D112432
:10501000A558BC4F14962C911497211157C050904D
:105020001A03EBE1F3E030E020E0712C5D0125157F
:1050300008F04AC0E284F384D501CD90DC906FEF94
:105040007FEF612C462D50E0DA01AA0FBB1FAC0D9B
:10505000BD1D0D90BC91A02D109731F0EA16FB06F6
:1050600009F4BA016394EECF6F3F7607A1F1D8013E
:1050700002C0AA0FBB1F6A95E2F77A2AB80102C0E4
:10508000660F771F6A94E2F7AB014150510974161D
:105090001506F9F4329EF001339EF00D1124E55E01
:1050A000FC4F889ED001899EB00D1124A558BC4F9D
:1050B00012962D913C91139737832683908291828B
:1050C0009187808715964C920E942E062196C37078
:1050D00079CF148213822F5F3F4F3C96A8CF2F9237
:1050E0003F924F925F926F927F928F929F92AF9278
:1050F000BF92CF92DF92EF92FF920F931F93CF93C5
:10510000DF93CDB7DEB769970FB6F894DEBF0FBE59
:10511000CDBF942F498B252F5A8B6B8B7C8B8D8B1E
:105120004C895D89622F892F0E942306811109C055
:105130008091790190917A01019690937A01809300
:1051400079018B8981111092D4041D861E861F86D9
:10515000188A85E0FE017196DE01199601900D9284
:105160008A95E1F78091F10282FD1EC08091D403FF
:105170009091D503892BC1F00E946E052091C90141
:105180003091CA01821B930B2091D4033091D50337
:105190008217930720F08091CB0182FFF5C10E9416
:1051A000B30A81110E94790A4C855D856A858985DB
:1051B0000E942306811111C061E0CE0109960E9470
:1051C000AB0D6C018B8527EFC2162CE5D20681F45E
:1051D000882321F181E080931D0129853A854B8543
:1051E0005C856D857E858F8598890E94F026C5C077
:1051F00038EFC3163CE5D30629F4882379F00E94E2
:10520000B727EBCF49EFC4164CE5D40639F4882311
:1052100029F080911D018111F2CFDCCF0BE713E063
:10522000512CB12CA12C22242394312C2EEF422E70
:10523000F8014081518188248A94982C20E0822FA3
:1052400090E0FC01EE0FFF1FE40FF51F60817181FC
:105250006115710531F0C616D70609F44C012F5FB0
:10526000EECFF12CFFEF8F169F0609F448C0F8012E
:105270004481F0901D018F2D411180E0F82FF170D5
:10528000FF2EF801E58086819B85992309F40CC1E6
:10529000FF2009F409C16090E8037090E903E11070
:1052A00012C0A10101C0440F8A94EAF7842B8683BF
:1052B00080911703909118038615970520F470923A
:1052C000180360921703C10102C0880F991F2A9525
:1052D000E2F70197F80126812817190681F48091D9
:1052E000BD039091BE03009709F460C00E9453056E
:1052F0006816790608F05AC021E0F80124835F2877
:10530000FFEFAF1ABF0A095F1F4F28E0A216B104D2
:1053100009F08ECF8B85882309F421C1552009F42B
:105320001EC10E946E059093BE038093BD038091C1
:105330001A03883010F591E0980F90931A0398E0C3
:10534000FE013996DE01119601900D929A95E1F7D2
:105350003CE0839FC0011124855E9C4F28E0FE0144
:105360003196DC0101900D922A95E1F72FEF3FEF86
:10537000FC0131872087D386C28669960FB6F894E0
:10538000DEBF0FBECDBFDF91CF911F910F91FF9078
:10539000EF90DF90CF90BF90AF909F908F907F90D5
:1053A0006F905F904F903F902F9008958091BB0336
:1053B0005091BC03982FF0E0E0E0851314C0909367
:1053C000BB03E017F10709F49ACF90E0FC01EE0F60
:1053D000FF1FED54FC4FB182A08201968370992784
:1053E0008093BC038CCF682E712CF301EE0FFF1F4E
:1053F000ED54FC4F2081318147E0429FD001439F13
:10540000B00D1124A558BC4F6D917C911197798FE7
:10541000688F40E020E030E0E32FF0E0EE0FFF1F68
:10542000688D798DE60FF71F80809180811491043B
:10543000E1F0F8010190F081E02DFF8BEE8B20E090
:1054400005C08616970609F44F2D2F5FE22FF0E076
:10545000EE0FFF1F6E897F89E60FF71F6081718154
:105460006115710571F73F5FD7CF4423D1F0F80183
:10547000231708F0FD0121E024830E171F0721F4F4
:105480009093BB03F42E3BCF981305C0AE17BF0714
:1054900011F49F5F937093012F5F3F4F822F8370B2
:1054A0008CCFF0E0E0E0F7CF90E0E1101FC0B10159
:1054B00002C0660F771F2A95E2F79B012150310940
:1054C0008217930731F4442309F447C0C5010E94B1
:1054D0002E06C10101C0880F8A94EAF7982F909593
:1054E000F801868189238683FE2C09CF9C01082C34
:1054F00002C0359527950A94E2F7A9014170552716
:10550000BC016150710986239723892B11F5452B26
:1055100001F1F80182819381892BC1F01B821C82E9
:105520001D821E8249824A820E946E058160582F28
:105530009D838C83F801828193818F839887298151
:105540003A814B816D817E810E94F026F80115829F
:10555000C0CFF22FF170EF2EBCCFEF2CBACF9091CD
:10556000BB038091BC03981731F00E94C5275520DA
:1055700009F433CE02CF0E9467271092BE03109227
:10558000BD030E945C06F3CF82E00E94131207CE97
:10559000CF93DF9300D000D00F92CDB7DEB79093BA
:1055A000ED028093EC02811520E2920748F40F90FF
:1055B0000F900F900F900F90DF91CF910C94EA17FE
:1055C0008EEF89838A831B820E946E058160782F0B
:1055D0009D838C8349815A816B818D810F900F90BF
:1055E0000F900F900F90DF91CF910C946F280F9335
:1055F0001F93CF93DF938C01EB0167E072E08C2F58
:105600000E94620E892BA1F48091F0039091F10326
:105610000E94E20CDD27C150DE4F8881F801108224
:105620001882833009F148F4813059F0823081F0DA
:10563000DF91CF911F910F9108958430D1F0853083
:10564000B9F78091070290910802009789F306C08C
:105650008091090290910A02009799F3DF91CF910E
:105660001F910F910C94C82A80910B0290910C020B
:10567000F3CF80910D0290910E02009779F720915F
:105680000702309108028091090290910A022115C7
:105690003105D9F2009711F7C901E0CFCF93DF931D
:1056A00000D000D00F92CDB7DEB79093ED0280937B
:1056B000EC02811520E2920748F40F900F900F90B2
:1056C0000F900F90DF91CF910C94C5198EEF8983C5
:1056D0008A8381E08B830E946E058160782F9D8391
:1056E0008C8349815A816B818D810F900F900F902F
:1056F0000F900F90DF91CF910C946F28CF93DF9391
:10570000EC010E944E2B8091F0039091F1030E94D6
:10571000E20CCE01DF91CF910C94C82A0F931F9316
:10572000CF93DF938C01862F67E072E00E94620EB8
:10573000892BC9F4C0910702D0910802209799F0F3
:10574000F8018081833069F4CE010E947E2BCE0166
:105750000E947E2BCE01DF91CF911F910F910C946F
:105760007E2B8430B8F7DF91CF911F910F91089570
:105770000F931F93CF93DF938C01EB0167E072E0EF
:105780008C2F0E94620E892B09F064C0FE01FF2756
:10579000D8018C91E150FE4F8130D9F419969C913B
:1057A0001997992311F080830CC01A969C91992324
:1057B000D1F382E080838091090290910A020097E0
:1057C000D9F48091070290910802009709F442C031
:1057D00013C08230E9F519968C91199781112DC06B
:1057E0001A968C9181110EC083E0808380910B0208
:1057F00090910C02009719F1DF91CF911F910F91B9
:105800000C944E2B84E0808380910D0290910E02C7
:10581000009791F780910702909108020097F9F0A4
:105820000E947E2B8091090290910A02009721F735
:105830008091070290910802DFCF85E080838091FC
:10584000070290910802009729F00E947E2BF0CF6A
:1058500086E08083DF91CF911F910F910895809111
:10586000090290910A02B1CF1F920F920FB60F92C8
:1058700011242F933F934F935F936F937F938F9355
:105880009F93AF93BF93CF93DF93EF93FF93D09109
:10589000E900DF708091EC00C82FC17080FDC0E886
:1058A0001092E9008091F000877F8093F000789457
:1058B0000E9474121092E9008091F0008860809339
:1058C000F000CD2BCF70C093E900FF91EF91DF91F5
:1058D000CF91BF91AF919F918F917F916F915F9188
:1058E0004F913F912F910F900FBE0F901F901895E1
:1058F0001F920F920FB60F9211242F933F934F9345
:105900005F936F937F938F939F93AF93BF93EF9327
:10591000FF938091E10082FF15C08091E20082FF39
:1059200011C08091E1008B7F8093E1002091BB0446
:105930002F5F822F62E30E94F434992309F4C0C0E0
:105940002093BB048091DA0080FF28C08091D800AA
:1059500080FF24C08091DA008E7F8093DA008091EE
:10596000D90080FFE3C080E189BD82E189BD09B42F
:1059700000FEFDCF81E08093C90485EC94E00E9495
:1059800023038091BC04811109C00E94C5030E94B9
:1059900090048091E20084608093E2008091E100B5
:1059A00080FF1BC08091E20080FF17C08091E20061
:1059B0008E7F8093E2008091E20080618093E2001C
:1059C0008091D80080628093D80019BC85E08093D4
:1059D000C9048DEC94E00E9423038091E10084FFD0
:1059E0002FC08091E20084FF2BC080E189BD82E15D
:1059F00089BD89B5982F917080FFFBCF8091D80029
:105A00008F7D8093D8008091E1008F7E8093E100AC
:105A10008091E2008F7E8093E2008091E2008160BD
:105A20008093E2008091CA04882309F489C084E04D
:105A30008093C90481ED94E00E9423038091C904FE
:105A40008091E10083FF2BC08091E20083FF27C09B
:105A50008091E100877F8093E10082E08093C90418
:105A60001092CA048091E1008E7F8093E1008091C2
:105A7000E2008E7F8093E2008091E200806180935B
:105A8000E20042E060E080E00E945E048091F0006D
:105A900088608093F00085ED94E00E942303FF91DD
:105AA000EF91BF91AF919F918F917F916F915F9196
:105AB0004F913F912F910F900FBE0F901F9018950F
:105AC0001092BB048091BA04882309F43BCF8091E3
:105AD000C9048430C1F49091E9009F702091EC00DA
