:100000000C94DE020C9416030C9416030C94160345
:100010000C9416030C9416030C9416030C941603FC
:100020000C9416030C9416030C94222B0C94DE2AC9
:100030000C94752C0C9416030C9416030C94160354
:100040000C9416030C9416030C9416030C941603CC
:100050000C9416030C94512C0C9416030C94160358
:100060000C9416030C9416030C9416030C941603AC
:100070000C9416030C9416030C9416030C9416039C
:100080000C9416030C9416030C9416030C9416038C
:100090000C9416030C9416030C9416030C9416037C
:1000A0000C9416030C9416030C9416030631FF09E6
:1000B00074A1010975150026FF00952075088102BD
:1000C0000976150026FF00952075089102C00501EC
:1000D0000902A10185020901A100050919012905EB
:1000E00015002501950575018102950175038101B2
:1000F0000501093009311581257F950275088106B2
:1001000009381581257F950175088106050C0A3887
:10011000021581257F950175088106C0C00501097A
:1001200080A101850319012AB700150126B70095A2
:100130000175108100C0050C0901A1018504190198
:100140002AA002150126A002950175108100C006A3
:1001500060FF0961A1010962150026FF0095207565
:100160000881020963150026FF0095207508910299
:10017000C005010906A101050719E029E7150025B9
:10018000019508750181029501750881010507191E
:100190000029FF150026FF00950675088100050857
:1001A00019012905950575019102950175039101C4
:1001B000C00A00253464005B735D000A00253038F6
:1001C00062003A200025303258000A722F63203036
:1001D000313233343536370A00FD377A585A000049
:1001E00004E6D6B4460200210116000000742FE593
:1001F000A3E000EC00B25D003D8889C65436C31709
:100200004FE4F3759B85931F9162B16266F4D45DF0
:100210005D3F2CBBEAFAA219371A20B3B99DF82D1D
:10022000EF93C9550355AEF456C9A73AF478DEE703
:100230005DD21875C809D6AE7E5F0A6449BAF7C3A5
:1002400077A4E2FFD0EF43DAAB16F0B0DA52226FB8
:100250002F17A5012D1C0FA9D1468014A532891E88
:10026000C787AF4183C9714F4968015B25617D8FA5
:10027000D08A4EEBB80CF1784B5D27F3CBB97FBD3C
:10028000B3F669122B693F0FE33878F118A91F877D
:100290000166FC4ED389C2C019E08169DEBCDFF87B
:1002A000E393D43FFCF00D0142000000007EDDF43A
:1002B000C2F679199D0001CE01ED0100007B7100AD
:1002C000F0B1C467FB020000000004595A290A007B
:1002D0002575002F002575005D280025640020008D
:1002E000256400200025640020002564007C002592
:1002F000303258006D6F7573656B6579205B627481
:100300006E7C782079207620685D287265702F6178
:10031000636C293A205B002800010001008D04D4A1
:100320000D060E0000020002008904D40D060E0026
:1003300000030001008E04D40D060E00000400022C
:10034000007304D40D060E0807050001008F04D4C5
:100350000D060E0000060002007504D40D060E0006
:1003600000070002008B04D40D060E0000080001F7
:10037000009004D40D060E0000090002007704D49A
:100380000D060EE3060A0002007904D40D060EE302
:10039000060B0002007B04D40D060EE3060C0002DF
:1003A000007D04D40D060EE3060D0002007F04D488
:1003B0000D060EE3060E0002008104D40D060EE3C6
:1003C000060F0002008304D40D060EE3061000029F
:1003D000008504D40D060EE306110002008704D444
:1003E0000D060EE306120002009104D40D060E0065
:1003F00000130002009304D40D060E000014000147
:10040000009504D40D060E000015000000000069E0
:10041000067F1500005B435D005B445D005B535D40
:10042000005B575D005B525D0009027B0004010028
:10043000A0FA0904000001030101000921110100D3
:1004400001224000070581030800010904010002A0
:10045000030000000921110100012222000705828A
:100460000320000107050303200001090402000125
:100470000300000009211101000122810007058409
:1004800003200001090403000203000000092111F8
:100490000100012222000705850320000107050550
:1004A00003200001120100020000000869637C6B58
:1004B0000100010203011C037600690061006C0069
:1004C0003A006600360034006300320062003300F8
:1004D00063000000200369007300300054006F00C7
:1004E00070007200650020002800330032007500A3
:1004F00034002900000010034300690070007500FB
:100500006C006F0074000000040309040000000088
:1005100000000000000000000000000000000000DB
:1005200000000000000000000000000000000000CB
:100530007E0F00D4FFFFFFC700000078000000001E
:10054000000000002A2B280000000000000000002E
:100550000000000000000029000000002C1E3420D4
:10056000212224342627252E362D3738271E1F20FA
:100570002122232425263333362E37381F0405063F
:100580000708090A0B0C0D0E0F1011121314151683
:100590001718191A1B1C1D2F3130232D3504050681
:1005A0000708090A0B0C0D0E0F1011121314151663
:1005B0001718191A1B1C1D2F3130354C11241FBE62
:1005C000CFEFDAE0DEBFCDBF04B603FE18C08091E6
:1005D000970490919804A0919904B0919A0487305F
:1005E000904BA740B04B59F4109297041092980486
:1005F0001092990410929A04E0E0F8E3099511E052
:10060000A0E0B1E0EAE6F9E602C005900D92AA3654
:10061000B107D9F724E0AAE6B1E001C01D92A739DD
:10062000B207E1F70E949C2C0C9488340C940000D3
:10063000FF93EF93E0916A01F0916B01309709F01D
:100640000995EF91FF910895FC018591803011F09B
:10065000EFDFFBCF0895FF27E0E230E247FF0CC059
:10066000419597FF09C0EDE2609570958095909552
:10067000611D711D811D911D27FF02C0219530E371
:1006800050E2AA27660F771F881F991FAA1FA41779
:1006900010F0A41B63955A95A9F7AA3008F0A95F3A
:1006A000A05DAF93F395611571058105910541F743
:1006B000ED3211F4EF93F395F21718F43F93F3959D
:1006C000FBCF8F91B5DFFA95E1F70895E991F991A4
:1006D0008591803021F0853219F0AADFF9CF089595
:1006E00020E0E89455915532C1F3503311F46894E9
:1006F00055915A3348F4505390F3220F022E220F93
:10070000220F200D250FF4CF0EF421958991999198
:10071000533619F3533729F1533559F1BC01882762
:100720009927E8945C3621F48991999168945591C0
:10073000543639F446EF7EF077FF0DC08FEF9FEF10
:100740000AC055374AE039F0583540E121F05236B9
:1007500042E009F00895FF93EF937DDFEF91FF9161
:10076000B7CFFF93EF93FC0181918030B9F360DF45
:10077000FBCFFF93EF9368DFF1CFDF93CF93CDB73C
:10078000DEB72596A3DFCF91DF910895E8EDF0E085
:1007900080818E7F80831092E2001092DA001092A6
:1007A000E100A0EEB0E08C9181608C9380818F7726
:1007B000808319BCA7EDB0E08C918E7F8C938081F3
:1007C0008F7E808310925A0408952091E400309126
:1007D000E50095E6A9012091EC00822F817020FFB1
:1007E00006C08091E80080FF06C080E00895209157
:1007F000E80022FD1AC080916704882389F08530C3
:1008000089F08091EB0085FD0FC02091E4003091CC
:10081000E50042175307F9F29150E1F684E008959C
:1008200082E0089583E0089581E00895EF92FF92B9
:100830000F931F93CF937C018B010E94E503C82F78
:10084000811117C08091E80085FD0BC08091E80000
:100850008E778093E8000E94E503882399F3C82FE0
:1008600008C0F70181917F018093F10001501109C7
:1008700049F78C2FCF911F910F91FF90EF90089522
:100880008091690487FF13C08091E80082FF06C051
:100890008091E8008B778093E80004C08091670422
:1008A0008111F2CF0895809167048823D9F3809154
:1008B000E80080FFF8CF8091E8008E77ECCF982F8A
:1008C0009093E900242F762F50E0891731F0709132
:1008D000EC002091ED005091F00021FD07C09F5FDA
:1008E000973071F78093E90081E008953091EB0033
:1008F0003E7F3093EB003091ED003D7F3093ED0073
:100900003091EB0031603093EB007093EC0020935A
:10091000ED005093F0002091EE0027FDE0CF80E045
:100920000895B0E0A0E0E7E9F4E00C94DB33C8ED13
:10093000D0E088818F7E8883E7EDF0E08081816060
:10094000808384E082BF81E080935A0488818E7F17
:10095000888302EE10E0F80110821092DA0081EE36
:10096000C82ED12CF601108288818F7788838881E8
:100970008068888388818F7D888319BC1092670482
:1009800010926804109266041092650490EEE92EAD
:10099000F12CF70180818B7F80838881816088833F
:1009A00042E060E080E00E945F04F60180818E7F7B
:1009B0008083F8018081816080838081886080836A
:1009C000F70180818E7F8083888180618883CDB7A5
:1009D000DEB7E8E00C94F733FC0180916F0490914E
:1009E000700486179707A0F06115710529F490919E
:1009F000E8009E779093E80090E06115710551F44E
:100A0000911108C08091E80082FF34C080E0089511
:100A1000BC01F2CF809167048823C1F18530C1F118
:100A20008091E80083FD30C08091E80082FDEACF2C
:100A30008091E80080FFE1CF8091F3002091F200E7
:100A4000382F6115710519F02830310558F091E003
:100A50002830310509F090E02091E8002E772093AE
:100A6000E800CBCF81918093F100615071092F5F35
:100A70003F4FE7CF80916704882341F0853041F0F4
:100A80008091E80083FFBECF81E0089582E0089561
:100A900083E00895089580915C0408959C014FB708
:100AA000F8948091500490915104A0915204B09117
:100AB00053044FBF821B930B08952FB7F894609196
:100AC00050047091510480915204909153042FBFAF
:100AD00008952FB7F8948091500490915104A091FB
:100AE0005204B09153042FBF089520914D043091CA
:100AF0004E042817390771F090934E0480934D04EB
:100B0000E0914B04F0914C04309721F00084F18582
:100B1000E02D099508952091490430914A04281741
:100B2000390771F090934A0480934904E0914B0493
:100B3000F0914C04309721F00680F781E02D099563
:100B40000895E0914B04F0914C04309729F0019006
:100B5000F081E02D0995089580E00895CF93DF930B
:100B6000EC014091390450913A0460913B0470913A
:100B70003C042FB7F8948091500490915104A091B7
:100B80005204B09153042FBF841B950BA60BB70BD7
:100B9000843F9140A105B10518F5809139049091E9
:100BA0003A04A0913B04B0913C04809335049093A7
:100BB0003604A0933704B093380484EF91E0A0E0AA
:100BC000B0E08093310490933204A0933304B09347
:100BD0003404D0934104C0934004DF91CF91089531
:100BE0000E945D056093350470933604809337044A
:100BF0009093380482E390E0A0E0B0E0E2CFFC0103
:100C00008481862351F492819923B9F069238085E8
:100C100083FF05C081E061110FC080E00895892F36
:100C20008F7092959F70982B862F8F7062956F7042
:100C3000682B81E09613F1CF089581E0FDCF452B1D
:100C400039F0682381E06F3F09F080E081700895FA
:100C500081E0FCCFDC0160912D0480912E04962F61
:100C6000891301C00895292F30E0F901EE0FFF1F0D
:100C7000EB5DFB4F408151814A175B07A1F487E090
:100C80008A9FA0018B9F500D112443515C4F81E03E
:100C9000FA0184839613E6CF2F5F3F4F23703327EB
:100CA00020932D0408952F5F3F4F922F9370D8CF3C
:100CB00010928A0310928903EDEEF3E08581811191
:100CC00002C014821682379684E0E532F807B1F745
:100CD0000895B0E0A0E0EFE6F6E00C94D9338FEF92
:100CE0009FEF4430510508F469C04091620341FB15
:100CF000882780F990E0880F991F42FB002700F9B0
:100D000010E0000F111F000F111F802B912B40FBD3
:100D1000CC24C0F8D12C8C299D2943FB222720F913
:100D2000C22FE0E0DE2F53E0CC0FDD1F5A95E1F734
:100D30008C2B9D2B44FBAA27A0F9B0E0E4E0AA0F7E
:100D4000BB1FEA95E1F78A2B9B2B45FBEE27E0F9C9
:100D5000F0E0A5E0EE0FFF1FAA95E1F78E2B9F2B89
:100D600046FB222720F930E0B6E0220F331FBA9568
:100D7000E1F7822B932B47FB222720F930E03695B1
:100D8000322F222737952795822B932B20916303AF
:100D9000322F3170F32EE82EF92A26952170B22ECB
:100DA000BB0CA82EBF28C501BB0CAA0BBB0BFB01BB
:100DB00080839183A283B38390E080E0CDB7DEB7D8
:100DC000EAE00C94F533E3E7F4E0848195812AE0CE
:100DD00030E0B9010E949C336093170186818093B3
:100DE0001601828580931501848580931401868580
:100DF0009785B9010E949C33609313018089809389
:100E000012018289809311018489809310010895D1
:100E10008091730490917404909319018093180148
:100E20000895E3E1F2E090E080E063E47AE24AE6EC
:100E30005AE228EB39E2778366835187408733870C
:100E400022879587848701963E968830910599F789
:100E5000089581152CE5920741F420910E013091FF
:100E60000F01232B11F490E080E008959091FD0193
:100E7000803F59F48091FE0187FF0DC01092FE0162
:100E800091110BC01092F50108C0813F81F480914F
:100E9000FE0118169CF3992381F08091FF01909137
:100EA0000002892B09F064C01092F3010895823F7B
:100EB00049F497FFF0CF1092FD018091FE0181115E
:100EC000ECCFE0CF833F19F41916ACF3E4CF2091B7
:100ED000FF01893F29F41216F4F61092FF01DBCFCF
:100EE0008A3F19F427FFD7CFF8CF209100028B3F1C
:100EF00029F427FFD0CF10920002CDCF8C3F19F4F8
:100F00001216CCF3C8CF843F31F48091FC018E7F60
:100F10008093FC01C0CF853F21F48091FC018D7F3F
:100F2000F7CF863F21F48091FC018B7FF1CF873F83
:100F300021F48091FC01877FEBCF883F21F48091E1
:100F4000FC018F7EE5CF8D3F31F48091F4018E7FDF
:100F50008093F401A0CF8E3F21F48091F4018D7F26
:100F6000F7CF8F3F09F097CF8091F4018B7FF0CFBF
:100F700008958091F40180FF0CC06091110170E030
:100F800075956795759567956115710549F1862F7A
:100F9000089581FF06C06091110170E07595679515
:100FA000F3CF6091110182FD0BC09091F301992361
:100FB000A1F06091100180911101961738F0682F0F
:100FC00070E06038710500F38FE70895899FC001D4
:100FD000112470E00E94B033F4CF61E070E0D7CF0D
:100FE00081E008958091F40160917B0470917C040C
:100FF00080FF16C020911501269FC001279F900DEC
:101000001124BC01769567957695679560387105D2
:1010100008F043C06115710509F441C0862F089599
:1010200081FF0BC020911501269FC001279F900DC5
:101030001124BC0176956795E9CF82FF09C08091A4
:1010400015019B01829FB001839F700D1124DECF9B
:101050002091F5012223D1F2909114018091150184
:10106000482F50E0291748F0CB01849FB001859F9D
:10107000700D949F700D1124C9CF289F90011124E9
:10108000269FA001279F500D369F500D1124692FD8
:1010900070E0CA010E949C33B9CF8FE7089581E0C8
:1010A0000895803F31F40E94F20781958093FE01FC
:1010B0000895813F19F40E94F207F8CF823F31F47E
:1010C0000E94F20781958093FD010895833F19F4F2
:1010D0000E94F207F8CF893F29F40E94B907809354
:1010E000FF0108958A3F21F40E94B9078195F7CF47
:1010F0008B3F31F40E94B9078195809300020895D7
:101100008C3F19F40E94B907F8CF843F31F48091E5
:10111000FC0181608093FC010895853F21F480915A
:10112000FC018260F7CF863F21F48091FC0184604E
:10113000F1CF873F21F48091FC018860EBCF883F9D
:1011400021F48091FC018061E5CF8D3F31F48091E5
:10115000F40181608093F40108958E3F21F4809121
:10116000F4018260F7CF8F3FB9F78091F40184607A
:10117000F1CF9091620392FF06C0282F287128308A
:10118000F9F4877F846093FF06C0282F28712831E7
:10119000F1F4877E84612091630320FF06C0382F1D
:1011A00038713830D9F4877F816021FF06C0282F3D
:1011B00028712831D1F4877E816194FD877E08955E
:1011C000282F24712430F9F68B7F8860DCCF282FFC
:1011D0002471243101F78B7E8861DDCF382F317186
:1011E000313019F78E7F8860E0CF282F21712131AF
:1011F00021F78E7E8861E1CFCF93DF93EC018238B7
:101200009105B1F108F040C08133910509F49DC00A
:1012100048F58932910509F48DC08A9709F49CC07C
:10122000C11521E5D20708F0C3C0C11530E5D307C9
:1012300008F01EC1C83ED10508F0A3C0C03ED105CC
:1012400088F5C83AD10508F08EC0C53AD10508F036
:1012500007C1C130D10531F1209721F1C430D1054A
:1012600008F545C08533910509F45FC0C997C1F6FB
:1012700080916203837009F043C18091630383FF0F
:1012800011C0C9E2D0E00EC0833E910599F170F41F
:10129000803E910501F1823E910511F68091620335
:1012A00082FD21C0CE01DF91CF910895863E910548
:1012B00061F1873E910571F1843E910509F0B0CF4F
:1012C0008091630381FFEECF80916203C7EED0E08F
:1012D00084FD0DC0E7CF8091620380FD33C0909103
:1012E000630390FFDFCFC3EED0E084FFDBCFD0E01D
:1012F000C0E0D8CF8091620382FDFFC0909163036C
:1013000090FDFEC084FFCECFF2CF8091620383FDBB
:10131000DDCFC8CF8091620383FDF5C09091630358
:1013200091FFF0CFC4EED0E0BDCF8091620385FF86
:10133000B9CFA7CF8091620385FDE8C08091630398
:1013400083FFB0CFC9E3D0E0ADCF8091620386FFC9
:10135000A9CFCAE2D0E0A6CF8091620386FFA2CFD8
:10136000C1E3D0E09FCFCF3BD10508F6C85AD0E00B
:10137000CC0FDD1FC85DDE4F0990D881C02DD4642D
:1013800091CFC11540E2D40758F4C11581E0D807C8
:1013900008F088CFC03FD10508F4A9CFD06582CF2F
:1013A000C11520E4D20708F4A2CFDF70D06A7ACF4B
:1013B000C11535E5D30718F5C11544E5D40708F084
:1013C00084C0C11583E5D80708F06BC0C11522E5BC
:1013D000D20708F461C0CE018370992721E030E084
:1013E00002C0220F331F8A95E2F7C695C69580E2A8
:1013F000C89FE0011124C22BD32BDC6853CFC11549
:1014000039E5D307A8F4C11548E5D40708F062C050
:10141000C11586E5D80708F06ACF8C2F0E94B9085D
:10142000C82FD0E0DC2FCC27CC27DF71D0623ACF99
:10143000C1152AE5D20708F452C0CE019056811595
:10144000904208F054CF8D2F8F710E94B90890E020
:10145000982F882788279F719C012C2BE901E6CFC4
:10146000C55AD0E0CB5DDE4FC881D0E0D0641ACF42
:10147000CE018370992721E030E002C0220F331F94
:101480008A95E2F7C695C69540E2C49FE001112413
:10149000C22BD32BDD6806CFDC2FCC27C16FD06ADF
:1014A00001CFCE018370992721E030E002C0220FE6
:1014B000331F8A95E2F7C695C69540E2C49FE001C6
:1014C0001124C22BD32BDA68EDCEDC2FCC27C46FCE
:1014D000D06AE8CEDC2FCC27C06FD06AE3CE8C2F49
:1014E0008F700E94B90834E0D695C7953A95E1F718
:1014F000CF709C2FEC01D069D5CEC2EED0E0D2CE19
:10150000C0EED0E0CFCEC6EED0E0CCCEC5E3D0E08A
:10151000C9CE8091D401882331F01092D401109269
:10152000D3011092D2010895CF93C82F8091630305
:1015300082FF0CC08091D4018C1741F00E94690594
:101540009093D3018093D201C093D401CF91089599
:1015500080959091720498239093720408958095D9
:101560009091640398239093640308959091640389
:10157000892B8093640308951092C9011092C801C9
:101580001092C70108958091750490917604892B7B
:1015900089F00E9469052091D2013091D301AC01FC
:1015A000421B530B81E02091750430917604421761
:1015B000530708F480E081700895EEE6F1E0919120
:1015C000891303C0DF0111971C9291E0E437F907FA
:1015D000B1F70895AEE6B1E0EFEF90E02D918217FC
:1015E00051F0EF3F19F4211101C0E92F9F5F9630B0
:1015F000A9F7EF3F09F408950E2E000CFF0BE459F4
:10160000FE4F828308952091C60190918501291390
:1016100002C080E0089530E0F90153E0EE0FFF1FB3
:101620005A95E1F7EA57FE4F5181561306C0508193
:10163000581303C05281541304C02F5F3F4F2770CB
:10164000E6CF81E008958091C601909185019813BD
:1016500001C008958F5F8770FACF892BB1F4809114
:101660007B01482F417050E0440F551F80917A0153
:101670008170842B90917C01292F217030E0220F02
:10168000331F220F331F822B089580E00895892B8A
:10169000B1F4EAE7F1E090E080E070E02191DF0151
:1016A0001197AB01082E02C0569547950A94E2F7B0
:1016B00040FB20F92C9301968330910579F708952A
:1016C00092959F70963091F058F4925F9F7092308F
:1016D00058F4803F19F030F4883E30F481E00895EA
:1016E0009A5FF4CF843FD1F380E00895883EB0F351
:1016F000813FD1F7F3CF829590E09C01220F331FF9
:10170000220F331F2C7C959587959595879583732C
:10171000282B30E0C901880F991F8A7A35952795C3
:101720002575822B08959C013A9521153F4150F56E
:10173000FC01EE27F170BC0166277270AC014427F2
:1017400054709C012227387094FF0EC080E1EF2B6B
:1017500009F480E0672B09F08062452B09F0806472
:10176000232B89F08068089581E0EF2B09F480E055
:10177000672B09F08260452B09F08460232B19F058
:101780008860089580E008959FB7F89410925804F7
:101790009FBF90916704943009F048C02091E90000
:1017A0002F703091EC00932F917030FD90E8922BC8
:1017B00025E02093E9002091EB0020FF34C0209128
:1017C000EE0027FF30C020915704222321F0209102
:1017D000E80025FF28C01092570426E03091E80069
:1017E00035FF14C08093F1008091E80085FD27C08B
:1017F0008091E80080FFFCCF8091E8008E77809395
:10180000E8009F709093E90080E0089530916704AC
:10181000343049F43091EB0035FD05C0215041F4DE
:1018200081E0809357049F709093E9008FEF0895B3
:10183000EFE9FFE03197F1F700C00000CFCF8FB79D
:10184000F89421E0209358048FBFDBCF8093540499
:101850007093560460935504809167048430F9F4C2
:101860008093E9008FEF9091E800815095FD06C0CC
:1018700095ED9A95F1F700008111F5CF8091E80080
:1018800085FF0DC050E040E063E070E084E594E047
:101890000E9416048091E8008E778093E8000895F6
:1018A000BC0184E00E94260C0895BC0183E00E94E4
:1018B000260C08959C0184E08093E9009FEF8091BD
:1018C000E800915085FD06C085ED8A95F1F700008E
:1018D0009111F5CF8091E80085FF0CC050E040E009
:1018E00066E070E0C9010E9416048091E8008E77DE
:1018F0008093E8000895CF93DF93EC0181E080931B
:10190000E9008FEF9091E800815095FD06C095EDBC
:101910009A95F1F700008111F5CF8091E80085FFDD
:1019200014C050E040E068E070E0CE010E94160470
:101930008091E8008E778093E80088E0FE01ADE5B5
:10194000B4E001900D928A95E1F7DF91CF9108956F
:1019500081E08093E00080E28093D8001092C9007B
:101960008FE19EE40197F1F700C0000087E090EB63
:10197000DC018093970490939804A0939904B0930A
:101980009A0488E19CE00FB6F894A89580936000D3
:101990000FBE90936000FFCF019708F40895EFE920
:1019A000FFE03197F1F700C00000F6CF0F931F93CF
:1019B000CF93DF9303E714E0C9E2D0E0CE010E94A9
:1019C0003E34F80181938F012196CD34D105B1F7D2
:1019D000C3E2D3E0FE0185919491009711F0FC01E0
:1019E00009952C96F4E0CF31DF07A1F7DF91CF9175
:1019F0001F910F910895CF93DF9320916003309151
:101A00006103232B41F4703F49F480915E03909170
:101A10005F03603FA9F090E080E012C0762B782B46
:101A2000D1F787E290E00E943E34C82FD0E0DC2F4F
:101A3000CC2788E290E00E943E349E01282BC90109
:101A4000DF91CF910895CF92DF92FF920F931F9372
:101A5000CF93DF936C01009171048091D501082B25
:101A6000C7E0D0E010E0FC2EC8010C2E02C0959516
:101A700087950A94E2F780FD0CC02197A0F7F12C1E
:101A80008F2DDF91CF911F910F91FF90DF90CF901D
:101A90000895B6018C2F0E94FB0C0E94FC08019750
:101AA00061F3EECFCF93DF93EC010E94230DBE01D3
:101AB0000E94FB0C0E94FC08DF91CF910895CF9308
:101AC000DF93EC014B815C81698188810E941F0654
:101AD000811110C08E819F81009739F00E94FC080F
:101AE0000E94600BDF91CF910895888199810E94B7
:101AF000520DF6CF80E0F6CFA5E0B0E0E2E8FDE0E1
:101B00000C94E03349835A8389819A81662399F042
:101B1000222389F00E94230D182F682F89819A8132
:101B20000E94470B69817A81812F0E94FB0C2596C8
:101B3000E3E00C94FC330E942D0B182FF3CFFC0133
:101B4000262F86819781009739F4408151816281E7
:101B5000738184810E947C0D089583E290E00E944D
:101B60003E348B3B89F484E290E00E943E34853D14
:101B700059F485E290E00E943E3491E0803509F00E
:101B800090E0892F8170089580E0FCCFCF9384E0AE
:101B900090E00E943E34C82F82E290E00E943E34E2
:101BA000982F8C2FCF910895DB01FC01329625915F
:101BB00034914217530758F0FC01349665917491A3
:101BC000A901CD010E941E3490E080E008958FEFBE
:101BD0009FEF08950F931F93CF93DF9303E714E0D4
:101BE000C9E2D0E0CE010E943E34F80161918F013C
:101BF000681719F0CE010E944C342196CD34D105DE
:101C000089F7DF91CF911F910F910895DA019C011F
:101C10002E5F3F4FF90145915491F901259134917F
:101C2000A217B30758F0FC013496859194910E9455
:101C30001E340E94EA0D90E080E008958FEF9FEF40
:101C40000895CF93DF93CDE3D1E060E0CE010E9411
:101C50004C342196C11584E0D807B9F7DF91CF91B4
:101C60000895CF93C82F6FEF81116BEB83E290E063
:101C70000E944C346FEFC11165ED84E290E00E9448
:101C80004C346FEFC11160E585E290E00E944C3466
:101C9000CF910895CF93C92F682F84E090E00E94E0
:101CA0004C346C2F82E290E00E944C34CF91089526
:101CB0009B01883070F49AE0899FB0011124635B26
:101CC0007F4F4AE050E0C9010E942E3490E080E04E
:101CD00008958FEF9FEF0895AAE0B0E0E2E7FEE0FD
:101CE0000C94E133BE016F5F7F4F0E94580E892B29
:101CF00031F489859A852A96E2E00C94FD3380912F
:101D00008B0490918C04F7CFAAE0B0E0EAE8FEE003
:101D10000C94D73306EE12E084EDC82E82E0D82E64
:101D20009DEEE92EF12C27E0922E33EDA32E32E02A
:101D3000B32E88248394D6010D931D936D014AE040
:101D400050E0B701CE0101960E942E34F80138967A
:101D5000DF01892D1D928A95E9F789819A81D80141
:101D600011969C938E938F8112968C9312978D81EE
:101D700013968C931397888514968C931497898562
:101D800015968C9315978B819C8117969C938E93B7
:101D9000169718961C9218978A8587FF3CC01E9646
:101DA0001C921E921D9780FF03C0D80118968C923A
:101DB00081FF04C0F80190859260908782FF07C080
:101DC000D80118969C911897946018969C9383FF5D
:101DD00004C0F80190859860908784FF07C0D801FF
:101DE00018969C911897906118969C9385FF04C053
:101DF000F801808580628087015F1F4FFAE0EF0E57
:101E0000F11C8DE3E81681E0F80609F094CF2A96DC
:101E1000ECE00C94F333F801B686A586C4CFAAE0B3
:101E2000B0E0E5E1FFE00C94DB33E3E8F2E080E5CD
:101E3000DF011D928A95E9F7EDEEF3E088E3DF011B
:101E40001D928A95E9F783E8C82E82E0D82E7F019B
:101E50000DE910E0F701D182C0824AE050E0B801FC
:101E6000CE0101960E942E3488E0FE013196D60103
:101E700001900D928A95E1F789859A85D70113968D
:101E80009C938E931297BAE0CB0ED11CE7E0EE0E36
:101E9000F11C065F1F4F0D3E1105E1F62A96E8E0A2
:101EA0000C94F7338091F60183FF7EC084EF92E0BB
:101EB0000E9424038091FC011F928F938FEE92E089
:101EC0009F938F930E94BD038DEE92E00E942403A6
:101ED0008091FD01282F082E000C330B3F938F9328
:101EE0008AEE92E09F938F930E94BD0388EE92E06A
:101EF0000E9424038091FE01282F082E000C330B32
:101F00003F938F9385EE92E09F938F930E94BD0342
:101F100083EE92E00E9424038091FF01282F082E77
:101F2000000C330B3F938F9380EE92E09F938F933F
:101F30000E94BD038EED92E00E9424038091000276
:101F4000282F082E000C330B3F938F938BED92E0DC
:101F50009F938F930E94BD0388ED92E00E9424031B
:101F60008091F5011F928F9385ED92E09F938F935F
:101F70000E94BD0383ED92E00E9424038091F4014E
:101F80001F928F9380ED92E09F938F930E94BD03E9
:101F90008DEC92E00E9424038DB79EB74C960FB64D
:101FA000F8949EBF0FBE8DBF0E9469059C01909161
:101FB000FD018091FE01982B21F03093FA012093CE
:101FC000F9019091FF0180910002982B21F030934C
:101FD000F8012093F701E0914B04F0914C04309705
:101FE00049F082E08093FB010480F581E02D8BEFC6
:101FF00091E009950895CF932F98F8946E9876986C
:102000002F9A86E880937A0080EA80937B00809103
:102010000101816080937C0080917A0080648093CC
:102020007A0080917A0086FDFCCF809178009091B3
:10203000790020917A002F7720937A0078946E9A15
:102040009093D7018093D6012091E10120FF0AC02F
:102050004091DD015091DE012E7F8417950750F0ED
:10206000C0E00BC04091DF015091E00148175907D3
:10207000B8F721602093E101C1E02091D8013091AF
:10208000D901A9014F5F5F4F2C32314019F15093B4
:10209000D9014093D801CC2391F181E08093DC01F8
:1020A0000E9469059093DB018093DA018091DA0147
:1020B0009091DB010E944E05059728F18091E10186
:1020C0009091F201981711F18093F20181E0109242
:1020D000DC011AC01092D9011092D8019F938F93FE
:1020E00083EB91E09F938F930E94BD0381EB91E07E
:1020F0000E9424030F900F900F900F90CCCF8091EF
:10210000DC018111D3CF80E0CF91089580E0DFCF53
:102110008091640390917204892B80936C0180916B
:10212000D401882309F18091750490917604892B5C
:1021300029F00E94C30A81110E94890A80916C01D2
:102140009091D401892B80936C0120E08EE691E080
:10215000FC013191CF0131112F5FF1E084379F07EE
:10216000B9F721110E94890A80913D0480959091D0
:102170006C01892390913E04892B80936C0148E087
:1021800050E06AEC71E08CE691E00E941134892BFA
:10219000A9F088E0ECE6F1E0AAECB1E001900D9244
:1021A0008A95E1F7E0914B04F0914C04309731F0BF
:1021B0000280F381E02D8CE691E009950895CF939C
:1021C000DF93EC01EA85FB85309719F06C857D85FE
:1021D00009958B810E94A80A8C810E94AF0A0E94F7
:1021E000881086E0FE0111928A95E9F7DF91CF9180
:1021F0000895CF93DF93EC018D8181FD15C082603E
:102200008D83809172049B81892B809372048C81D1
:102210000E94B60A0E948810E885F985309721F05F
:102220006C857D85CE010995109248041092470473
:102230008D8180FD03C0CE010E94DF10DF91CF9120
:10224000089580911A01877F80931A0182E00E948D
:10225000A80A80911A0184FF06C08F7E80931A011C
:1022600082E00E94B60A80911A0185FF06C08F7D28
:1022700080931A0180E20E94B60A0E948810089595
:1022800090E080E00E948B0590E080E00E94750560
:10229000109272040E94881086E0EBEFF1E0DF01FB
:1022A0001D928A95E9F71092F5011092F3011092B0
:1022B000F4010E94520F0895809371040E9440110E
:1022C000089580917104982F9670963021F488605B
:1022D0000E945C110895877FFBCF21E030E001C0B0
:1022E000220F8A95EAF720958091710482230E943B
:1022F0005C1108959091C901809589238093C9014B
:10230000282F277091F4282F082E000C330B9217DA
:10231000130659F09091630392FF07C08595859548
:1023200085950E946D110E94BC0A089590916303E7
:1023300092FB222720F9281769F080FB92F99093ED
:10234000630380916203909163030E944A0E82E0CE
:102350000E947A11089521E030E001C0220F8A9591
:10236000EAF780917104822B0E945C11089590918C
:10237000630392FF10C098E0899F90011124622BA3
:102380006093C9010E94AB110E9469059093C80136
:102390008093C70108950E94AB1108958093D501E1
:1023A0000E944011089510926403EEE6F1E086E089
:1023B000DF011D928A95E9F70E9440110895AAE273
:1023C000B0E0E5EEF1E10C94E03389E694E0209191
:1023D000F100DC012D93CD01B4E081379B07B9F703
:1023E00080916A04833009F472C0B8F4813009F432
:1023F00049C0823009F4B3C08091E80083FF9CC2D9
:102400008091690490916A049A3008F095C2E92F8E
:10241000F0E0E657FB4C0C94C4338A3009F48EC0CC
:102420008B3009F471C0893039F7809169048132A9
:1024300019F780916D0490916E04009711F0029746
:10244000D9F68091E800877F8093E8008091E800CA
:1024500082FF38C09091F3008091F200029731F42E
:102460008091F100813011F0863021F48091F100EB
:1024700080935C048091E8008B778093E8000E9451
:102480004004BACF80916904813A09F0B5CF8091B8
:10249000E800877F8093E80080916D0490916E043E
:1024A000892B61F468E08DE594E070E00E94EC0413
:1024B0008091E8008B778093E8009ECF60E090E009
:1024C00080E0F3CF809167048111C0CF95CF8091D8
:1024D0006904813A09F090CF80916D0490916E0467
:1024E000892B09F089CF8091E800877F8093E800ED
:1024F0008091E80080FFFCCF80911C018093F10067
:102500008091E8008E77B9CF80916904813209F01B
:1025100073CF80916D0490916E04892B09F06CCF7C
:102520008091E800877F8093E8000E9440048091BA
:102530006B0480931C010E94D3115ECF80916904CB
:10254000813209F059CF8091E800877F8093E800BD
:102550000E94400480916C0480935B044DCF809175
:102560006904813A09F048CF8091E800877F809321
:10257000E8008091E80080FFFCCF80915B04BECF33
:10258000803899F0823809F0D7C180916D048F703E
:10259000873008F0D1C18093E9008091EB0085FB82
:1025A000882780F91092E90006C080916504909117
:1025B0006604911182609091E800977F9093E80003
:1025C0008093F1001092F1008091E8008E77B0C105
:1025D000882309F49EC1823009F0AEC180916B045A
:1025E0008111A1C180916D048F702FEF280F2630CB
:1025F00008F0A2C18093E9002091EB0020FF93C175
:10260000933031F48091EB0080628093EB008BC1BA
:102610009091EB0090619093EB0021E030E001C0DD
:10262000220F8A95EAF72093EA001092EA0080913F
:10263000EB008860EACF81117FC110916B041F7796
:102640008091E3008078812B8093E3008091E80003
:10265000877F8093E8000E9440048091E80080FF1B
:10266000FCCF8091E30080688093E30082E0111149
:1026700083E08093670460C18058823008F05CC1B9
:1026800020916B0430916C042C3DE3E03E07A1F5F2
:1026900083E08A838AE289834FB7F894DE01139638
:1026A00020E03EE051E2E32FF0E050935700E49148
:1026B00020FF03C0E295EF703F5FEF708E2F90E038
:1026C000EA30C0F0C7968D939D932F5F243159F760
:1026D0004FBF8091E800877F8093E8006AE270E056
:1026E000CE0101960E94EC048091E8008B778093E4
:1026F000E80022C1C096E7CF80916D0490916E04EE
:10270000432F55274330510509F44AC078F541302D
:10271000510509F485C08BE790E0E9E2F4E042302E
:10272000510509F009C12091E800277F2093E800B6
:1027300020916F04309170048217930708F49C0174
:1027400040E02115310509F070C041116EC0809143
:10275000E80082FDC9CF80916704882329F2853083
:1027600019F28091E80083FFF2CFBECF41325105CC
:1027700009F447C04232510509F0DEC084309105AA
:1027800008F0DAC0FC01EE0FFF1FE65AFE4F019081
:10279000F081E02D8A5A9E4FDC018C9190E01DC0A3
:1027A000332721303105E9F02115310579F0223048
:1027B0003105F9F02330310509F0BEC0E6EBF4E055
:1027C000E4918E2F90E0E6EBF4E007C0E8E0F5E05E
:1027D000E4918E2F90E0E8E0F5E0009709F4ACC0BA
:1027E000A2CFE6EFF4E0E4918E2F90E0E6EFF4E084
:1027F000F4CFE4EDF4E0E4918E2F90E0E4EDF4E02A
:10280000ECCF8430910508F097C0880F991FFC0128
:10281000EE59FE4F0190F081E02D89E090E083CFEA
:1028200082E190E0E4EAF4E07ECF809167048823BF
:1028300009F45ACF853009F457CF8091E80083FD21
:1028400053CF8091E80082FD82CF8091E80080FF25
:1028500078CF9091F3008091F2002115310519F0A5
:102860008830910550F041E0089709F040E08091F0
:10287000E8008E778093E80064CF44914093F100A4
:102880003196215031090196E8CF803809F054C0C3
:102890008091E800877F8093E800809168048093AE
:1028A000F10092CE811148C010916B04123008F0F3
:1028B00043C08091E800877F8093E800109368040C
:1028C0000E944004112311F084E005C08091E300D0
:1028D00087FDFACF81E08093670442E061EC81E0FC
:1028E0000E945F0442E261EC84E00E945F0442E2E5
:1028F00061EC82E00E945F0442E260EC83E00E94AF
:102900005F0442E261EC85E00E945F04809167040D
:1029100013C080916B04813079F481E0933009F029
:1029200080E0809366041092E9008091E800877F40
:102930008093E8000E9440048091E80083FF0AC071
:102940008091E800877F8093E8008091EB008062AF
:102950008093EB00AA96E3E00C94FC33E3E7F4E009
:10296000128E138E8FEA90E09183808325E0248F6E
:1029700088E893E1938382838AE090E0958384835F
:1029800044E150E05783468368E070E071876087D8
:10299000938782874EE150E05587448797878687E3
:1029A00040E550E0518B408B738B628B68E270E0A6
:1029B000758B648B62E370E0778B668B68EC70E0FC
:1029C000718F608F158E978F868F51A340A322A39E
:1029D0000E94EA0D0E94D3111092630310926203C9
:1029E000E3E6F3E0808184608083809162039091CC
:1029F00063030E944A0E0E94D60C0895AEE1B0E037
:102A0000E4E0F5E10C94DB33C0900E01D0900F01AF
:102A100081E090E090930F0180930E01E7E1F3E0F5
:102A200005911491612F87E290E00E944C34602F51
:102A300088E290E00E944C340E94AE141A821982FF
:102A40001C821B821E821D8218861F8288EC90E0E9
:102A50009A8789870DE410E04AE050E0B801CE0182
:102A600001960E947034065F1F4F0D391105A1F7C2
:102A70007E018BE0E80EF11C8AE0F70111928A9545
:102A8000E9F74AE050E0B801C7010E947034065FE0
:102A90001F4F0D3E1105A9F77E01F5E1EF0EF11C68
:102AA0008AE0F70111928A95E9F78FEF9FEF9A8FED
:102AB000898F87E08E8F4AE050E0B801C7010E94FD
:102AC0007034065F1F4F0D33F1E01F07A1F7D0925E
:102AD0000F01C0920E016E96E8E00C94F73380E08F
:102AE0000E94310E60E086E290E00E944C340E9429
:102AF000FE140E94210E81E00E94310E0895CF92B3
:102B0000DF92EF92FF928FEF9FEF4430510508F470
:102B10006AC0FB01C080D180E280F3800E94D311A3
:102B200080916203C0FA80F9B701A6017695679596
:102B30005795479540FB81F9B701A60122E07695AC
:102B40006795579547952A95D1F740FB82F9B701CC
:102B5000A60133E076956795579547953A95D1F755
:102B600040FB83F9B701A601E4E076956795579598
:102B70004795EA95D1F740FB84F9B701A601F5E046
:102B80007695679557954795FA95D1F740FB85F966
:102B9000B701A601A6E07695679557954795AA9542
:102BA000D1F740FB86F9B701A601B7E076956795A6
:102BB00057954795BA95D1F740FB87F98093620303
:102BC00080916303D0FA80F9D1FACC24C0F8C0FA1E
:102BD00081F98093630380916203909163030E9463
:102BE0004A0E90E080E0FF90EF90DF90CF90089544
:102BF0000E94D3112FEF84E39CE02150804090404D
:102C0000E1F700C0000088E19CE00FB6F894A895B9
:102C1000809360000FBE90936000FFCF882321F067
:102C20000E94A80A0E9488100895882339F0909184
:102C30007204982B909372040E9488100895882340
:102C400021F00E94AF0A0E9488100895882321F085
:102C50000E94B60A0E9488100895882309F455C07E
:102C6000823879F40E94A10581FF4FC089E30E9458
:102C7000EA0A0E94881089E30E94DD0A0E948810F7
:102C80000895833859F40E94A10580FF3EC083E572
:102C90000E94EA0A0E94881083E5EECF843859F436
:102CA0000E94A10582FF31C087E40E94EA0A0E94C7
:102CB000881087E4E1CF9CEF980F913AE8F290E218
:102CC000980F983050F4877091E001C0990F8A9561
:102CD000EAF7892F0E94AF0AD1CF9BE5980F933076
:102CE00028F490E080E00E948B05089598E5980F05
:102CF000973128F490E080E00E9475050895803FA8
:102D000020F00E9436070E94520F0895FF920F9301
:102D10001F93CF93DF93F82E009142041091430448
:102D20000115110509F449C01092410410924004A4
:102D300010923D0410923E04D8011696CD91DC917C
:102D40009E013A9521153F4108F4D07ED1E0C11192
:102D500001C0D0E0D8011996ED91FC911A973097F7
:102D600031F01B966D917C9180E00995D823DD238D
:102D700039F08CEF8C0F813A30F58C2F0E94DD0AF0
:102D8000FF2099F0E0914204F0914304808584FD96
:102D90000CC080913F04882341F0808191819C0187
:102DA00021503109203B3D45A0F00E94881010922F
:102DB00043041092420410923F04C801CDB7DEB71D
:102DC000E5E00C94FA330E9488108C2F0E942D1697
:102DD000D7CF0E94AE05E9CFCF93DF93EC010E94DD
:102DE0002D16CE010E94930B9E01205E31092830E2
:102DF000310510F0CD2B29F40E941F16DF91CF91E1
:102E000008950E940E16FACFCF93C82F8823C9F0D9
:102E10008238C9F40E94A10581FD13C089E30E9494
:102E2000EA0A0E9488102FEF87EE93E0215080403D
:102E30009040E1F700C0000089E30E94DD0A0E9493
:102E40008810CF9108958338A1F40E94A10580FDD8
:102E5000F8CF83E50E94EA0A0E9488102FEF81EEE6
:102E600094E0215080409040E1F700C0000083E5ED
:102E7000E4CF8438A1F40E94A10582FDE2CF87E46B
:102E80000E94EA0A0E9488102FEF81EE94E0215000
:102E900080409040E1F700C0000087E4CECF8CEF87
:102EA0008C0F813A68F4EEE6F1E08191C817C1F128
:102EB00021E0E437F207C9F78C2F0E94EA0ABFCF5E
:102EC00080E28C0F883048F4C77081E001C0880F21
:102ED000CA95EAF70E94B60AB2CFEBE5EC0FE330F1
:102EE00040F4F0E0EB5DFE4F808190E00E948B05A6
:102EF000A8CFE8E5EC0FE73150F4F0E0EE0FFF1F4C
:102F0000E85DFE4F808191810E9475059ACFC03F98
:102F100008F497CF8C2F0E9451080E94520F91CF36
:102F20008C2F0E94DD0A0E948810C6CF1F93CF937A
:102F3000DF93182FC0919304D0919404893321F02A
:102F4000C0919104D0919204812F0E940417209780
:102F500039F4812F0E942D16DF91CF911F91089592
:102F60008FE99FE00197F1F700C000002197EFCFB4
:102F7000B0E0A0E0EEEBF7E10C94D933EC018AE08D
:102F8000A82E2881222309F48FC02130C9F5998108
:102F90008A81913021F422960E94961705C09230C2
:102FA00029F422960E9404172196EBCF933021F446
:102FB00022960E942D16F8CF943011F02196F4CF6E
:102FC000229630E020E0AE014F5F5F4F8053990BB7
:102FD0008A30910550F02150310930F38FE99FE09C
:102FE0000197F1F700C00000F6CFA29EB001A39EAA
:102FF000700D11249C01260F371F8981EA01E3CF50
:10300000E22FF0E0E45CFA4FB490822F869586952B
:10301000869590E0FC01E45DFA4FE4902770F12C76
:10302000022E02C0F594E7940A94E2F731E0E3221D
:10303000FF24FC01E45EFA4FC490D12C022E02C0A2
:10304000D594C7940A94E2F731E0C322DD24FC0151
:10305000E45FFA4F049110E002C0159507952A9598
:10306000E2F701701127E114F10419F081EE0E94DA
:103070000417C114D10419F086EE0E9404178B2D99
:103080000E949617C114D10419F086EE0E942D16E5
:10309000E114F10419F081EE0E942D1601151105BD
:1030A00009F482CF8CE278CFCDB7DEB7EAE00C949A
:1030B000F533B0E0A0E0EFE5F8E10C94DB336B0111
:1030C000C42FD22FFC0182818823A9F040934604AB
:1030D0000E9469059093450480934404C77081E081
:1030E00001C0880FCA95EAF70E942616CDB7DEB751
:1030F000E8E00C94F73310914604141337C0809124
:103100004404909145040E944E057C01C6010E9432
:103110006C0EE816F90650F5C0E2CD0F1D17C1F090
:1031200080E2810F883048F4177081E0012E01C0E1
:10313000880F0A94EAF70E941F16C83048F481E00D
:103140009D2F977001C0880F9A95EAF70E94261666
:10315000802F0E949617C83048F6D77081E001C0D2
:10316000880FDA95EAF70E941F16C0CFC77081E07A
:1031700001C0880FCA95EAF7F6CFCF93DF93EC0131
:103180000E94930B9E01205E31092830310510F01A
:10319000209741F40E9426168C2F0E940417DF917D
:1031A000CF9108950E941516F7CF662329F020913C
:1031B00072042260209372049C013056211540E273
:1031C000340720F0305E2115304108F499270E9421
:1031D000BD180895B0E0A0E0E0EFF8E10C94DC3316
:1031E0007C018B01D42E80911A0182FF8CC0C0918A
:1031F0008703D0918803CE15DF0521F0E114F10497
:1032000009F081C080911A018B7F80931A0181FDA2
:1032100073C08091850390918603A801481B590BC8
:1032200081E020911801309119014217530708F4E9
:1032300080E08170F82E80911A01F0FA81F9809374
:103240001A01FE0183E0F695E7958A95E1F7EE71A4
:10325000FF27EB59FC4F20813181AE014F7055277C
:1032600081E090E002C0880F991F4A95E2F7FF20A5
:1032700009F444C0822B932B918380838091640353
:1032800081FF08C080911A01806180931A0182E059
:103290000E94AF0A8091640385FF08C080911A01E3
:1032A000806280931A0180E20E94AF0A6F2DCE01E6
:1032B0000E94D518DD2031F080918E0485FF02C078
:1032C00086FF3BC080919104909192040E94CC0CA7
:1032D00080918703909188039C013056211540E22C
:1032E000340720F0305E2115304108F499270E9400
:1032F000EC160E9421111DC081E09BCF8095909516
:1033000082239323B9CFC7019927970130562115FE
:1033100040E2340728F0305E2115304108F0C70143
:103320000E94EC1680918703909188038E159F056B
:1033300001F31093860300938503CDB7DEB7E7E072
:103340000C94F83368EE7EEF90E080E00E946A34DF
:1033500060E082E090E00E944C3460E083E090E026
:103360000E944C341092D50160E084E090E00E940D
:103370004C3464E082E290E00E944C3460E085E0EE
:1033800090E00E944C3460E086E090E00E944C3473
:103390006FEF87E090E00E944C3440E050E0BA01CB
:1033A00088E090E00E945E3460E08DE090E00E9452
:1033B0004C3440E050E0BA0188E190E00E945E3475
:1033C00060E087E190E00E944C3440E050E0BA01B8
:1033D0008CE190E00E945E3470E060E080E290E07A
:1033E0000E946A3440E050E0BA0188E190E00E9417
:1033F0005E3480E00E94310E0E946F1540E050E084
:10340000BA018FE090E00E945E3440E050E0BA01E3
:1034100083E190E00E945E340895A7E0B0E0E3E12C
:10342000FAE10C94D1337C01DC0113964D915C914F
:10343000149711966C9111978C910E941F0681111F
:10344000EEC061E0C7010E949F0D8C01F7018281EF
:103450008823E1F080914704909148040097B1F0EF
:103460000817190799F0FEE08F9FC0011124FC0195
:10347000E85EFD4F2081246020838D5E9D4FDC013E
:103480000D931C930E94F91010927204F70182812F
:10349000882311F40C94CA22C80182519F45409799
:1034A00010F00C94BE228FEF93E00E943E34811105
:1034B000A6C07EEED72ED00E0DE311E0D11036C09F
:1034C00019821A821B821C8299249A9468012FEF18
:1034D000C21AD20AC8010E943E3489831A82882304
:1034E00009F48DC0813009F07FC0580132E0A30E8D
:1034F000B11CC6010E943E34C82E8A83882309F479
:103500007EC0C5010E943E34D82E8FEF8C0D8330D3
:10351000D8F4580143E0A40EB11CDB82DD2021F079
:10352000CE0101960E94B8178501D0CF0115F4E0B5
:103530001F0709F464C0C8010E943E34811101C014
:10354000DA940F5F1F4FBACF8BEF8C0D833030F5BD
:10355000C8010396DB825C01DD2031F3580154E0A1
:10356000A50EB11C0E943E348C838823E9F28B8126
:103570009C818130AFEF9A0710F0982F8827B6E032
:10358000CB1631F0E7E0CE1631F00E94322ACCCFD4
:103590000E940C2AC9CF0E949329C6CFF4E0CF1213
:1035A000C3CF580124E0A20EB11CC80103960E94AB
:1035B0003E34DD2021F1882311F18150990B989E32
:1035C0009001999E300D11244D2D4150550BCA018B
:1035D000820F931F019708F4A7CFAFE9BFE01197BF
:1035E000F1F700C00000F6CFCE0101960E94B81797
:1035F00056019ACF81E00E94AB110E946111809127
:10360000C901877061F0D70112968C91882339F037
:103610008091630382FF03C082E00E947A112796A3
:10362000E2E10C94ED3381E00E946D11E6CF82E07F
:10363000FBCF823011F00C94082380910D02909101
:103640000E02892B09F4E4C72EE02C9DC0012D9DAC
:10365000900D1124FC01E85EFD4F20812E7F208318
:103660008D5E9D4F0E94F910D3C781E080930001C9
:10367000C6CF80910001882309F4ACC6480120EE32
:10368000821A91084090D40180917701482A809154
:103690006403482A38E08316910408F086C0980134
:1036A0002770332781E090E001C0880F2A95EAF760
:1036B000552009F477C0482AD7018D919C910E942A
:1036C0002D0B21E030E0F90102C0EE0FFF1F8A95BB
:1036D000E2F7FF83EE832090420430904304609031
:1036E0007401709075011D822D81E22FF0E0EE0FC4
:1036F000FF1FEC52FD4FC080D180C114D10409F4EA
:10370000CDC6411005C0D60112968C91811187C09B
:10371000F601838190E02E813F8182239323892BC0
:1037200009F47DC08085982F977009F487E038E010
:103730008316910408F053C0552009F44CC08695B7
:103740008170882309F46BC0D601AD90BC900A1536
:103750001B0519F4552009F462C0C214D30409F4FE
:103760005EC0D6011D96ED91FC91309721F08081CD
:10377000882309F454C0642DC6010E94FF058823E4
:1037800009F44DC00A151B0509F094C70115110570
:1037900009F495C7511095C7A614B70409F03FC0A6
:1037A000512C8FC78095482287CF552009F45FC6DA
:1037B00010937501009374010E945D0560933904B4
:1037C00070933A0480933B0490933C04109241041C
:1037D0001092400471CF82FB882780F9B2CF552028
:1037E000F1F08170AECF0E942D1689C70497813AFF
:1037F000910548F48A2D0E94EA0A552009F4EAC589
:103800000E948810FCCE0E9488108FE39CE90197EB
:10381000F1F700C000008A2D0E940417EECF9D81B1
:103820009F5F9D8361CFFC012081318102171307C7
:1038300009F0C9C55110C9C510923F0480E00E942B
:103840008616C8C5902F812F0DC6F901858181FF8D
:1038500039C6C9010E94DF1035C680911A01816006
:1038600080931A015DC680911A018E7F80931A01A0
:103870000E94211155C680911A018F7E013E1105CB
:1038800031F0053E1105C9F480911A018F7D8093B6
:103890001A0180911A0180FF52C6D70112968C91AD
:1038A0000832110528F50E31110508F072C00430F8
:1038B000110580F581113FC642C6C8019056811599
:1038C00040E2940720F0905E8115904110F78091BE
:1038D0001A0182FF34C68091900481FD30C627EE24
:1038E00031E040E0B60190E080E00E94EA1827C68F
:1038F0000933110558F40D32110518F40B32110576
:10390000C9F690918E0492FDD5CF08C004361105FA
:10391000C1F3D0CF90918E0494FDCCCF882309F4CD
:10392000A7C08091D40190916403892B8D7FB1F160
:10393000109288031092870380918E0481FD2EC01F
:10394000F80143E0F695E7954A95E1F7EE71FF2718
:10395000EB59FC4F98012F70332781E090E002C0B3
:10396000880F991F2A95E2F78095909520813181E3
:10397000822393239183808360E0C8010E94D5183D
:103980008091D4018D7F0E94940A82E00E947A1176
:1039900036CE90918E0493FD8DCFC0CF88E0F70195
:1039A000A7EEB1E001900D928A95E1F71092E9013E
:1039B0001092EB011092EA018091870390918803A5
:1039C00008171907C9F520918E0425FF35C03091DD
:1039D0001A0131FF02C026FF2FC0209185033091CC
:1039E00086035601A21AB30A0E946C0EA816B906E5
:1039F00018F58091640381FF08C080911A018061ED
:103A000080931A0182E00E94AF0A8091640385FFCF
:103A100008C080911A01806280931A0180E20E949E
:103A2000AF0A60911A016695617080918703909149
:103A300088030E94D518E3CD8091D401909164034E
:103A4000982B20911A0191FB21F920931A018D7F67
:103A50000E94940A1093880300938703D0928603F0
:103A6000C092850380911A01846080931A018DCFE2
:103A7000970140E0B601C8010E94EA18C0CD053F99
:103A80004CE5140709F463C008F45BC0063F8CE5FD
:103A9000180709F462C0D70112963C91332309F448
:103AA000D8C5109246040330BDE51B0708F061C07D
:103AB0000A3FECE51E0730F4C80182509C4544974C
:103AC00008F063C00E94C60D909363038093620365
:103AD00002315CE5150709F49EC108F0EEC009301B
:103AE0009CE5190709F475C108F0B8C00530BCE5BC
:103AF0001B0709F462C108F09FC00330FCE51F07F3
:103B000009F453C108F055C180916203816002300D
:103B10003CE5130709F4CEC08091620390916303E2
:103B20000E944A0E0E94D3116ACD07E225EE45EEAF
:103B300068ED7CE51FC506E221EE40EE63EF7CE513
:103B400019C507E225EE44EE64EF7CE513C506E2F5
:103B500021EE42EE65EF7CE50DC507E225EE46EE6F
:103B600066EF7CE507C508E221E045EE69ED7CE5FE
:103B700001C5053AFDE51F0709F4A4CF08F055C0BB
:103B800001364DE5140709F49DCF06318CE5180781
:103B900009F464C50A355DE5150709F495C108F017
:103BA0006EC101159CE5190709F474C10E3D1C4551
:103BB00009F47DC1F70186819781009709F488C1D6
:103BC0000E94FC08182F092FF701D280C580C294EB
:103BD0003FE0C3228091C9018770C1F0AD2CDD2088
:103BE000B1F0892F807F803421F080E2810F88300E
:103BF00068F08091630382FF09C082E00E947A111D
:103C00008091C9018770AA24A3948111A12C902EC0
:103C100092942FE09222FBE0F91508F4E6C1E92D19
:103C2000F0E0EC56FB4C0C94C433C8018D5A9D4512
:103C3000039708F0AACF46CF8091620380620730D5
:103C40004CE51407B9F180916203806108305CE5AE
:103C5000150780F18091620380642CC00D308CE5E3
:103C6000180709F4C0C090F4809162038E7F0B3076
:103C7000ACE51A07F9F0809162038C600C30BCE56A
:103C80001B07C0F0809162038D7F14C00F30ECE5FC
:103C90001E0709F4B8C008F4AAC000312CE51207C9
:103CA00009F4B5C0809162038F7B01313CE51307B5
:103CB00009F032CF809362032FCF0F3F4CE51407FA
:103CC00009F4B3C0A8F50A3F8CE5180709F479C0D8
:103CD000C0F40431ACE51A0709F4B5C008F4A1C07A
:103CE0000531ECE51E0709F017CF8091620382FBD6
:103CF000992790F921E0922790FB82F990FB83F9B4
:103D0000D9CF0C3FFCE51F0709F475C008F45DC06E
:103D10000D3F3CE5130709F472C080916303836093
:103D20000E3F4CE5140709F0F7CE80936303F4CE01
:103D300001365DE5150709F491C090F401309DE569
:103D4000190709F489C008F474C060E00230BDE5C9
:103D50001B0709F0E1CE8EE090E00E944C34DCCEEF
:103D60000D3AEDE51E07E9F060F490916203892FAA
:103D70008E7F90FF8160053A2DE5120709F49ACFF6
:103D8000CBCE0E3A3DE5130751F10F3A4DE514073E
:103D900009F0C2CE90916303892F877F93FF8860DB
:103DA000C4CF809163038860C0CF8091620382603A
:103DB00081CF8091620384607DCF809162038860AF
:103DC00079CF809163038160B0CF8091630382607B
:103DD000ACCF0E94D3118091620380686BCF809139
:103DE0006303877FA2CF809162038B7F63CF809133
:103DF0006203877F5FCF809163038E7F96CF809130
:103E000063038D7F92CF809162038F7E53CF809129
:103E100062038F7D4FCF0E94D311809162038F7711
:103E200049CF80916203837F45CF809163038C7F6C
:103E30007CCF80916303982F909591708E7F892B12
:103E400090FB81F972CF0E94D31190916203892F68
:103E500097FB87F980582ECF61E07DCF9091620368
:103E6000892F8F7E94FF806125CF8091760181110B
:103E700004C089E20E94DD0AC3CC85E3FBCF0C3588
:103E8000BDE51B07B9F010F1073A1D4509F092CEC8
:103E90000E94F8150E94D3112FEF34E34CE021501B
:103EA00030404040E1F700C000000E94A80C0E9492
:103EB000A219EECF8091630382FB882780F991E0FD
:103EC00089270E94961176CE81E0FBCF80E0F9CF62
:103ED000828100811181882369F0C8010E94230D2D
:103EE000D82E682FC8010E94470BB8018D2D0E9463
:103EF000FB0C66CEC8010E942D0BD82EF6CF202FCA
:103F00002F70B22E802F807F19F0B29490EFB922DB
:103F1000DD20A9F0BB2059F080E2810F883010F03D
:103F2000111107C08B2D0E94B60A0E948810812FA4
:103F30005AC080917204B82AB0927204F6CF812FD1
:103F40000E942D16BB2009F450C080E2810F8830FA
:103F500010F0111104C08B2D0E94AF0A03C08B2DED
:103F60000E94A80A0E94881040C0302F3F70B32ED4
:103F7000802F807F803219F0B29480EFB822112315
:103F800021F1113009F4AEC0DD2009F4B7C0CC2016
:103F900009F47FC020E0D7014C9111965C911197F4
:103FA00012966C91129713967C91139714968C919C
:103FB0000E947C0D8091900481FDB9CFF70185812D
:103FC00080FFB5CF8F70858364C08091630382FDCD
:103FD00040C0DD20C1F1BB2029F08B2D0E94B60A24
:103FE0000E94881080E00E940417A92DA850BB0BE6
:103FF000149710F40E94A105812F902F0E94600B4E
:104000008111C2C11092790110927801AA20B1F0F9
:104010008091C90180FD12C0D70112961C9285952E
:10402000859585950E94AB11C7010E940D1A80915C
:10403000C9018595859585950E946D1160E0C70140
:104040000E949F0DECCA80E00E942D16BB2069F2F1
:1040500082CFDD2011F1C11004C08091D4018B29E1
:1040600019C041E0C41206C08091D4018B290E947E
:10407000940ABBCF80918F04823078F3C812EDCFC1
:104080000E94890A909177018B2D892B8913809347
:1040900077018B2D0E942616A8CFC11003C00E9465
:1040A000890A17C080918F0451E0C51216C0823072
:1040B00008F49BCF809164038B2109F496CF0E9472
:1040C000890A909177018B2D80958923891380939C
:1040D00077018B2D0E941F1688CF823000F3C81203
:1040E000DECF83CF80919504DD2021F08C1508F47C
:1040F0007CCFCFCFC81608F078CFEBCFCC2049F3D8
:104100008091930490919404193321F0809191044B
:10411000909192040E94CC0C812F0E942D1665CFA5
:10412000802F86958695837069F0813009F05DCF88
:10413000812F902F9370D11002C090E080E00E94F8
:10414000750553CF812F902F9370D11002C090E04E
:1041500080E00E948B0549CF812FDD2029F00E944D
:1041600051080E94520F41CF0E943607FACF802F8C
:10417000837091F5D11039CF412F42954695477004
:10418000440F440F812F8F70042E01C0880F0A94B2
:10419000EAF7212F207114FF07C02FE030E001C0A3
:1041A000220F4A95EAF72095302F369536953370D1
:1041B000323069F050F44091D501313029F0822B32
:1041C00084230E94CE1111CF842B822BFACF282B6F
:1041D0008091D5018227F5CF8695DD2011F0802FC3
:1041E0008170882309F401CF412F4295469547708D
:1041F000440F440F812F8F70042E01C0880F0A9442
:10420000EAF7212F207114FF07C02FE030E001C032
:10421000220F4A95EAF72095302F36953695337060
:10422000323069F050F440917104313029F0822B22
:1042300084230E945C11D9CE842B822BFACF282BA9
:10424000809171048227F5CFF02FFF70BF2EDD2003
:1042500029F08F2F0E94AB11812F1CCF812F0E943C
:104260001F168B2D0E946D11C0CE123F89F160F494
:10427000103FB9F0113F81F0DD2009F480C0C1107A
:1042800056CE802F8F7128C0133F49F1143FA1F7FC
:104290008091630382FD2FC0802F8F71DD2011F389
:1042A0001BC080919504DD2079F0C81608F09DCEE2
:1042B000202F2F7181E090E001C0880F2A95EAF746
:1042C000909171048927B5CF8C1508F48ECEF0CF6C
:1042D000802F8F71D110C6CF0E94AB1186CE80E0A7
:1042E000DD2009F4A6CF81E0902F9F7101C0880FD7
:1042F0009A95EAF79ECF80918F04823040F1DD20BD
:10430000D1F09091C9019770943041F40E94BC0A99
:10431000802F8F710E946D11A12C67CEC816E0F717
:10432000202F2F71B22E822F0E94AB1163E08B2DB4
:104330000E94B711F1CFC81630F00E94BC0A64E0A9
:10434000802F8F71F5CF81E00E947A11E5CFDD20BB
:1043500059F0302F3F71B32E832F0E94AB1163E0D1
:104360008B2D0E94B71141CE81E00E947A1141E06D
:104370004C1508F03ACE82E00E947A1136CEC11078
:10438000BFCE802F8F716ECFDD2019F0C1103ACED5
:104390003DCEC11037CE20E0F701408151816281CE
:1043A000738184810E947C0D8091900483FF2ACECA
:1043B0008091780190917901029709F023CE812FA5
:1043C0000E9496171FCE552029F0DC0118968C917B
:1043D00085FF34CAC80197558F3F910511F008F049
:1043E00071C05801BB24BEE00B9FF00111249F0156
:1043F0002D5E3D4F6901D70112968C91E85EFD4F0D
:10440000908180FB90F99083882309F41ECA0E9452
:1044100069059093E6018093E501F60182818F5F43
:1044200082838091720490916403892B83838091AD
:10443000D40184830680F781E02D309731F0D601D6
:104440001C966D917C91C60109958EE08A9DF001C4
:104450008B9DF00D1124ED5EFD4F858181FFF2C92A
:1044600090E080E090934704809348042BC08091B3
:104470007401909175010817190781F41092750164
:10448000109274011092390410923A0410923B0475
:1044900010923C0410924104109240048091420416
:1044A00090914304009709F495CFA8E08A169104EF
:1044B00008F0B9C9642D0E94FF05811103C081E095
:1044C0000E94861680918E0480FF39C00E94690583
:1044D0006C01D70112968C91882309F4CCC9809184
:1044E0001A0182FF08C027EE31E040E0B60190E0FB
:1044F00080E00E94EA180B31BCE51B0709F4ADC946
:104500000C31ECE51E0709F4AEC990911A01892F10
:104510008E7F90FF81600A31FCE51F0709F4A6C970
:10452000C8019056811520E2920728F0905E81150F
:10453000904108F0AEC91092880310928703033FA0
:10454000BCE51B0709F4F7CA08F099CA083DFCE569
:104550001F0709F4EACA093D2CE5120709F403CB49
:10456000073D3CE5130709F096CA06E221EE41EE4D
:1045700067ED7CE5C7010E94591841C80031FFE58D
:104580001F0709F437C801312FE5120709F040C0B1
:1045900082E031C800313FE5130709F444C8013116
:1045A0004FE5140709F443C86801E7E5DE1AFFEF99
:1045B000CF16D10409F060F569E072E08C2D0E94FD
:1045C000580E892B29F58EE08C9DF0018D9DF00D04
:1045D0001124ED5EFD4F8281813009F02AC880915F
:1045E000090290910A02892B99F080910B02909117
:1045F0000C02892B69F080910D0290910E0220919E
:104600000F0230911002822B932B892B09F41CC8C6
:10461000D70112965C90552009F42BC80F35BDE5E3
:104620001B0709F422C80036EDE51E0759F00E35C8
:10463000FDE51F0709F01DC880910001882311F4D2
:104640000C94351B1092000180E00E9486160C9499
:10465000FF1A06315CE5150709F0ACCA80916403C6
:10466000982F9A7A20918D0420FF04C0482F44741B
:1046700009F090E021FF04C0482F417109F090E05B
:1046800022FF04C0482F487809F090E023FF03C0C0
:10469000827209F090E0332309F4E7CB81E09111B5
:1046A00001C080E08093760189E2911185E30E9448
:1046B000EA0AA6C8A114B10409F06EC8512CB12CA5
:1046C000A12C80E00E948616D0924304C09242043E
:1046D00081E080933F04F601858180933D04511071
:1046E0000EC0AB2861F0F601808191819C012450BD
:1046F0003109213A310508F076C80E94DD0AD60159
:104700001696AD90BC90C5019A9581159F4110F405
:10471000E0EEBE2277247394C5010197803B9D454E
:1047200008F0712CD6011996ED91FC911A973097EB
:1047300031F01B966D917C9181E00995782277206C
:1047400079F0F601868197810E94930B80933E0455
:10475000C501F8E08F16910408F048C80E94AE0524
:104760000E9488104AC8B0E0A0E0E9EBF3E20C94A4
:10477000DB3380918201807F31F480917F01C09191
:10478000C601811107C0CDB7DEB7E8E00C94F7335E
:104790002196C770809185018C17A9F3F0907D0157
:1047A000E0907E01C0908001D0908101A6016E2D25
:1047B0008F2D0E941F06D0E08111EACF8E0183E089
:1047C000000F111F8A95E1F7F801EA57FE4F81812A
:1047D0008E11DECF80818F11DBCF82818111D8CF06
:1047E000E380F480EC18FD0860E08DE791E00E9422
:1047F0009F0D0E946C0EE816F90650F6809182011A
:104800008F70806180938201F801E557FE4F8081AF
:104810008F70806180838DE791E00E940D1A0E9465
:10482000230BB1CFA5E1B0E0E8E1F4E20C94D4337E
:104830008C0185E0F801DE01519601900D928A9578
:10484000E1F7D8015C9011966C9011971296EC905C
:1048500012971396CD90DC9060E08DE791E00E9476
:104860009F0D8DE7A82E81E0B82E8090800190905A
:104870008101A40160917E0180917D010E941F064B
:104880008111A5C1F0907F01F601E819F9094F01E6
:1048900060E0FF2009F44AC1C5010E949F0D0E94FB
:1048A0006C0E709082018816990608F0F2C0409153
:1048B000800150918101B0907D01A0907E01872DF3
:1048C000807F6A2D09F08CC08B2D0E941F06FE2C64
:1048D000811127C0D80111968C9111978A1121C09E
:1048E0008C918B111EC0209183013091840116960A
:1048F0008D919C9128173907A1F4E11012C0872DE2
:104900008F708061809382018DE791E00E940D1A83
:1049100080918201F80185838F2D6596EFE00C94DC
:10492000F033A601662D852D0E941F06D82E81E04A
:104930008E25D11080E080FF18C04E2D662D852D6C
:104940000E94030B882389F08091900480FF0DC0A2
:104950008DE791E00E940D1A88E0EDE7F1E0DF01BC
:104960001D928A95E9F7F12CD7CF81E08E25D110E1
:1049700080E0B82FB170CB2E80FF29C04E2D662D60
:10498000852D0E94030BD82E811121C0598A6A8A75
:1049900089899A890E94520D292F22952F702230E1
:1049A00050F0243078F49F7051F0F8019581907F99
:1049B00031F4FD2CB1CF9F7011F08823D1F3805ECC
:1049C0008830B8F3C8010E940D1ADC2CF2CFEE201B
:1049D00009F4A2CF80918201816080938201C3CFCC
:1049E0008B2D0E941F06811124C0D80111968C9135
:1049F00011978A111EC08C918B111BC020918301CD
:104A00003091840116968D919C911797281739073C
:104A100081F4E1100EC015967C92C8010E940D1A17
:104A200088E0F801ADE7B1E001900D928A95E1F7D9
:104A300073CFC8010E945F0D882339F1EE2029F160
:104A4000809182018032A0F020917D0130917E0121
:104A50003A8729871B86DD86CC868E8780918301E5
:104A600090918401988B8F87CE0109960E940D1A30
:104A700088E0F801ADE7B1E001900D928A95E1F789
:104A80000E94B323FF24F39447CFC8010E940D1A5C
:104A9000F9CF872D807F09F45BCF90907D018090C6
:104AA0007E014091800150918101682D892D0E94E5
:104AB0001F0681111CC0F8018181881118C08081F6
:104AC000891115C0209183013091840186819781DD
:104AD0002817390761F4E1100AC07582C8010E94E5
:104AE0000D1A88E0D5011D928A95E9F715CFC80106
:104AF0000E945F0D882349F2EE2039F280918201F5
:104B0000803208F4B5CF20917D0130917E013A8347
:104B100029831B82DD82CC828E83809183019091D8
:104B2000840198878F83CE010196A0CF8DE791E015
:104B30000E949F0D0E946C0E8816990690F6FE2C1E
:104B4000EE2009F4A2CFE0907D01D0907E0140914B
:104B50008001509181016D2D8E2D0E941F068111C3
:104B600028C0F80181818D1124C080818E1121C05F
:104B7000209183013091840186819781281739071C
:104B8000C1F48091900482FD4BCF9091820190FD01
:104B900047CF907F09F444CF809182018583903F75
:104BA00009F43BCF982F907F905F8F70892B85837E
:104BB00034CFC8010E945F0D81115ACF80918201CC
:104BC000816080938201C8010E940D1AA5CEEE205B
:104BD00009F45BCFC8010E945F0DF82E882309F409
:104BE00054CF88E0F801ADE7B1E001900D928A95CD
:104BF000E1F780917D0190917E010E94520D0E940B
:104C0000B3238ACEA0E1B0E0E8E0F6E20C94E13311
:104C100029873A874B875C876D877E878F87988B3C
:104C2000CE0109960E94122481112FC088E0FE0156
:104C30003996DE01119601900D928A95E1F74C8527
:104C40005D856A8589850E941F0681111EC0A0911D
:104C50008501B0E0CD010196877099272091C601AA
:104C600028171906E1F093E0AA0FBB1F9A95E1F708
:104C7000AA57BE4F98E0FE01319601900D929A9589
:104C8000E1F7809385010E94230B8091C6019091EA
:104C90008501891312C06096E2E00C94FD330E94F6
:104CA000D311109285011092C60188E0EDE7F1E082
:104CB000DF011D928A95E9F7E8CFB8E08B9FC0012C
:104CC00011248A579E4F0E941224882321F3809139
:104CD000C60190E00196877099278093C601D5CFD1
:104CE000EF92FF920F931F93CF93DF9380918C03EA
:104CF000882361F0C0918B038CE0F82E80918C03A7
:104D0000C81748F010928C0310928B03CDB7DEB712
:104D1000E6E00C94F933EE24E394EC0EE0928B037E
:104D20000C2F10E0CF9DE0011124C357DC4F4B81C5
:104D30005C81698188810E941F0681111DC08E815E
:104D40009F81892B21F488859985019651F42881CA
:104D500039814A815B816C817D818E819F810E9436
:104D60000226F09EF001F19EF00D1124E357FC4F56
:104D70001482138210927204CE2DC0CF1092300490
:104D800010922F0410921B0180912E0480932D0409
:104D90000E9458060E9470260895B0E0A0E0E3ED5E
:104DA000F6E20C94D233C0912D0497E0892E01E0F5
:104DB00010E02CE0322E3EEF932E44244394809159
:104DC0002E048C1309C00E9470260E945806CDB78D
:104DD000DEB7E1E10C94EE33D0E0FE01EE0FFF1FF1
:104DE000EB5DFB4F80819181889ED001899EB00D43
:104DF0001124A351BC4F14962C911497211158C023
:104E000050908C03EDE8F3E030E020E0712C5D0180
:104E1000251508F04BC0E284F384D501CD90DC90D9
:104E20006FEF7FEF612C462D50E0DA01AA0FBB1F18
:104E3000AC0DBD1D0D90BC91A02D109731F0EA1660
:104E4000FB0609F4BA016394EECF6F3F7607A9F130
:104E5000D80102C0AA0FBB1F6A95E2F77A2AB801EF
:104E6000062C02C0660F771F0A94E2F7AB0141508F
:104E7000510974161506F9F4329EF001339EF00DB7
:104E80001124E357FC4F889ED001899EB00D112458
:104E9000A351BC4F12962D913C91139737832683D3
:104EA000908291829187808715964C920E942A0663
:104EB0002196C37084CF148213822F5F3F4F3C969C
:104EC000A7CFA9E1B0E0E7E6F7E20C94D133942F45
:104ED000498B252F5A8B6B8B7C8B8D8B4C895D89F5
:104EE000622F892F0E941F06811109C080917801CD
:104EF00090917901019690937901809378018B8943
:104F00008111109272041D861E861F86188A85E004
:104F1000FE017196DE01199601900D928A95E1F7D6
:104F20008091630382FF1EC0809175049091760486
:104F3000892BC1F00E9469052091C7013091C801F9
:104F4000821B930B2091750430917604821793078E
:104F500020F08091C90182FFE2C10E94C30A811141
:104F60000E94890A4C855D856A8589850E941F0695
:104F7000811111C061E0CE0109960E949F0D6C0164
:104F80008B8527EFC2162CE5D20681F4882321F108
:104F900081E080931B0129853A854B855C856D8571
:104FA0007E858F8598890E940226C6C038EFC31679
:104FB0003CE5D30629F4882379F00E94BE26EBCF86
:104FC00049EFC4164CE5D40639F4882329F08091C2
:104FD0001B018111F2CFDCCF0DEE13E0512CB12C6F
:104FE000A12C22242394312C2EEF422EF801408153
:104FF000518188248A94982C20E0822F90E0FC0133
:10500000EE0FFF1FE40FF51F6081718161157105BF
:1050100031F0C616D70609F44C012F5FEECFF12C04
:10502000FFEF8F169F0609F449C0F8014481F09004
:105030001B018F2D411180E0F82FF170FF2EF80138
:10504000E58086819B85992309F4F8C0FF2009F447
:10505000F5C06090890470908A04E11013C0A1012A
:10506000082C01C0440F0A94EAF7842B86838091B0
:10507000890390918A038615970520F470928A031C
:1050800060928903C10102C0880F991F2A95E2F737
:105090000197F80126812817190681F480912F04C1
:1050A00090913004009709F44BC00E944E05681699
:1050B000790608F045C021E0F80124835F28FFEF5E
:1050C000AF1ABF0A095F1F4F28E0A216B10409F00A
:1050D0008DCF8B85882309F40DC1552009F40AC1B1
:1050E0000E9469059093300480932F0480918C0373
:1050F000883010F591E0980F90938C0398E0FE01B2
:105100003996DE01119601900D929A95E1F73CE0F7
:10511000839FC001112483579C4F28E0FE013196E4
:10512000DC0101900D922A95E1F72FEF3FEFFC0192
:1051300031872087D386C2866996E2E10C94ED33ED
:1051400080912D0450912E04982FF0E0E0E085131B
:1051500014C090932D04E017F10709F4AFCF90E04D
:10516000FC01EE0FFF1FEB5DFB4FB182A0820196A9
:105170008370992780932E04A1CF682E712CF301A0
:10518000EE0FFF1FEB5DFB4F2081318147E0429F17
:10519000D001439FB00D1124A351BC4F6D917C9160
:1051A0001197798F688F40E020E030E0E32FF0E046
:1051B000EE0FFF1F688D798DE60FF71F80809180BD
:1051C00081149104E1F0F8010190F081E02DFF8B52
:1051D000EE8B20E005C08616970609F44F2D2F5F51
:1051E000E22FF0E0EE0FFF1F6E897F89E60FF71FB9
:1051F000608171816115710571F73F5FD7CF4423DD
:10520000D1F0F801231708F0FD0121E024830E17E7
:105210001F0721F490932D04F42E50CF981305C04E
:10522000AE17BF0711F49F5F937093012F5F3F4F3D
:10523000822F83708CCFF0E0E0E0F7CF90E0E110B8
:1052400020C0B10102C0660F771F2A95E2F79B01CB
:10525000215031098217930731F4442309F448C0DF
:10526000C5010E942A06C101082C01C0880F0A94BA
:10527000EAF7982F9095F801868189238683FE2C82
:105280001DCF9C01082C02C0359527950A94E2F7A2
:10529000A90141705527BC016150710986239723EC
:1052A000892B11F5452B01F1F80182819381892B1E
:1052B000C1F01B821C821D821E8249824A820E948A
:1052C00069058160582F9D838C83F80182819381C9
:1052D0008F83988729813A814B816D817E810E94DD
:1052E0000226F8011582BFCFF22FF170EF2EBBCF4F
:1052F000EF2CB9CF90912D0480912E04981731F0A6
:105300000E94CD26552009F446CE16CF0E94702665
:105310001092300410922F040E945806F3CF82E0BE
:105320000E947A111ACEA5E0B0E0E9E9F9E20C9406
:10533000E13390935F0380935E03811520E292072F
:1053400030F40E94EC162596E2E00C94FD3380EFD9
:1053500089838A831B820E9469058160782F9D83DF
:105360008C8349815A816B818D810E946127EBCFAB
:105370000F931F93CF93DF938C01EB0169E072E0F1
:105380008C2F0E94580E892BA1F48091910490914A
:1053900092040E94CC0CDD27CF5FDD4F8881F8019D
:1053A000128218828330F1F048F4813059F0823053
:1053B00081F0DF91CF911F910F9108958430B9F062
:1053C0008530B9F78091090290910A02009789F31C
:1053D00006C080910B0290910C02009799F30E94F5
:1053E0009329E7CF80910D0290910E02F6CF809124
:1053F0000F0290911002009791F7209109023091CD
:105400000A0280910B0290910C0221153105F1F2F4
:10541000009729F7C901E3CFA5E0B0E0E2E1FAE2A5
:105420000C94E13390935F0380935E03811520E237
:10543000920730F40E94BD182596E2E00C94FD33EB
:1054400080EF89838A8381E08B830E946905816074
:10545000782F9D838C8349815A816B818D810E9435
:105460006127EACFCF93DF93EC010E940C2A809151
:105470009104909192040E94CC0CCE010E94932939
:10548000DF91CF9108950F931F93CF93DF938C01FA
:10549000862F69E072E00E94580E892BB1F4C0910A
:1054A0000902D0910A02209781F0F80182818330AD
:1054B00051F4CE010E94322ACE010E94322ACE013E
:1054C0000E94322A02C08430D0F7DF91CF911F9121
:1054D0000F9108950F931F93CF93DF938C01EB01EE
:1054E00069E072E08C2F0E94580E892B09F05CC095
:1054F000FE01FF27D80112968C911297EF5FFD4FA6
:105500008130B9F415969C9192FF02C080830AC045
:1055100090FFFCCF82E0808380910B0290910C027F
:105520000097B9F48091090290910A020097E1F185
:1055300010C08230B9F515968C9182FD28C080FD8F
:105540000BC083E0808380910D0290910E02009742
:1055500001F10E940C2A28C084E0808380910F0210
:10556000909110020097A9F78091090290910A0288
:105570000097F9F00E94322A80910B0290910C0260
:10558000009739F78091090290910A02E2CF85E0F5
:1055900080838091090290910A02009729F00E946D
:1055A000322AF0CF86E08083DF91CF911F910F9157
:1055B000089580910B0290910C02B8CF1F920F9228
:1055C0000FB60F9211242F933F934F935F936F93D6
:1055D0007F938F939F93AF93BF93CF93DF93EF937B
:1055E000FF93D091E900DF708091EC00C82FC1706B
:1055F00080FDC0E81092E9008091F000877F8093E1
:10560000F00078940E94DF111092E9008091F00080
:1056100088608093F000CD2BCF70C093E900FF919C
:10562000EF91DF91CF91BF91AF919F918F917F913A
:105630006F915F914F913F912F910F900FBE0F90FF
:105640001F9018951F920F920FB60F9211242F934F
:105650003F934F935F936F937F938F939F93AF93FA
:10566000BF93EF93FF938091E10082FF15C080917B
:10567000E20082FF11C08091E1008B7F8093E10006
:10568000209159042F5F822F62E30E949033992367
:1056900009F4C0C0209359048091DA0080FF28C02B
:1056A0008091D80080FF24C08091DA008E7F8093A3
:1056B000DA008091D90080FFE3C080E189BD82E1FA
:1056C00089BD09B400FEFDCF81E08093670485E1C8
:1056D00094E00E94240380915A04811109C00E9421
:1056E000C6030E9491048091E20084608093E200EE
:1056F0008091E10080FF1BC08091E20080FF17C015
:105700008091E2008E7F8093E2008091E2008061D0
:105710008093E2008091D80080628093D80019BC09
:1057200085E0809367048DE194E00E9424038091DA
:10573000E10084FF2FC08091E20084FF2BC080E154
:1057400089BD82E189BD89B5982F917080FFFBCF1B
:105750008091D8008F7D8093D8008091E1008F7E6A
:105760008093E1008091E2008F7E8093E20080913F
:10577000E20081608093E20080916804882309F44C
:1057800089C084E08093670481E294E00E9424034E
:10579000809167048091E10083FF2BC08091E2003B
:1057A00083FF27C08091E100877F8093E10082E042
:1057B00080936704109268048091E1008E7F80934B
:1057C000E1008091E2008E7F8093E2008091E20010
:1057D00080618093E20042E060E080E00E945F042C
:1057E0008091F00088608093F00085E294E00E9450
:1057F0002403FF91EF91BF91AF919F918F917F9182
:105800006F915F914F913F912F910F900FBE0F902D
:105810001F9018951092590480915804882309F418
:105820003BCF809167048430C1F49091E9009F7070
:105830002091EC00822F817020FD80E8892B95E07B
:105840009093E9009091EB0090FF04C09091EE00DE
:1058500097FD08C08F708093E900109258041CCF08
:105860001092F1009091E80095FDFACF9091E80038
:1058700090FFF0CF9091E8009E779093E800EACFF8
:1058800019BC1092670489E194E00E9424031092ED
:105890005A042ECF8091E30087FD93E09093670434
:1058A00073CF78941F921FB61F9211248F939F93EA
:1058B000AF93BF938091500490915104A0915204F2
:1058C000B09153040196A11DB11D80935004909393
:1058D0005104A0935204B0935304BF91AF919F9190
:1058E0008F911F901FBE1F9018951F921FB61F9279
:1058F00011248F939F93AF93BF9380914F04811195
:1059000013C08091500490915104A0915204B09121
:1059100053044196A11DB11D8093500490935104EE
:10592000A0935204B0935304BF91AF919F918F9174
:105930001F901FBE1F901895CDB7DEB7E4970FB626
:10594000F894DEBF0FBECDBF85B7806885BF85B731
:10595000806885BF84B7877F84BF0FB6F894A89509
:1059600080916000886180936000109260000FBE9B
:1059700080E890E00FB6F894809361009093610006
:105980000FBE84EC9BE090936B0180936A010E94B0
:1059900011070E940F0F0E94840E0E94D60C0E94D5
:1059A000C6030E9491048091E20084608093E2002B
:1059B0007894809167048823A1F01091E9001F700A
:1059C0009091EC00892F817090FD80E8182B109247
:1059D000E9008091E80083FD0E94DF111F701093A1
:1059E000E90082E084BD93E095BD9AEF97BD809376
:1059F0006E000E94AD0D811102C00E946F1584E6F9
:105A000090E09093DE018093DD0188EC90E090932C
:105A1000E0018093DF0176986E9A279A2F9880E4B0
:105A2000809301011092E1011092F20190E080E078
:105A30000E944634883E9E4F21F40E94AD0D811194
:105A400002C00E94A21982E090E00E943E3480933E
:105A5000F6010E94C60D90936303809362030E9437
:105A6000FB0F2FEF36E741E0215030404040E1F797
:105A700000C000000E94FB0F8091F20180FF08C06F
:105A80006FEF7FEF90E080E00E946A340E94A80CE4
:105A900083E090E00E943E340E94CE1182E091E0CB
:105AA00090934C0480934B04F8E14F2E512CA0E1CD
:105AB0002A2EB0E13B2E8E010F5F1F4F4E0183E077
:105AC000880E911C80916704853079F487EB91E012
:105AD0000E942403E2E1FE2E80916704853009F4E0
