:100000000C9465030C949D030C949D030C949D0328
:100010000C949D030C949D030C949D030C949D03E0
:100020000C949D030C949D030C94062C0C94C22BF1
:100030000C94592D0C949D030C949D030C949D03DA
:100040000C949D030C949D030C949D030C949D03B0
:100050000C949D030C94352D0C949D030C949D03DE
:100060000C949D030C949D030C949D030C949D0390
:100070000C949D030C949D030C949D030C949D0380
:100080000C949D030C949D030C949D030C949D0370
:100090000C949D030C949D030C949D030C949D0360
:1000A0000C949D030C949D030C949D030631FF0951
:1000B00074A1010975150026FF00952075088102BD
:1000C0000976150026FF00952075089102C00501EC
:1000D0000902A10185020901A100050919012905EB
:1000E00015002501950575018102950175038101B2
:1000F0000501093009311581257F950275088106B2
:1001000009381581257F950175088106050C0A3887
:10011000021581257F950175088106C0C00501097A
:1001200080A101850319012AB700150126B70095A2
:100130000175108100C0050C0901A1018504190198
:100140002AA002150126A002950175108100C006A3
:1001500060FF0961A1010962150026FF0095207565
:100160000881020963150026FF0095207508910299
:10017000C005010906A101050719E029E7150025B9
:10018000019508750181029501750881010507191E
:100190000029FF150026FF00950675088100050857
:1001A00019012905950575019102950175039101C4
:1001B000C00000000000000000000000000000007F
:1001C000000000000000000000000000000000002F
:1001D00000000000007E0F00D4FFFFFFC7000000FA
:1001E0007800000000000000002A2B28000000001A
:1001F00000000000000000000000000029000000D6
:10020000002C1E3420212224342627252E362D377B
:1002100038271E1F202122232425263333362E374C
:10022000381F0405060708090A0B0C0D0E0F1011E4
:1002300012131415161718191A1B1C1D2F313023F1
:100240002D350405060708090A0B0C0D0E0F1011B9
:1002500012131415161718191A1B1C1D2F313035BF
:100260004C0A00253464005B735D000A00253038B9
:1002700062003A200025303258000A722F63203085
:10028000313233343536370A00643214FD377A5848
:100290005A000004E6D6B446020021011600000010
:1002A000742FE5A3E000FE00BE5D003D8889C654C2
:1002B00036C3174FE4F3759B85931F9162B1626655
:1002C000F4D45D5D3F2CBBEAFAA219371A20B3B90A
:1002D0009DF82DEF93C9550355AEF456C9A73AF4CE
:1002E00078DEE75DD21875C809D6AE7E5F0A64492C
:1002F000BAF7C377A4E2FFD0EF43DAAB16F0B0DA77
:1003000067E2331CE11C0505706A57EF0DDAD7155B
:10031000EC1A8CDFFC9E19AF9DF79C05B61BBD5DEA
:100320002F8EE429F85724079169B32F3C54DCAD94
:100330008F74873DC0A01F813182DD6DA09EB846BD
:10034000CAF2B43A2CB053A20EE2EDD8735A2F96EB
:10035000A2AA0B4E3A0B4EC39188E6D1996DB256C4
:10036000F5C2918943F02CD200000000FCFE5675C6
:10037000953D1D100001DA01FF010000E2AE579229
:10038000B1C467FB020000000004595A290A002585
:1003900075002F002575005D2800256400200025CC
:1003A0006400200025640020002564007C002530C6
:1003B0003258006D6F7573656B6579205B62746E82
:1003C0007C782079207620685D287265702F6163C3
:1003D0006C293A205B0000010101010101010101CA
:1003E00002020202020202020203030303030303E6
:1003F00003040404040404040505050505060606B3
:100400000606070707070708080808090909090A6F
:100410000A0A0B0B0B0C0C0C0D0D0D0E0E0E0F0F14
:100420000F101011111112121313141415151616A2
:100430001717181819191A1A1B1B1C1D1D1E1E1F11
:100440002020212222232424252626272829292A60
:100450002B2C2D2D2E2F3031323233343536373888
:10046000393A3B3C3D3E3F40414243444546474884
:10047000494A4C4D4E4F50515354555658595A5B5A
:100480005D5E5F616264656668696B6C6D6F7072FA
:10049000737577787A7B7D7E8082838587888A8C66
:1004A0008E8F91939596989A9C9EA0A2A3A5A7A99A
:1004B000ABADAFB1B3B5B7BABCBEC0C2C4C6C9CB91
:1004C000CDCFD1D4D6D8DBDDDFE2E4E7E9EBEEF047
:1004D000F3F5F8FAFDFF280001000100F402130F04
:1004E000450F000002000200F002130F450F00004C
:1004F00003000100F502130F450F00000400020085
:10050000DA02130F450F530705000100F602130F1F
:10051000450F000006000200DC02130F450F00002B
:1005200007000200F202130F450F0000080001004F
:10053000F702130F450F000009000200DE02130F3F
:10054000450F2E070A000200E002130F450F2E0789
:100550000B000200E202130F450F2E070C000200F1
:10056000E402130F450F2E070D000200E602130FE1
:10057000450F2E070E000200E802130F450F2E074D
:100580000F000200EA02130F450F2E0710000200B1
:10059000EC02130F450F2E0711000200EE02130F9D
:1005A000450F2E0712000200F802130F450F00003E
:1005B00013000200FA02130F450F0000140001009F
:1005C000FC02130F450F0000150000000000AB06F1
:1005D000A21800005B435D005B445D005B535D005F
:1005E0005B575D005B525D0009027B00040100A0C7
:1005F000FA090400000103010100092111010001B1
:1006000022400007058103080001090401000203DC
:1006100000000009211101000122220007058203C8
:100620002000010705030320000109040200010363
:100630000000000921110100012281000705840347
:100640002000010904030002030000000921110138
:10065000000122220007058503200001070505038C
:10066000200001120100020000000869637C6B0198
:1006700000010203011C037600690061006C003A6E
:10068000006600360034006300320062003300630D
:100690000000001E0369007300300054006F0070FA
:1006A0000072006500280033003200750034002914
:1006B000000000100343006900700075006C006FBB
:1006C0000074000000040309040011241FBECFEFD2
:1006D000DAE0DEBFCDBF04B603FE18C08091E203AE
:1006E0009091E303A091E403B091E5038730904B30
:1006F000A740B04B59F41092E2031092E30310921A
:10070000E4031092E503E0E0F8E3099511E0A0E0CE
:10071000B1E0ECE2FCE602C005900D92A437B1070F
:10072000D9F723E0A4E7B1E001C01D92A23EB207D1
:10073000E1F70E94802D0C94F0350C940000FF939B
:10074000EF93E0917401F0917501309709F00995EC
:10075000EF91FF910895FC018591803011F0EFDF5A
:10076000FBCF0895FF27E0E230E247FF0CC0419540
:1007700097FF09C0EDE26095709580959095611D99
:10078000711D811D911D27FF02C0219530E350E2AC
:10079000AA27660F771F881F991FAA1FA41710F09A
:1007A000A41B63955A95A9F7AA3008F0A95FA05D2C
:1007B000AF93F395611571058105910541F7ED3210
:1007C00011F4EF93F395F21718F43F93F395FBCFE1
:1007D0008F91B5DFFA95E1F70895E991F991859147
:1007E000803021F0853219F0AADFF9CF089520E09A
:1007F000E89455915532C1F3503311F468945591F2
:100800005A3348F4505390F3220F022E220F220F36
:10081000200D250FF4CF0EF421958991999153362F
:1008200019F3533729F1533559F1BC01882799271A
:10083000E8945C3621F489919991689455915436E5
:1008400039F446EF7EF077FF0DC08FEF9FEF0AC0BF
:1008500055374AE039F0583540E121F0523642E050
:1008600009F00895FF93EF937DDFEF91FF91B7CFEC
:10087000FF93EF93FC0181918030B9F360DFFBCFF0
:10088000FF93EF9368DFF1CFDF93CF93CDB7DEB760
:100890002596A3DFCF91DF910895E8EDF0E0808108
:1008A0008E7F80831092E2001092DA001092E100B5
:1008B000A0EEB0E08C9181608C9380818F778083F3
:1008C00019BCA7EDB0E08C918E7F8C9380818F7ED8
:1008D00080831092C40308952091E4003091E500D4
:1008E00095E6A9012091EC00822F817020FF06C0BF
:1008F0008091E80080FF06C080E008952091E80024
:1009000022FD1AC08091D103882389F0853089F0B7
:100910008091EB0085FD0FC02091E4003091E5004F
:1009200042175307F9F29150E1F684E0089582E00E
:10093000089583E0089581E00895EF92FF920F9368
:100940001F93CF937C018B010E946C04C82F8111EF
:1009500017C08091E80085FD0BC08091E8008E777C
:100960008093E8000E946C04882399F3C82F08C084
:10097000F70181917F018093F1000150110949F73E
:100980008C2FCF911F910F91FF90EF900895809140
:10099000D30387FF13C08091E80082FF06C08091D7
:1009A000E8008B778093E80004C08091D103811127
:1009B000F2CF08958091D1038823D9F38091E80084
:1009C00080FFF8CF8091E8008E77ECCF982F90933E
:1009D000E900242F762F50E0891731F07091EC0058
:1009E0002091ED005091F00021FD07C09F5F9730EE
:1009F00071F78093E90081E008953091EB003E7F2C
:100A00003093EB003091ED003D7F3093ED0030915D
:100A1000EB0031603093EB007093EC002093ED001D
:100A20005093F0002091EE0027FDE0CF80E0089584
:100A3000CF92DF92EF92FF920F931F93CF93DF93AA
:100A4000C8EDD0E088818F7E8883E7EDF0E080817B
:100A50008160808384E082BF81E08093C4038881C9
:100A60008E7F888302EE10E0F80110821092DA0087
:100A700081EEC82ED12CF601108288818F77888371
:100A800088818068888388818F7D888319BC1092D3
:100A9000D1031092D2031092D0031092CF0390EEA4
:100AA000E92EF12CF70180818B7F80838881816022
:100AB000888342E060E080E00E94E604F6018081E5
:100AC0008E7F8083F801808181608083808188604F
:100AD0008083F70180818E7F808388818061888315
:100AE000DF91CF911F910F91FF90EF90DF90CF900A
:100AF0000895FC018091D9039091DA038617970736
:100B0000A0F06115710529F49091E8009E7790930B
:100B1000E80090E06115710551F4911108C08091D1
:100B2000E80082FF34C080E00895BC01F2CF8091DC
:100B3000D1038823C1F18530C1F18091E80083FDA4
:100B400030C08091E80082FDEACF8091E80080FF0C
:100B5000E1CF8091F3002091F200382F61157105EB
:100B600019F02830310558F091E02830310509F0AE
:100B700090E02091E8002E772093E800CBCF819180
:100B80008093F100615071092F5F3F4FE7CF809153
:100B9000D103882341F0853041F08091E80083FF44
:100BA000BECF81E0089582E0089583E0089508951E
:100BB0008091C60308959C014FB7F8948091BA03C1
:100BC0009091BB03A091BC03B091BD034FBF821BAA
:100BD000930B08952FB7F8946091BA037091BB03FB
:100BE0008091BC039091BD032FBF08952FB7F89457
:100BF0008091BA039091BB03A091BC03B091BD0357
:100C00002FBF08952091B7033091B80328173907F3
:100C100071F09093B8038093B703E091B503F0911E
:100C2000B603309721F00084F185E02D09940895F2
:100C30002091B3033091B4032817390771F09093D2
:100C4000B4038093B303E091B503F091B6033097FA
:100C500021F00680F781E02D09940895E091B50315
:100C6000F091B603309721F00190F081E02D0994C6
:100C700080E00895CF93DF93EC014091CF02509133
:100C8000D0026091D1027091D2022FB7F894809176
:100C9000BA039091BB03A091BC03B091BD032FBFD9
:100CA000841B950BA60BB70B843F9140A105B105A2
:100CB00018F58091CF029091D002A091D102B0910D
:100CC000D2028093CB029093CC02A093CD02B0933A
:100CD000CE0284EF91E0A0E0B0E08093C702909351
:100CE000C802A093C902B093CA02D093D702C0939E
:100CF000D602DF91CF9108950E94EA056093CB025E
:100D00007093CC028093CD029093CE0282E390E068
:100D1000A0E0B0E0E2CFFC018481862351F492810F
:100D20009923B9F06923808583FF05C081E06111B3
:100D30000FC080E00895892F8F7092959F70982B37
:100D4000862F8F7062956F70682B81E09613F1CFBC
:100D5000089581E0FDCFAF92BF92CF92DF92EF92E4
:100D6000FF920F931F93CF93DF938FEF9FEF44304A
:100D7000510508F468C04091A00241FB882780F922
:100D800090E0880F991F42FB002700F910E0000F48
:100D9000111F000F111F802B912B40FBCC24C0F89A
:100DA000D12C8C299D2943FB222720F9C22FE0E07A
:100DB000DE2F53E0CC0FDD1F5A95E1F78C2B9D2BD6
:100DC00044FBAA27A0F9B0E0E4E0AA0FBB1FEA9514
:100DD000E1F78A2B9B2B45FBEE27E0F9F0E0A5E03D
:100DE000EE0FFF1FAA95E1F78E2B9F2B46FB2227C4
:100DF00020F930E0B6E0220F331FBA95E1F7822BDD
:100E0000932B47FB222720F930E03695322F2227FB
:100E100037952795822B932B2091A102322F317089
:100E2000F32EF92A26952170B22EBB0CA82EBF28CE
:100E3000C501BB0CAA0BBB0BFB0180839183A28372
:100E4000B38390E080E0DF91CF911F910F91FF90ED
:100E5000EF90DF90CF90BF90AF900895EAEDF2E071
:100E6000848195812AE030E0B9010E9428356093A1
:100E70001A018681809319018285809318018485E7
:100E80008093170186859785B9010E942835609364
:100E900016018089809315018289809314018489C9
:100EA0008093130108958091DA029091DB02909370
:100EB0001C0180931B01089581152CE5920741F4D4
:100EC0002091110130911201232B11F490E080E068
:100ED0000895FA01811101C0FB01099408958091E0
:100EE000DC03982F9E7F29F4817082608093DC035D
:100EF00008958031E8F381708E60F8CFAF92BF9291
:100F0000DF92EF92FF920F931F93CF93DF93082FFF
:100F1000162FE901E42FF0E0EA52FC4F611110C0F6
:100F2000E4915E2F4E2F4983E8835A83DF91CF915E
:100F30001F910F91FF90EF90DF90BF90AF900895B9
:100F4000E62EF12C4491D42EE42FF0E026E0829F8F
:100F5000C00111242FEF30E0B9010E942835802F05
:100F600090E0880F991F55E5569FD001579FB00D0F
:100F700011248A1B9B0B982F990F890F5901AE18CA
:100F8000BF08AE9ED001AF9EB00DBE9EB00D112425
:100F90005B2F189F80011124012F11275901A01ADE
:100FA000B10AAE9E8001AF9E100DBE9E100D1124A1
:100FB0005901A81AB108AE9CC001AF9C900DBE9C0F
:100FC000900D1124892F9927281B390B2E9FC001C2
:100FD0002F9F900D3E9F900D1124E92F62307105D7
:100FE000A1F050F46115710509F49DCF61307105D0
:100FF00081F0EB2F512F97CF6430710569F080F0AD
:101000006630710509F48FCFF4CFE42F4B2F592FA1
:101010008ACFE42F412F87CFEB2F542F492F83CF37
:101020004B2F5D2DE12F7FCF9091F001803F59F440
:101030008091F10187FF0DC01092F10191110BC059
:101040001092E80108C0813F81F48091F1011816E7
:101050009CF3992381F08091F2019091F301892B07
:1010600009F064C01092E6010895823F49F497FFA9
:10107000F0CF1092F0018091F1018111ECCFE0CF1F
:10108000833F19F41916ACF3E4CF2091F201893FA4
:1010900029F41216F4F61092F201DBCF8A3F19F40C
:1010A00027FFD7CFF8CF2091F3018B3F29F427FFFB
:1010B000D0CF1092F301CDCF8C3F19F41216CCF3A0
:1010C000C8CF843F31F48091EF018E7F8093EF0190
:1010D000C0CF853F21F48091EF018D7FF7CF863F10
:1010E00021F48091EF018B7FF1CF873F21F4809134
:1010F000EF01877FEBCF883F21F48091EF018F7E56
:10110000E5CF8D3F31F48091E7018E7F8093E70139
:10111000A0CF8E3F21F48091E7018D7FF7CF8F3FE5
:1011200009F097CF8091E7018B7FF0CF08958091F0
:10113000E70180FF0CC06091140170E07595679520
:10114000759567956115710549F1862F089581FFA1
:1011500006C06091140170E075956795F3CF6091BA
:10116000140182FD0BC09091E6019923A1F06091DA
:10117000130180911401961738F0682F70E06038E1
:10118000710500F38FE70895899FC001112470E075
:101190000E943C35F4CF61E070E0D7CF81E0089544
:1011A0008091E7016091E2027091E30280FF16C036
:1011B00020911801269FC001279F900D1124BC018A
:1011C00076956795769567956038710508F043C008
:1011D0006115710509F441C0862F089581FF0BC088
:1011E00020911801269FC001279F900D1124BC015A
:1011F00076956795E9CF82FF09C0809118019B0120
:10120000829FB001839F700D1124DECF2091E801F1
:101210002223D1F29091170180911801482F50E0BC
:10122000291748F0CB01849FB001859F700D949FD2
:10123000700D1124C9CF289F90011124269FA00171
:10124000279F500D369F500D1124692F70E0CA0161
:101250000E942835B9CF8FE7089581E00895803F37
:1012600031F40E94D00881958093F1010895813F67
:1012700019F40E94D008F8CF823F31F40E94D008C0
:1012800081958093F0010895833F19F40E94D0085E
:10129000F8CF893F29F40E9497088093F2010895BE
:1012A0008A3F21F40E9497088195F7CF8B3F31F454
:1012B0000E94970881958093F30108958C3F19F45B
:1012C0000E949708F8CF843F31F48091EF0181604C
:1012D0008093EF010895853F21F48091EF018260B2
:1012E000F7CF863F21F48091EF018460F1CF873FF3
:1012F00021F48091EF018860EBCF883F21F4809149
:10130000EF018061E5CF8D3F31F48091E70181608D
:101310008093E70108958E3F21F48091E701826078
:10132000F7CF8F3FB9F78091E7018460F1CF9091BB
:10133000A00292FF06C0282F28712830F9F4877F79
:10134000846093FF06C0282F28712831F1F4877E2E
:1013500084612091A10220FF06C0382F38713830F7
:10136000D9F4877F816021FF06C0282F287128319A
:10137000D1F4877E816194FD877E0895282F2471A2
:101380002430F9F68B7F8860DCCF282F247124313C
:1013900001F78B7E8861DDCF382F3171313019F73D
:1013A0008E7F8860E0CF282F2171213121F78E7E3A
:1013B0008861E1CFCF93DF93EC0182389105A9F1E9
:1013C000D8F58133910509F496C048F58932910525
:1013D00009F48AC08A9709F495C0C11521E5D2079E
:1013E00008F0BCC0C11530E5D30708F014C1C83EF1
:1013F000D10508F09CC0C13ED10560F5C83AD105C1
:1014000008F087C0C53AD10508F0FDC0C130D1054C
:1014100009F12097F9F0C430D105E0F440C08533DC
:10142000910509F45AC0C997C1F68091A002837052
:1014300089F0C0EED0E00EC0833E910599F170F4C2
:10144000803E910501F1823E910539F68091A0021E
:1014500082FD21C0CE01DF91CF910895863E910596
:1014600061F1873E910571F1843E910509F0B5CF98
:101470008091A10281FFEECF8091A002C7EED0E063
:1014800084FD0DC0E7CF8091A00280FD12C1909134
:10149000A10290FFDFCFC3EED0E084FFDBCFD0E02E
:1014A000C0E0D8CF8091A00282FD06C19091A10238
:1014B00090FDBFCF84FFCECFF2CF8091A00283FDFD
:1014C000DDCFC8CF8091A00283FDF9C09091A10229
:1014D00091FFF0CFC4EED0E0BDCF8091A00285FF98
:1014E000B9CFC9E2D0E0B6CF8091A00285FFB2CFDC
:1014F000C5E3D0E0AFCF8091A00286FFABCFCAE2B8
:10150000D0E0A8CF8091A00286FFA4CFC1E3D0E0B5
:10151000A1CFCF3BD10518F6C85AD0E0CC0FDD1FC4
:10152000C65DDE4F0990D881C02DD46493CFC1151C
:1015300040E2D40758F4C11581E0D80708F08ACFFB
:10154000C03FD10508F4ABCFD06584CFC11590E47E
:10155000D90708F4A4CFDF70D06A7CCFC11525E588
:10156000D20700F5C11534E5D30708F08AC0C115CC
:1015700043E5D40708F071C0C11582E5D80708F427
:1015800067C0CE018370992721E030E002C0220FAE
:10159000331F8A95E2F7C695C69580E2C89FE001A1
:1015A000112452C0C11599E5D907A8F4C11528E541
:1015B000D20708F06BC0C11536E5D30708F06FCF2E
:1015C0008C2F0E949709C82FD0E0DC2FCC27CC2786
:1015D000DF71D0623FCFC1154AE5D40708F45BC084
:1015E000CE0190568115904208F059CF8D2F8F7102
:1015F0000E94970990E0982F882788279F719C0167
:101600002C2BE901E6CFC55AD0E0C95DDE4FC88179
:10161000D0E0D0641FCFCE01E4E096958795EA959F
:10162000E1F783702C2F26952695237040E2249FA6
:1016300090011124382B8C2F8370C1E0D0E002C0C0
:10164000CC0FDD1F8A95E2F7C22BD32BDC6802CFCB
:10165000DC2FCC27C16FD06AFDCECE0183709927D5
:1016600021E030E002C0220F331F8A95E2F7C695D1
:10167000C69590E2C99FE0011124C22BD32BDA68F2
:10168000E9CEDC2FCC27C46FD06AE4CEDC2FCC2788
:10169000C06FD06ADFCE8C2F8F700E94970934E024
:1016A000D695C7953A95E1F7CF709C2FEC01D0699C
:1016B000D1CEC9E3D0E0CECEC2EED0E0CBCEC6EEE6
:1016C000D0E0C8CE8091CC01882331F01092CC01BB
:1016D0001092CB011092CA010895CF93C82F809128
:1016E000A10282FD0CC08091CC018C1741F00E94B8
:1016F000F6059093CB018093CA01C093CC01CF91A2
:10170000089580959091DB0398239093DB030895CF
:1017100080959091A20298239093A20208959091AF
:10172000A202892B8093A20208951092C101109207
:10173000C0011092BF0108958091DC029091DD02FA
:10174000892B89F00E94F6052091CA013091CB01C6
:10175000AC01421B530B81E02091DC023091DD0291
:101760004217530708F480E0817008958091BE010C
:1017700081111092BE010895E8E7F1E0919189137B
:1017800003C0DF0111971C9291E0EE37F907B1F722
:101790000895A8E7B1E0EFEF90E02D91821751F0A6
:1017A000EF3F19F4211101C0E92F9F5F9630A9F78F
:1017B000EF3F09F408950E2E000CFF0BEA58FE4F80
:1017C000828308952091BD0190918C0156E02913E8
:1017D00002C080E0089530E0529FF001539FF00D69
:1017E0001124E357FE4F7181761306C07081781380
:1017F00003C07281741304C02F5F3F4F2770E7CF7F
:1018000081E00895452B39F0682381E06F3F09F0AE
:1018100080E08170089581E0FCCF8091BD019091BE
:101820008C01981301C008958F5F8770FACF9E3F97
:1018300029F1980F692F677096959695969583E094
:10184000989FF0011124ED57FE4F50E040E080E0FA
:10185000219130E0062E02C0369527950A94E2F7D2
:1018600021703327042E01C0220F0A94EAF7822B3D
:101870004F5F5F4F4330510559F7089580E0089559
:101880009E3F49F1980F892F877041E001C0440FB6
:101890008A95EAF796959695969583E0989FF0013C
:1018A0001124ED57FE4F30E020E070E05191DF0150
:1018B0001197CB01022E02C0969587950A94E2F704
:1018C000817081958527842385278C932F5F3F4FD7
:1018D0002330310559F7089592959F70963091F015
:1018E00058F4925F9F70923058F4803F19F030F4B2
:1018F000883E30F481E008959A5FF4CF843FD1F3BD
:1019000080E00895883EB0F3813FD1F7F3CF829510
:1019100090E09C01220F331F220F331F2C7C9595E2
:101920008795959587958373282B30E0C901880F9B
:10193000991F8A7A359527952575822B08959C01E4
:101940003A9521153F4150F5FC01EE27F170BC019D
:1019500066277270AC01442754709C0122273870AE
:1019600094FF0EC080E1EF2B09F480E0672B09F0B3
:101970008062452B09F08064232B89F080680895EC
:1019800081E0EF2B09F480E0672B09F08260452BA2
:1019900009F08460232B19F08860089580E0089591
:1019A0009FB7F8941092C2039FBF9091D1039430D7
:1019B00009F048C02091E9002F703091EC00932F7E
:1019C000917030FD90E8922B25E02093E900209162
:1019D000EB0020FF34C02091EE0027FF30C02091A3
:1019E000C103222321F02091E80025FF28C0109296
:1019F000C10326E03091E80035FF14C08093F10068
:101A00008091E80085FD27C08091E80080FFFCCF31
:101A10008091E8008E778093E8009F709093E900B2
:101A200080E008953091D103343049F43091EB00D7
:101A300035FD05C0215041F481E08093C1039F70C2
:101A40009093E9008FEF0895EFE9FFE03197F1F708
:101A500000C00000CFCF8FB7F89421E02093C203DD
:101A60008FBFDBCF8093BE037093C0036093BF032F
:101A70008091D1038430F9F48093E9008FEF909145
:101A8000E800815095FD06C095ED9A95F1F70000AC
:101A90008111F5CF8091E80085FF0DC050E040E056
:101AA00063E070E08EEB93E00E949D048091E8007B
:101AB0008E778093E8000895BC0184E00C94320D89
:101AC000BC0183E00C94320D9C0184E08093E9001A
:101AD0009FEF8091E800915085FD06C085ED8A95C5
:101AE000F1F700009111F5CF8091E80085FF0CC05F
:101AF00050E040E066E070E0C9010E949D048091E2
:101B0000E8008E778093E8000895CF93DF93EC018F
:101B100081E08093E9008FEF9091E800815095FD7E
:101B200006C095ED9A95F1F700008111F5CF8091EF
:101B3000E80085FF14C050E040E068E070E0CE01AE
:101B40000E949D048091E8008E778093E80088E0F1
:101B5000FE01A7ECB3E001900D928A95E1F7DF91C9
:101B6000CF91089581E08093E00080E28093D800D7
:101B70001092C9008FE19EE40197F1F700C00000C8
:101B800087E090EBDC018093E2039093E303A09362
:101B9000E403B093E50388E19CE00FB6F894A895C0
:101BA000809360000FBE90936000FFCF019708F410
:101BB0000895EFE9FFE03197F1F700C00000F6CF9C
:101BC0008091DC0380FF27C0849A31B33F7E21B32C
:101BD00020614FB7F8948CEF91E0FC015191CF0157
:101BE00068E021BB000000C057FF31BB550F00006B
:101BF00000C000C000C031BB00C06A9591F7F1E0A1
:101C00008F3F9F0751F74FBF8FE594E00197F1F7A2
:101C100000C0000008951092FD011092FC01109286
:101C2000FE01D2CFCF93DF93EC012CEF31E0409156
:101C3000DF036091DE038C810E947E070E94E00D2D
:101C40009A818C8190FF05C08F5F8C83DF91CF914B
:101C500008958150FACF0F931F93CF93DF930AED2E
:101C600012E0C9E2D0E0CE010E94A035F8018193D4
:101C70008F012196CD34D105B1F7C2EED4E0FE013B
:101C800085919491009711F0FC0109952C96F5E04F
:101C9000CE3DDF07A1F7DF91CF911F910F910895FE
:101CA000CF93DF9320919E0230919F02232B41F42A
:101CB0007E3F49F480919C0290919D026E3FA9F075
:101CC00090E080E012C0762B782BD1F787E290E08D
:101CD0000E94A035C82FD0E0DC2FCC2788E290E00E
:101CE0000E94A0359E01282BC901DF91CF91089554
:101CF000CF92DF92FF920F931F93CF93DF936C01EC
:101D00000091E1038091CD01082BC7E0D0E010E005
:101D1000FC2EC8010C2E02C0959587950A94E2F717
:101D200080FD0CC02197A0F7F12C8F2DDF91CF9172
:101D30001F910F91FF90DF90CF900895B6018C2FE7
:101D40000E94500E0E94DA09019761F3EECFCF9303
:101D5000DF93EC010E94780EBE010E94500EDF91CD
:101D6000CF910C94DA09FC01808191810E94A70E29
:101D70000C946C0C1F93CF93DF9300D000D00F9284
:101D8000CDB7DEB749835A8389819A816623B9F03A
:101D90002223A9F00E94780E182F682F89819A813A
:101DA0000E94400C69817A81812F0F900F900F90D3
:101DB0000F900F90DF91CF911F910C94500E0E94C5
:101DC000170C182FEFCFFC01262F40815181628123
:101DD000738184810C94BA0E83E290E00E94A03556
:101DE0008D3D89F484E290E00E94A035843459F45A
:101DF00085E290E00E94A03591E08A3709F090E0FA
:101E0000892F8170089580E0FCCFCF9384E090E02B
:101E10000E94A035C82F82E290E00E94A035982F42
:101E20008C2FCF910895DB01FC01329625913491DE
:101E30004217530758F0FC01349665917491A9013B
:101E4000CD010E94803590E080E008958FEF9FEFF4
:101E500008950F931F93CF93DF930AED12E0C9E229
:101E6000D0E0CE010E94A035F80161918F01681782
:101E700019F0CE010E94B4352196CD34D10589F7F1
:101E8000DF91CF911F910F910895DA019C012E5F90
:101E90003F4FF90145915491F90125913491A217D1
:101EA000B30758F0FC013496859194910E948035D7
:101EB0000E94290F90E080E008958FEF9FEF089532
:101EC000CF93DF93CDEED0E060E0CE010E94B43539
:101ED0002196C11584E0D807B9F7DF91CF91089515
:101EE000CF93C82F6FEF81116DED83E290E00E94D8
:101EF000B4356FEFC11164E484E290E00E94B43520
:101F00006FEFC1116AE785E290E0CF910C94B43590
:101F1000CF93C92F682F84E090E00E94B4356C2FD6
:101F200082E290E0CF910C94B4359B01883070F43C
:101F30009AE0899FB0011124635B7F4F4AE050E033
:101F4000C9010E94903590E080E008958FEF9FEFE7
:101F500008958F929F92AF92BF92CF92DF92EF92AD
:101F6000FF920F931F93CF93DF93CDB7DEB72A97DE
:101F70000FB6F894DEBF0FBECDBF03E013E0F12C27
:101F8000E12C8CE1C82E8BE2D82E96E4A92E9BE2A0
:101F9000B92E25E8822E2AE2922EF801D182C08243
:101FA000B382A28295828482F58AE48ABE016F5F41
:101FB0007F4F8E2D0E94950F892B29F489859A8554
:101FC000F801938B828BFFEFEF1AFF0A0A5E1F4F17
:101FD00088E0E816F10409F72A960FB6F894DEBFF8
:101FE0000FBECDBFDF91CF911F910F91FF90EF906A
:101FF000DF90CF90BF90AF909F908F9008958F9279
:102000009F92AF92BF92CF92DF92EF92FF920F9387
:102010001F93CF93DF93CDB7DEB72A970FB6F8940F
:10202000DEBF0FBECDBF04E212E082E1C82E82E027
:10203000D82E9DE9E92EF12C27E0922E31E1A32E36
:1020400032E0B32E88248394D6010D931D936D0145
:102050004AE050E0B701CE0101960E949035F801A8
:102060003896DF01892D1D928A95E9F789819A8139
:10207000D80111969C938E938F8112968C93129710
:102080008D8113968C931397888514968C9314974F
:10209000898515968C9315978B819C8117969C93B7
:1020A0008E93169718961C9218978A8587FF4AC0B8
:1020B0001E961C921E921D9780FF03C0D801189691
:1020C0008C9281FF04C0F80190859260908782FF16
:1020D00007C0D80118969C911897946018969C9305
:1020E00083FF04C0F80190859860908784FF07C043
:1020F000D80118969C911897906118969C9385FF2B
:1021000004C0F801808580628087015F1F4FFAE07C
:10211000EF0EF11C8DEEE816F10409F095CF2A962A
:102120000FB6F894DEBF0FBECDBFDF91CF911F91E8
:102130000F91FF90EF90DF90CF90BF90AF909F9066
:102140008F900895F801B686A586B6CFCF92DF921C
:10215000EF92FF926B017C010E946F07B701A6010D
:1021600088E090E0FF90EF90DF90CF900C94C63520
:10217000EF92FF920F931F93CF93DF9300D00F92B4
:10218000CDB7DEB7182F062FF42EE22E8091DC0398
:1021900080FF27C0E82FE695F0E0E85AFE4F9081D7
:1021A0009093FA018E7F823031F59E012F5F3F4F71
:1021B000812F0E947E078091DC0380FD21C0109357
:1021C000DD030093DE03F092DF03EE2051F0609117
:1021D000DC037091DD038091DE039091DF030E94A8
:1021E000A6100F900F900F90DF91CF911F910F913C
:1021F000FF90EF900895923011F71091DD03DFCF3B
:102200008B8199812A812093FD019093FC01809319
:10221000FE010E94E00DD3CFECEDF3E0438121E11C
:10222000421B08F440E021E0628181810C94B810E7
:10223000ECEDF3E0438121E1420F08F44FEF21E0A0
:10224000628181810C94B810ECEDF3E0628121E1B0
:10225000621B08F460E021E0438181810C94B81096
:10226000ECEDF3E0628121E1620F08F46FEF21E011
:10227000438181810C94B810ECEDF3E0818121E081
:102280004381628188500C94B810ECEDF3E08181B9
:1022900021E043816281885F0C94B8108091E00353
:1022A000882319F081508093E0036091DC037091E2
:1022B000DD038091DE039091DF030C94A6108091E2
:1022C000E003833018F48F5F8093E0036091DC03B8
:1022D0007091DD038091DE039091DF030C94A610D2
:1022E0009091DC0390FF3DC09170811129C09260F4
:1022F0009093DC03662351F06091DC037091DD0361
:102300008091DE039091DF030E94A6106091DC03B0
:10231000669570E041E050E080E191E00E94663512
:10232000892BA9F01092FB0181E08093F70120E056
:102330004091DF036091DE038091DD030C94B810BF
:10234000883010F09E60D4CF880F982BD1CF81E0D9
:102350008093FB010E94F6059093F5018093F401B0
:10236000E3CF08958091DC038695815009F487E0DE
:1023700061E00C9470118091DC0386958F5F88304A
:1023800008F081E061E00C9470118091DC0380FF23
:1023900007C0869582588F77853010F40C94BB1156
:1023A00061E082E00C947011ECEDF3E083E0808357
:1023B00011828FEF82838383148260817181828195
:1023C00093810C94A6108091E90183FF7EC083EB7A
:1023D00093E00E94AB038091EF011F928F938EEAEE
:1023E00093E09F938F930E9444048CEA93E00E94B1
:1023F000AB038091F001282F082E000C330B3F9384
:102400008F9389EA93E09F938F930E94440487EA15
:1024100093E00E94AB038091F101282F082E000C5D
:10242000330B3F938F9384EA93E09F938F930E94A3
:10243000440482EA93E00E94AB038091F201282FCA
:10244000082E000C330B3F938F938FE993E09F93FB
:102450008F930E9444048DE993E00E94AB03809126
:10246000F301282F082E000C330B3F938F938AE93A
:1024700093E09F938F930E94440487E993E00E9426
:10248000AB038091E8011F928F9384E993E09F93BF
:102490008F930E94440482E993E00E94AB038091F1
:1024A000E7011F928F938FE893E09F938F930E9491
:1024B00044048CE893E00E94AB038DB79EB74C9622
:1024C0000FB6F8949EBF0FBE8DBF0E94F6059C010B
:1024D0009091F0018091F101982B21F03093ED0162
:1024E0002093EC019091F2018091F301982B21F05F
:1024F0003093EB012093EA01E091B503F091B6032C
:10250000309749F082E08093EE010480F581E02D60
:102510008EEE91E009940895CF936E9A6E9A2F985B
:10252000F8946E9876982F9A86E880937A0080EADD
:1025300080937B0080910101816080937C00809179
:102540007A00806480937A0080917A0086FDFCCFC7
:102550002091780080917900382F80917A008F77D0
:1025600080937A0078943093CF012093CE018091AC
:10257000D90180FF0AC04091D5015091D6018E7FCC
:102580002417350750F0C0E00BC04091D70150919F
:10259000D80142175307B8F781608093D901C1E091
:1025A0006E9A8091D0019091D1019C012F5F3F4F95
:1025B0008C329140F1F03093D1012093D001CC23A3
:1025C00089F181E08093D4010E94F6059093D301B4
:1025D0008093D2018091D2019091D3010E94DB05BA
:1025E000059720F18091D9018093E5011092D401E3
:1025F0001DC01092D1011092D0018091CF018F9314
:102600008091CE018F9383E692E09F938F930E94F7
:10261000440481E692E00E94AB030F900F900F906C
:102620000F90CDCF8091D4018111D4CF8C2FCF9139
:10263000089590E080E00E94AE35893E9E4F11F4EF
:102640000C94EC0E80E008958091A2029091DB033F
:10265000892B809376018091CC01882309F18091A8
:10266000DC029091DD02892B29F00E949C0B8111E4
:102670000E94620B809176019091CC01892B80930E
:10268000760120E088E791E0FC013191CF01311122
:102690002F5FF1E08E379F07B9F721110E94620B7F
:1026A0008091D30280959091760189239091D402F4
:1026B000892B8093760148E050E062EC71E086E778
:1026C00091E00E947335892BA9F088E0E6E7F1E0FC
:1026D000A2ECB1E001900D928A95E1F7E091B5038B
:1026E000F091B603309731F00280F381E02D86E758
:1026F00091E009940895EF92FF920F931F93CF9367
:10270000DF93EC018A85811134C0EB80FC8087E582
:10271000F81A26E12E9DC0012F9D900D1124DC0199
:10272000AD5FBC4F1496ED91FC911597309731F049
:1027300054966D917C91875F9C4F099586E18E9DA3
:1027400080018F9D100D11240D5F1C4FF8018781B2
:102750000E94880BF80180850E94810B0E9424133F
:10276000188219861B861E821D8210920203109207
:102770000103DF91CF911F910F91FF90EF9008958A
:10278000CF93DF93EC018989811118C081E0898B97
:102790008F810E948F0B8091DB039885892B80931A
:1027A000DB030E942413EA81FB81309739F06C89A6
:1027B0007D89CE010696DF91CF910994DF91CF916B
:1027C000089580911D01877F80931D0182E00E9402
:1027D000810B80911D0184FF06C08F7E80931D01B7
:1027E00082E00E948F0B80911D0185FF06C08F7DC6
:1027F00080931D0180E20E948F0B0C94241390E0C3
:1028000080E00E94180690E080E00E94020610928C
:10281000DB030E94241386E0EEEEF1E0DF011D925F
:102820008A95E9F71092E8011092E6011092E7010B
:102830000C94E3118093E1030C94FF138091E10366
:10284000982F9670963019F488600C941A14877F2C
:10285000FCCF21E030E001C0220F8A95EAF72095F5
:102860008091E10382230C941A149091C101809508
:1028700089238093C101282F277091F4282F082ED7
:10288000000C330B9217130659F09091A10292FDA0
:1028900007C08595859585950E9429140C94950B04
:1028A00008959091A10292FB222720F9281769F040
:1028B00080FB92F99093A1028091A0029091A102D5
:1028C0000E94880F82E00C943514089521E030E0D6
:1028D00001C0220F8A95EAF78091E103822B0C94C4
:1028E0001A149091A10292FD10C098E0899F900166
:1028F0001124622B6093C1010E9466140E94F605A8
:102900009093C0018093BF0108950C946614809346
:10291000CD010C94FF131092A202E8E7F1E086E0EB
:10292000DF011D928A95E9F70C94FF131F93CF9353
:10293000DF93CDB7DEB7AA970FB6F894DEBF0FBE10
:10294000CDBF83ED93E02091F100DC012D93CD010B
:10295000B3E08B3D9B07B9F78091D403833009F432
:1029600072C0B8F4813009F449C0823009F4B3C0B0
:102970008091E80083FF9CC28091D3039091D4039F
:102980009A3008F095C2E92FF0E0EE50FA4C0C9422
:1029900050358A3009F48EC08B3009F471C089300B
:1029A00039F78091D303813219F78091D703909141
:1029B000D803009711F00297D9F68091E800877F3D
:1029C0008093E8008091E80082FF38C09091F30086
:1029D0008091F200029731F48091F100813011F082
:1029E000863021F48091F1008093C6038091E80045
:1029F0008B778093E8000E94C704BACF8091D303FD
:102A0000813A09F0B5CF8091E800877F8093E80094
:102A10008091D7039091D803892B61F468E087EC0B
:102A200093E070E00E9479058091E8008B778093B5
:102A3000E8009ECF60E090E080E0F3CF8091D1038A
:102A40008111C0CF95CF8091D303813A09F090CF07
:102A50008091D7039091D803892B09F089CF809179
:102A6000E800877F8093E8008091E80080FFFCCF3A
:102A700080911E018093F1008091E8008E77B9CF9C
:102A80008091D303813209F073CF8091D703909165
:102A9000D803892B09F06CCF8091E800877F809361
:102AA000E8000E94C7048091D50380931E010E9414
:102AB0008B145ECF8091D303813209F059CF80917E
:102AC000E800877F8093E8000E94C7048091D603C6
:102AD0008093C5034DCF8091D303813A09F048CF4D
:102AE0008091E800877F8093E8008091E80080FF74
:102AF000FCCF8091C503BECF803899F0823809F0B1
:102B0000D7C18091D7038F70873008F0D1C18093EF
:102B1000E9008091EB0085FB882780F91092E9009D
:102B200006C08091CF039091D00391118260909163
:102B3000E800977F9093E8008093F1001092F100F5
:102B40008091E8008E77B0C1882309F49EC182305D
:102B500009F0AEC18091D5038111A1C18091D70345
:102B60008F702FEF280F263008F0A2C18093E90064
:102B70002091EB0020FF93C1933031F48091EB0062
:102B800080628093EB008BC19091EB0090619093F9
:102B9000EB0021E030E001C0220F8A95EAF7209394
:102BA000EA001092EA008091EB008860EACF811180
:102BB0007FC11091D5031F778091E3008078812B2E
:102BC0008093E3008091E800877F8093E8000E9473
:102BD000C7048091E80080FFFCCF8091E30080680B
:102BE0008093E30082E0111183E08093D10360C100
:102BF0008058823008F05CC12091D5033091D60313
:102C00002C3DE3E03E07A1F583E08A838AE28983D5
:102C10004FB7F894DE01139620E03EE051E2E32F37
:102C2000F0E050935700E49120FF03C0E295EF706D
:102C30003F5FEF708E2F90E0EA30C0F0C7968D9323
:102C40009D932F5F243159F74FBF8091E800877F14
:102C50008093E8006AE270E0CE0101960E94790557
:102C60008091E8008B778093E80022C1C096E7CF7F
:102C70008091D7039091D803432F552743305105B6
:102C800009F44AC078F54130510509F485C08BE755
:102C900090E0E8EEF5E04230510509F009C12091DD
:102CA000E800277F2093E8002091D9033091DA03D0
:102CB0008217930708F49C0140E02115310509F0C3
:102CC00070C041116EC08091E80082FDC9CF809133
:102CD000D103882329F2853019F28091E80083FF1F
:102CE000F2CFBECF4132510509F447C042325105FF
:102CF00009F0DEC08430910508F0DAC0FC01EE0F67
:102D0000FF1FEC59FE4F0190F081E02D805A9E4F3D
:102D1000DC018C9190E01DC0332721303105E9F0B2
:102D20002115310579F022303105F9F023303105D4
:102D300009F0BEC0E5E7F6E0E4918E2F90E0E5E70C
:102D4000F6E007C0E5ECF6E0E4918E2F90E0E5ECCC
:102D5000F6E0009709F4ACC0A2CFE3EBF6E0E49113
:102D60008E2F90E0E3EBF6E0F4CFE3E9F6E0E491B8
:102D70008E2F90E0E3E9F6E0ECCF8430910508F087
:102D800097C0880F991FFC01E459FE4F0190F08114
:102D9000E02D89E090E083CF82E190E0E3E6F6E089
:102DA0007ECF8091D103882309F45ACF853009F46E
:102DB00057CF8091E80083FD53CF8091E80082FDDA
:102DC00082CF8091E80080FF78CF9091F3008091CE
:102DD000F2002115310519F08830910550F041E0DD
:102DE000089709F040E08091E8008E778093E80032
:102DF00064CF44914093F1003196215031090196FE
:102E0000E8CF803809F054C08091E800877F809334
:102E1000E8008091D2038093F10092CE811148C0E6
:102E20001091D503123008F043C08091E800877FED
:102E30008093E8001093D2030E94C704112311F07D
:102E400084E005C08091E30087FDFACF81E08093A4
:102E5000D10342E061EC81E00E94E60442E261ECD1
:102E600084E00E94E60442E261EC82E00E94E60413
:102E700042E260EC83E00E94E60442E261EC85E01D
:102E80000E94E6048091D10313C08091D503813064
:102E900079F481E0933009F080E08093D0031092C0
:102EA000E9008091E800877F8093E8000E94C704D2
:102EB0008091E80083FF0AC08091E800877F8093BB
:102EC000E8008091EB0080628093EB00AA960FB639
:102ED000F894DEBF0FBECDBFDF91CF911F91089553
:102EE000EAEDF2E0128E138E8FEA90E091838083F8
:102EF00025E0248F88E893E1938382838AE090E041
:102F00009583848344E150E05783468368E070E012
:102F100071876087938782874EE150E055874487A9
:102F20009787868740E550E0518B408B738B628B8F
:102F300068E270E0758B648B62E370E0778B668B80
:102F400068EC70E0718F608F158E978F868F51A31C
:102F500040A322A30E94290F0E948B141092A10269
:102F60001092A00290E080E00E94880F0C942B0E3B
:102F7000CF92DF92EF92FF920F931F93CF93DF9345
:102F8000CDB7DEB764970FB6F894DEBF0FBECDBFE6
:102F9000C0901101D090120181E090E09093120155
:102FA00080931101E6EDF4E005911491612F87E221
:102FB00090E00E94B435602F88E290E00E94B43522
:102FC0000E9470171A8219821C821B821E821D8227
:102FD00018861F8288EC90E09A8789870DE410E0BC
:102FE0004AE050E0B801CE0101960E94D835065F54
:102FF0001F4F0D391105A1F77E018BE0E80EF11C82
:103000008AE0F70111928A95E9F78FEF9FEF988B8D
:103010008F8787E08C8B4AE050E0B801C7010E949F
:10302000D835065F1F4F0D3E1105A9F7D09212014A
:10303000C092110164960FB6F894DEBF0FBECDBFEB
:10304000DF91CF911F910F91FF90EF90DF90CF9084
:10305000089580E00E94700F60E086E290E00E9498
:10306000B4350E94B8170E94600F81E00C94700F75
:1030700069EE7EEF90E080E00E94D23560E082E071
:1030800090E00E94B43560E083E090E00E94B435A7
:103090001092CD0160E084E090E00E94B43560E0E1
:1030A00082E290E00E94B43560E085E090E00E940A
:1030B000B43560E086E090E00E94B4356FEF87E0C1
:1030C00090E00E94B43540E050E0BA0188E090E022
:1030D0000E94C63560E08DE090E00E94B43540E08B
:1030E00050E0BA0188E190E00E94C63560E087E1D7
:1030F00090E00E94B43540E050E0BA018CE190E0ED
:103100000E94C63570E060E080E290E00E94D23517
:1031100040E050E0BA0188E190E00E94C63580E0CE
:103120000E94700F0E94291840E050E0BA018FE021
:1031300090E00E94C63540E050E0BA0183E190E0A3
:103140000C94C635CF92DF92EF92FF928FEF9FEFF4
:103150004430510508F46AC0FB01C080D180E28090
:10316000F3800E948B148091A002C0FA80F9B7010D
:10317000A601769567955795479540FB81F9B7016C
:10318000A60122E076956795579547952A95D1F740
:1031900040FB82F9B701A60133E076956795579514
:1031A00047953A95D1F740FB83F9B701A601E4E0D2
:1031B0007695679557954795EA95D1F740FB84F941
:1031C000B701A601F5E07695679557954795FA956D
:1031D000D1F740FB85F9B701A601A6E07695679582
:1031E00057954795AA95D1F740FB86F9B701A601F7
:1031F000B7E07695679557954795BA95D1F740FB17
:1032000087F98093A0028091A102D0FA80F9D1FAC7
:10321000CC24C0F8C0FA81F98093A1028091A00269
:103220009091A1020E94880F90E080E0FF90EF90C3
:10323000DF90CF900895882321F00E94810B0C9499
:1032400024130895882339F09091DB03982B9093F1
:10325000DB030C9424130895882321F00E94880B2B
:103260000C9424130895882321F00E948F0B0C9452
:1032700024130895882309F452C0823871F40E94FF
:103280002E0681FF4CC089E30E94C90B0E942413C3
:1032900089E30E94BC0B0C942413833859F40E94D8
:1032A0002E0680FF3CC083E50E94C90B0E942413B8
:1032B00083E5EFCF843859F40E942E0682FF2FC099
:1032C00087E40E94C90B0E94241387E4E2CF9CEF9D
:1032D000980F913AF0F290E2980F983050F487707E
:1032E00091E001C0990F8A95EAF7892F0E94880B17
:1032F000D2CF9BE5980F933020F490E080E00C94BF
:10330000180698E5980F973120F490E080E00C942F
:103310000206803F20F00E9414080C94E3110895E7
:10332000FF920F931F93CF93DF93F82E0091D80253
:103330001091D9020115110509F449C01092D70264
:103340001092D6021092D3021092D402D80116968F
:10335000CD91DC919E013A9521153F4108F4D07E34
:10336000D1E0C11101C0D0E0D8011996ED91FC91D6
:103370001A97309731F01B966D917C9180E00995FA
:10338000D823DD2339F08CEF8C0F813A38F58C2F60
:103390000E94BC0BFF2099F0E091D802F091D90275
:1033A000808584FD0CC08091D502882341F0808106
:1033B00091819C0121503109253A3D45A8F00E9498
:1033C00024131092D9021092D8021092D502C8018B
:1033D000DF91CF911F910F91FF9008950E942413C8
:1033E0008C2F0E943A19D6CF0E943A06E8CFCF938D
:1033F000DF93EC010E943A19CE010E949F0C9E01BE
:10340000205E31092830310510F0CD2B21F4DF91F9
:10341000CF910C942C19DF91CF910C941B19CF9361
:10342000C82F882309F48CC08238C1F40E942E066C
:1034300081FD86C089E30E94C90B0E9424132FEFEF
:1034400081EE94E0215080409040E1F700C0000000
:1034500089E30E94BC0BCF910C9424138338A1F410
:103460000E942E0680FD6CC083E50E94C90B0E945D
:1034700024132FEF81EE94E0215080409040E1F73B
:1034800000C0000083E5E5CF8438A1F40E942E0639
:1034900082FD56C087E40E94C90B0E9424132FEFBF
:1034A00081EE94E0215080409040E1F700C00000A0
:1034B00087E4CFCF8CEF8C0F813A68F4E8E7F1E036
:1034C0008191C817B9F121E0EE37F207C9F78C2FC7
:1034D0000E94C90BC0CF80E28C0F883048F4C770BF
:1034E00081E001C0880FCA95EAF70E948F0BB3CF25
:1034F000EBE5EC0FE33040F4F0E0E95DFE4F808156
:1035000090E0CF910C941806E8E5EC0FE73150F409
:10351000F0E0EE0FFF1FE65DFE4F80819181CF91BD
:103520000C940206C03F60F08C2F0E942F09CF91AF
:103530000C94E3118C2F0E94BC0B0E942413C7CF64
:10354000CF9108951F93CF93DF93182FC091FA0264
:10355000D091FB02893321F0C091F802D091F90299
:10356000812F0E940F1A209731F4812FDF91CF9184
:103570001F910C943A198FE99FE00197F1F700C071
:1035800000002197F0CF0F931F93CF93DF93C42FA9
:10359000D22FFC0182818823A1F0409300030E9476
:1035A000F6059093FF028093FE02C77081E001C090
:1035B000880FCA95EAF7DF91CF911F910F910C9474
:1035C000331910910003141339C08091FE029091B9
:1035D000FF020E94DB052091F2023091F302821774
:1035E000930760F5C0E2CD0F1D17B9F080E2810F9F
:1035F000883040F4177081E001C0880F1A95EAF70F
:103600000E942C19C83048F481E09D2F977001C0AA
:10361000880F9A95EAF70E943319802F0E94A21A08
:10362000C83098F4D77081E001C0880FDA95EAF7C6
:10363000DF91CF911F910F910C942C19C77081E0ED
:1036400001C0880FCA95EAF7F3CFDF91CF911F91A0
:103650000F910895AF92BF92CF92DF92EF92FF92B7
:103660000F931F93CF93DF93EC018AE0A82E28815C
:10367000222309F48CC02130C9F599818A819130C7
:1036800021F422960E94A21A05C0923029F42296B3
:103690000E940F1A2196EBCF933021F422960E94BC
:1036A0003A19F8CF943011F02196F4CF229630E0F9
:1036B00020E0AE014F5F5F4F8053990B8A30910538
:1036C00050F02150310930F38FE99FE00197F1F775
:1036D00000C00000F6CFA29EB001A39E700D112481
:1036E0009C01260F371F8981EA01E3CFE22FF0E02A
:1036F000EF51FE4FB490822F86958695869590E087
:10370000FC01EF52FE4FE4902770F12C022E02C014
:10371000F594E7940A94E2F731E0E322FF24FC01F8
:10372000EF53FE4FC490D12C022E02C0D594C79403
:103730000A94E2F731E0C322DD24FC01EF54FE4F8E
:10374000049110E002C0159507952A95E2F70170E3
:103750001127E114F10419F081EE0E940F1AC1142F
:10376000D10419F086EE0E940F1A8B2D0E94A21A26
:10377000CD2819F086EE0E943A19EF2819F081EE53
:103780000E943A19012B09F485CF8CE27BCFDF919F
:10379000CF911F910F91FF90EF90DF90CF90BF904E
:1037A000AF900895CF93DF93EC010E949F0C9E0190
:1037B000205E31092830310510F0209739F40E943D
:1037C00033198C2FDF91CF910C940F1A0E9422197C
:1037D000F8CF662329F02091DB0322602093DB03DE
:1037E0009C013056211540E2340720F0305E21154F
:1037F000304108F499270C94D21BDF92EF92FF928C
:103800000F931F93CF93DF937C018B01D42E809174
:103810001D0182FF8CC0C091C502D091C602CE1599
:10382000DF0521F0E114F10409F081C080911D0150
:103830008B7F80931D0181FD73C08091C3029091A5
:10384000C402A801481B590B81E020911B01309153
:103850001C014217530708F480E08170F82E809114
:103860001D01F0FA81F980931D01FE0183E0F695B8
:10387000E7958A95E1F7EE71FF27ED55FD4F208121
:103880003181AE014F70552781E090E002C0880F72
:10389000991F4A95E2F7FF2009F444C0822B932B2D
:1038A000918380838091A20281FF08C080911D01D5
:1038B000806180931D0182E00E94880B8091A202AA
:1038C00085FF08C080911D01806280931D0180E208
:1038D0000E94880B6F2DCE010E94E91BDD2031F084
:1038E0008091F50285FF02C086FF3BC08091F802FF
:1038F0009091F9020E94D60D8091C5029091C60266
:103900009C013056211540E2340720F0305E21152D
:10391000304108F499270E94F7190E94E1131DC055
:1039200081E09BCF8095909582239323B9CFC701E7
:10393000992797013056211540E2340728F0305E70
:103940002115304108F0C7010E94F7198091C50286
:103950009091C6028E159F0501F31093C402009347
:10396000C302DF91CF911F910F91FF90EF90DF90F5
:1039700008952F923F924F925F926F927F928F9213
:103980009F92AF92BF92CF92DF92EF92FF920F93EE
:103990001F93CF93DF9300D000D000D00F92CDB70C
:1039A000DEB77C01DC0113964D915C911497119662
:1039B0006C9111978C910E94020C8111CBC061E037
:1039C000C7010E94E30E8C01F7018281811161C061
:1039D000D70112968C9181119BC00031BFE51B0766
:1039E00009F473C10131EFE51E0709F472C16801E2
:1039F000E7E5DE1AFFEFCF16D10409F060F567E0C6
:103A000072E08C2D0E94950F892B29F586E18C9D03
:103A1000F0018D9DF00D1124ED5FFC4F868181300A
:103A200009F059C18091070290910802892B99F001
:103A30008091090290910A02892B69F080910B0212
:103A400090910C0220910D0230910E02822B932B4B
:103A5000892B09F44AC1F7015280552009F457C156
:103A60000F35FDE51F0709F44EC100362DE512079D
:103A700051F00E353DE5130709F049C18091000171
:103A8000882309F440C11092000180E00E9490193F
:103A900051C080910E0190910F01019609F498CFC9
:103AA000E3E0CE2EE3E0DE2EB12CA12C99249394FA
:103AB00080910E0190910F018A159B050CF488CF1F
:103AC000F60186818823E9F0818592850817190718
:103AD00039F480910103909102030817190789F0C6
:103AE000D6011F969C921F971C961C930E931B97B2
:103AF000C6010E94C013C60106960E947B13109255
:103B0000DB03BFEFAB1ABB0AE6E1CE0ED11CD0CF70
:103B1000C80182519F45409710F00C944F268FEFBB
:103B200093E00E94A0357EEED72ED00E0DEE10E071
:103B30008823A9F18091C101877061F0D7011296A5
:103B40008C91882339F08091A10282FD03C082E02C
:103B50000E94351427960FB6F894DEBF0FBECDBF76
:103B6000DF91CF911F910F91FF90EF90DF90CF9059
:103B7000BF90AF909F908F907F906F905F904F908D
:103B80003F902F9008950115F4E01F0799F2C801A6
:103B90000E94A035811101C0DA940F5F1F4FD11030
:103BA000F2CF19821A821B821C8299249A9468018E
:103BB0002FEFC21AD20AC8010E94A03589831A8247
:103BC000882309F4B7CF813009F073C0580132E07F
:103BD000A30EB11CC6010E94A035C82E8A8388237B
:103BE00009F4A8CFC5010E94A035D82E8FEF8C0D07
:103BF000833068F4580143E0A40EB11CDB82DD2061
:103C000021F0CE0101960E942A1B8501D0CF8BEFB7
:103C10008C0D833030F5C8010396DB825C01DD201A
:103C2000A1F3580154E0A50EB11C0E94A0358C836D
:103C3000882359F38B819C818130AFEF9A0710F074
:103C4000982F8827B6E0CB1631F0E7E0CE1631F09A
:103C50000E940C2BDACF0E94DC2AD7CF0E94562A72
:103C6000D4CFF4E0CF12D1CF580124E0A20EB11C82
:103C7000C80103960E94A035DD2009F45BCF88239C
:103C800009F458CF8150990B989E9001999E300D60
:103C900011244D2D4150550BCA01820F931F0197DE
:103CA00008F4B3CFAFE9BFE01197F1F700C000000F
:103CB000F6CFCE0101960E942A1B5601A6CF81E0C5
:103CC0000E9466140E941E1435CF81E00E942914C0
:103CD000F9CF82E0FBCF823009F0BDCE80910B029C
:103CE00090910C02892B09F4B6CE26E12C9DC001DF
:103CF0002D9D900D11248D5F9C4FDC0150961C92E0
:103D00000E94C013A8CE81E08093000113CF809160
:103D10000001882309F4EBC6480140EE841A91089B
:103D20004090CC018091BE01482A8091A202482A8D
:103D300058E08516910408F086C098012770332753
:103D400081E090E001C0880F2A95EAF7552009F438
:103D500077C0482AD7018D919C910E94170C21E0D1
:103D600030E0390102C0660C771C8A95E2F7E091D9
:103D7000D802F091D902FF83EE8320907E0130902B
:103D80007F011D822D81E22FF0E0EE0FFF1FEE5E1E
:103D9000FD4FC080D180C114D10409F46BC741101C
:103DA00005C0D60112968C91811187C0F6018381DE
:103DB00090E086219721892B09F47FC08085982F78
:103DC000977009F487E0F8E08F16910408F055C069
:103DD000552009F44EC086958170882309F46DC082
:103DE000D601AD90BC900A151B0519F4552009F4B5
:103DF00064C0EE81FF81CE16DF0609F45EC0D601F5
:103E00001D96ED91FC91309721F08081882309F473
:103E100054C0642DC6010E948B06882309F44DC04E
:103E20000A151B0509F0B7C70115110509F4B8C734
:103E30005110B8C7A214B30409F03FC0512CB2C747
:103E40008095482287CF552009F4FDC610937F0145
:103E500000937E010E94EA056093CF027093D00226
:103E60008093D1029093D2021092D7021092D60280
:103E700071CF82FB882780F9B0CF5520F1F0817097
:103E8000ACCF0E943A19ADC70497813A910548F426
:103E90008A2D0E94C90B552009F429C60E942413BB
:103EA00049CE0E9424138FE39CE90197F1F700C0EB
:103EB00000008A2D0E940F1AEECF9D819F5F9D8387
:103EC00061CFFC01208131810217130709F008C678
:103ED000511008C61092D50280E0DEC6882309F48E
:103EE00055C6FA018189882309F450C6C501875F48
:103EF0009C4F0E947B134AC680911D018160809374
:103F00001D0172C680911D018E7F80931D010E944C
:103F1000E1136AC680911D018F7E013E110531F0CB
:103F2000053E1105C9F480911D018F7D80931D010F
:103F300080911D0180FF67C6D70112968C910832CF
:103F4000110528F50E31110508F074C00430110573
:103F500080F5811154C657C6C8019056811540E2BC
:103F6000940720F0905E8115904110F780911D011B
:103F700082FF49C68091F70281FD45C62CED31E0F4
:103F800040E0B60190E080E00E94FD1B3CC6093392
:103F9000110558F40D32110518F40B321105C9F64C
:103FA0009091F50292FDD5CF08C004361105C1F3FA
:103FB000D0CF9091F50294FDCCCF882309F4A1C015
:103FC0009091A2028091CC01282F292B322F3D7F86
:103FD000B1F11092C6021092C5023091F50231FD86
:103FE0002EC0F80143E0F695E7954A95E1F7EE71AA
:103FF000FF27ED55FD4F98012F70332781E090E0AA
:1040000002C0880F991F2A95E2F78095909520812C
:104010003181822393239183808360E0C8010E94D1
:10402000E91B8091CC018D7F0E946D0B82E00E9484
:10403000351480CD9091F50293FD8BCFBECF36E045
:10404000F701ACEDB1E001900D923A95E1F71092D5
:10405000DE011092E0011092DF01A090C502B09045
:10406000C6020A151B05B1F53091F50235FF32C0C5
:1040700040911D0141FB992490F841FF02C036FF99
:1040800029C04091C3025091C402B601641B750B54
:104090004091F2025091F30264177507D8F491FF32
:1040A00008C080911D01806180931D0182E00E9403
:1040B000880B8091A20285FF08C080911D0180625B
:1040C00080931D0180E20E94880B692DC5010E942A
:1040D000E91B30CD90911D0121FB91F990931D01B9
:1040E0008D7F0E946D0B1093C6020093C502D09283
:1040F000C402C092C30280911D01846080931D019F
:1041000095CF970140E0B601C8010E94FD1B12CD7A
:10411000053F4CE5140709F462C008F45AC0063F95
:104120008CE5180709F461C0D70112963C9133233E
:1041300009F4C4C5109200030330BDE51B0708F065
:1041400060C00A3FECE51E0730F4C80182509C4570
:10415000449708F060C00E94050F9093A1028093DD
:10416000A00201313CE5130709F446C108F0C3C0C1
:1041700009305CE5150709F42DC108F090C0053041
:104180009CE5190709F41EC108F076C00330BCE5B0
:104190001B0709F40DC108F011C18091A0028160D4
:1041A00002301C4509F407C18091A0029091A10240
:1041B0000E94880F0E948B14BDCC07E225EE45EECD
:1041C00068ED7CE53BC506E221EE40EE63EF7CE561
:1041D00035C507E225EE44EE64EF7CE52FC506E227
:1041E00021EE42EE65EF7CE529C507E225EE46EEBD
:1041F00066EF7CE523C508E221E045EE69ED7CE54C
:104200001DC50136FDE51F0709F4A5CF053A2DE5CB
:10421000120709F4A0CF06318CE5180709F0AEC1EA
:104220008091A202982F9A7A2091F40220FF04C074
:10423000482F447409F090E021FF04C0482F4171D9
:1042400009F090E022FF04C0482F487809F090E080
:1042500023FF03C0827209F090E0332309F4F6C013
:1042600081E0911101C080E08093800189E2911189
:1042700085E30E94C90B12CE8091A00280620730B4
:104280002CE5120709F497C08091A00280610830E4
:104290001C4508F490C08091A00280648CC080917D
:1042A000A0028B7F0D304CE5140709F484C080F424
:1042B0000B308CE5180709F493C08091A0028C6044
:1042C0000C301C4508F477C08091A0028D7F73C02C
:1042D0008091A0028F7E0F30ACE51A0709F46BC005
:1042E0008091A002877F00311C4508F464C0809152
:1042F000A0028F7D60C00D3FECE51E0709F478C079
:1043000050F505312CE5120709F480C098F480912E
:10431000A002837F03314CE5140709F44CC008F474
:104320006FC00E948B149091A002892F97FB87F990
:10433000805841C00B3F8CE5180709F447C008F0CE
:1043400053C08091A10281600A3F1C4509F02CCF27
:104350008093A10229CF0130BDE51B0709F462C09B
:10436000B8F48091A1028C7F0F3FFCE51F0781F319
:104370008091A102836001151D4550F38091A10237
:10438000982F909591708E7F892B90FB81F9E0CFCB
:1043900001363DE5130709F44BC0053A4DE5140716
:1043A00009F44DC002301D4509F0FECE60E03BC06F
:1043B0008091A00282608093A002F6CE8091A0023C
:1043C0008460F9CF8091A0028860F5CF8091A1022E
:1043D0008260BECF0E948B148091A0028068EBCFD8
:1043E0008091A0028E7FE7CF8091A1028E7FB0CF17
:1043F0008091A1028D7FACCF8091A0028F7BDBCF1B
:104400000E948B148091A0028F77D5CF8091A0025B
:1044100082FB992790F921E0922790FB82F990FB8B
:1044200083F9C9CF61E08EE090E00E94B435BCCE44
:104430009091A002892F8F7E94FF8061BCCF9091D4
:10444000A002892F8E7F90FF8160B5CF809180017F
:10445000811104C089E20E94BC0B20CD85E3FBCF13
:10446000073C4CE5140709F475C008F46EC0083C1D
:104470009CE5190709F473C04CE051E168E171E172
:10448000093C1C4509F03BC40E94690753CB003D21
:10449000BCE51B07A0F40E3CECE51E0708F04ACB78
:1044A0000C3CFCE51F0709F464C04EE451E16FE5E4
:1044B00071E10D3C1C4540F361E081E034C0063DF4
:1044C0003CE5130738F4013D1C4508F033CB0E944E
:1044D000C51130CB0D351D4509F42CCB10C480918E
:1044E000DC0380FF1BC08E7F8093DC036091DC03C4
:1044F0007091DD038091DE039091DF030E94A6108E
:104500001092FB018FEF90E7A2E081509040A04015
:10451000E1F700C000000E94E00D0CCB81608093A9
:10452000DC0361E086950E94701104CB42EB51E1FF
:104530006BEB71E1A9CF4BEB51E162EB71E1A4CFE1
:104540004CE351E165E471E19FCF45E451E16CE357
:1045500071E19ACF44E251E160E371E195CF40E32C
:1045600051E164E271E190CF48E151E16CE071E129
:104570008BCF4FE551E16EE471E186CF0A35BDE5A1
:104580001B0759F158F40115FCE51F07C9F00E3D52
:104590001C4509F0B4C30E943818CCCA0B353DE560
:1045A0001307E9F00C351D4509F0A9C38091A1025C
:1045B00082FB882780F991E089270E9451149FC3CC
:1045C0000E948B145FEF84E39CE051508040904048
:1045D000E1F700C000000E94B20D81E0EECF80E064
:1045E000ECCFC8010E94170CD82E98C3E02FEF70B3
:1045F000BE2E802F807F19F0B29490EFB922DD207B
:10460000A9F0BB2059F080E2810F883010F08110B2
:1046100007C08B2D0E948F0B0E942413812F5BC03B
:104620008091DB03B82AB092DB03F6CF812F0E9482
:104630003A19BB2009F451C080E2810F883010F094
:10464000811004C08B2D0E94880B03C08B2D0E940B
:10465000810B0E94241341C0F02FFF70BF2E802FCA
:10466000807F803219F0B29480EFB822882029F13F
:1046700021E0821609F4A4C0DD2009F4ADC0CC20ED
:1046800009F47DC020E0D7014C9111965C911197FF
:1046900012966C91129713967C91139714968C91A5
:1046A0000E94BA0E8091F70281FDB8CFF701858193
:1046B00080FFB4CF8F70858362C08091A10282FF9A
:1046C00040C0DD20C1F1BB2029F08B2D0E948F0B53
:1046D0000E94241380E00E940F1A292D2850330BCA
:1046E0002430310510F40E942E06812F902F0E9455
:1046F0006C0C8111CFC11092820110928101AA200D
:10470000A9F08091C10180FD11C0F7011282859549
:10471000859585950E946614C7010E94B91C8091F9
:10472000C1018595859585950E94291460E0C70192
:104730000E94E30E0FCA80E00E943A19BB2069F282
:1047400081CFDD2001F1C11004C08091CC018B2903
:1047500017C031E0C31206C08091CC018B290E94A2
:104760006D0BBBCF8091F602823078F3C812EDCF8B
:104770000E94620B8091BE01B812B092BE018B2DD7
:104780000E943319AACFC11006C00E94620B8B2D64
:104790000E942C19A2CF8091F60241E0C4120BC0F6
:1047A000823008F49ACF8091A2028B2109F495CF30
:1047B0000E94B60BEACF823040F3C812E6CF8DCF0D
:1047C0008091FC02DD2021F08C1508F486CFD7CF34
:1047D000C81608F082CFDBCFCC20C9F2F9E38F12E4
:1047E00051C18091FA029091FB020E94D60D812F57
:1047F0000E943A1972CF802F86958695837069F052
:10480000813009F06ACF812F902F9370D11002C0B0
:1048100090E080E00E94020660CF812F902F93707D
:10482000D11002C090E080E00E94180656CF812F80
:10483000DD2029F00E942F090E94E3114ECF0E9433
:104840001408FACF802F837091F5D11046CF412FF5
:10485000429546954770440F440F812F8F70042E68
:1048600001C0880F0A94EAF7212F207114FF07C0B6
:104870002FE030E001C0220F4A95EAF72095302F53
:10488000369536953370323069F050F44091CD0151
:10489000313029F0822B84230E9487141ECF842B71
:1048A000822BFACF282B8091CD018227F5CF8695D8
:1048B000DD2011F0802F8170882309F40ECF412F65
:1048C000429546954770440F440F812F8F70042EF8
:1048D00001C0880F0A94EAF7212F207114FF07C046
:1048E0002FE030E001C0220F4A95EAF72095302FE3
:1048F000369536953370323069F050F44091E103CB
:10490000313029F0822B84230E941A14E6CE842BA6
:10491000822BFACF282B8091E1038227F5CF202F1D
:104920002F70B22EDD2029F0822F0E946614812F75
:1049300027CF812F0E942C198B2D0E942914CDCEB8
:10494000812F32EF8316B1F1381570F040EF8416E5
:10495000D1F051EF851691F0DD2009F48EC0C11021
:104960005DCE802F8F712AC093EF891651F1A4EF8D
:104970008A12F2CF8091A10282FF2FC0802F8F7107
:10498000DD20D9F21BC08091FC02DD2079F0C81631
:1049900008F0A3CE202F2F7181E090E001C0880F96
:1049A0002A95EAF79091E1038927AECF8C1508F498
:1049B00094CEF0CF802F8F71D110BFCF0E9466149C
:1049C0008CCE80E0DD2009F49FCF81E0902F9F7195
:1049D00001C0880F9A95EAF797CF8091F60282304E
:1049E000A0F18091BE01DD20F1F00E94880B809142
:1049F000C1018770843041F40E94950B802F8F7124
:104A00000E942914A12C69CE8091F602C816D0F715
:104A1000B02FBF71BB2E8B2F0E94661463E08B2DCD
:104A20000E947114EFCF0E948F0B8091F602C8167E
:104A300040F00E94950B0E94B60B64E0802F8F71AE
:104A4000EFCF81E00E943514DDCFDD2059F0E02F5B
:104A5000EF71BE2E8E2F0E94661463E08B2D0E9494
:104A600071143BCE81E00E943514F1E0FC1508F092
:104A700034CE82E00E94351430CECC2041F0893310
:104A800009F4AFCE8091F8029091F902AECE802F5A
:104A90008F7153CFDD2019F0C1102DCE30CEC11053
:104AA0002ACE20E0D7014C9111965C911197129675
:104AB0006C91129713967C91139714968C910E9487
:104AC000BA0E8091F70283FF16CE809181019091FA
:104AD0008201029709F00FCE812F0E94A21A0BCEFD
:104AE000552029F0DC0118968C9185FFF5C9C80185
:104AF00097558F3F910511F008F048C020910E01A5
:104B000030910F012817390724F490930F018093F7
:104B10000E01F701228136E1389F5001399FB00C18
:104B20001124A5014D5F5C4F6A01DA0150962C9368
:104B30005097928116968C911697992309F4CEC9B5
:104B40001A961C930E9319978F5F16968C930E945A
:104B5000F605F601968785878091CC018783809141
:104B6000DB039091A202892B80870190F081E02DD8
:104B7000309741F0D60154966D917C91C501875FC5
:104B80009C4F099510930203009301038091F50255
:104B900080FF39C00E94F6056C01D70112968C91F6
:104BA000882309F4B7C980911D0182FF08C02CED4C
:104BB00031E040E0B60190E080E00E94FD1B0B3147
:104BC000BCE51B0709F498C90C31ECE51E0709F494
:104BD00099C990911D01892F8E7F90FF81600A31C4
:104BE000FCE51F0709F491C9C8019056811520E220
:104BF000920728F0905E8115904108F099C91092B3
:104C0000C6021092C502033FBCE51B0709F4DBCACC
:104C100008F07ECA083DFCE51F0709F4CECA093D2D
:104C20002CE5120709F4E7CA073D3CE5130709F034
:104C30007BCA06E221EE41EE67ED7CE5C7010E94EA
:104C4000C31A0C949A1D80917E0190917F010817E0
:104C5000190781F410927F0110927E011092CF0209
:104C60001092D0021092D1021092D2021092D7026A
:104C70001092D6028091D8029091D902009709F43F
:104C800036CFA8E08A16910408F01BC9642D0E9453
:104C90008B0681112CCF81E00E94901928CF003122
:104CA000FFE51F0711F40C945F1E01312FE5120779
:104CB00011F00C942B1D82E00C94601E06314CE523
:104CC000140709F4ADCA8091A20282720A3C9CE5E5
:104CD000190709F449CC08F0DACB053CBCE51B0701
:104CE00009F42ECC08F0BCCB033CFCE51F0709F40B
:104CF0001DCC08F020CC023C1C4509F4F0CBF70198
:104D0000828100811181882309F46BCCC8010E9443
:104D1000780ED82E682FC8010E94400CB8018D2D46
:104D20000E94500E0E94DA09182F092F882ED701F1
:104D30001296DC9012971596CC90C2943FE0C32255
:104D40008091C1018770C1F0AD2CDD20B1F0892FB9
:104D5000807F803421F080E2810F883068F080917C
:104D6000A10282FD09C082E00E9435148091C10138
:104D70008770AA24A3948111A12C902E92942FE0E5
:104D80009222BBE0B91508F4A8CCE92DF0E0E4507C
:104D9000FA4C0C945035A114B10409F04BC8512CB5
:104DA000B12CA12C80E00E949019D092D902C0921F
:104DB000D80281E08093D502D60115968C9180931C
:104DC000D30251100EC0AB2861F0F60180819181B1
:104DD0009C0124503109213A310508F052C80E9443
:104DE000BC0BD6011696AD90BC90C5019A95811565
:104DF0009F4110F4E0EEBE2277247394C501019721
:104E0000853A9D4508F0712CD6011996ED91FC91DB
:104E10001A97309731F01B966D917C9181E009953E
:104E20007822772079F0F601868197810E949F0C85
:104E30008093D402C501F8E08F16910408F024C8CD
:104E40000E943A060E94241326C8BF92CF92DF9296
:104E5000EF92FF920F931F93CF93DF9380918B017B
:104E6000807F61F480918801882341F0C091BD0169
:104E700086E0B82E80918C018C130AC0DF91CF910F
:104E80001F910F91FF90EF90DF90CF90BF9008950A
:104E9000F0908601E0908701C0908901D0908A014E
:104EA000A6016E2D8F2D0E94020CD0E081113DC015
:104EB000BC9E8001BD9E100D1124F801E357FE4FEA
:104EC00081818E1132C080818F112FC0828181112A
:104ED0002CC0E380F480EC18FD0860E086E891E0E7
:104EE0000E94E30E8091F2029091F302E816F90617
:104EF000E0F480918B018F70806180938B01F801C9
:104F0000EE56FE4F80818F708061808386E891E04D
:104F10000E94B91CDF91CF911F910F91FF90EF90EC
:104F2000DF90CF90BF900C940D0C2196C770A2CF4C
:104F30003F924F925F926F927F928F929F92AF9229
:104F4000BF92CF92DF92EF92FF920F931F93CF9376
:104F5000DF93CDB7DEB761970FB6F894DEBF0FBE13
:104F6000CDBF8C0185E0F801DE011D9601900D9208
:104F70008A95E1F7D8014C9011965C9011971296A2
:104F8000EC9012971396CD90DC9060E086E891E06B
:104F90000E94E30E86E8A82E81E0B82E8090890159
:104FA00090908A01A40160918701809186010E94FE
:104FB000020C811197C1F0908801F601E819F909F6
:104FC0004F0160E0FF2009F443C1C5010E94E30ED8
:104FD0006090F2027090F30230908B018614970477
:104FE00008F0F8C04091890150918A01B090860183
:104FF000A0908701832D807F6A2D09F0A3C08B2D9F
:105000000E94020CFE2C811131C0D80111968C91A6
:1050100011978A112BC08C918B1128C0E11026C0EA
:10502000832D8F70806180938B0186E891E00E94D0
:10503000B91C80918B01F80185838F2D61960FB685
:10504000F894DEBF0FBECDBFDF91CF911F910F91BE
:10505000FF90EF90DF90CF90BF90AF909F908F9098
:105060007F906F905F904F903F900895F4EF6F1690
:10507000F1E07F0620F48091F70280FF21C0A601B5
:10508000652D842D0E94020C811118C081E08E25AF
:1050900080FF16C04E2D652D842D0E94E20B8823C3
:1050A00079F086E891E00E94B91C86E0E6E8F1E03C
:1050B000DF011D928A95E9F7F12CBFCF80E0E8CFA0
:1050C000A601652D842D0E94020C811124C081E06F
:1050D0008E25B82FB170CB2E80FF2BC04E2D652DA5
:1050E000842D0E94E20BD82E811123C04D865E864E
:1050F0008D859E850E94A70E292F22952F70223024
:1051000060F0243088F49F7061F0F8019581907F01
:1051100041F4FD2C92CF80E0DCCF9F7011F088230A
:10512000C1F3805E8830A8F3C8010E94B91CDC2C52
:10513000F0CFEE2009F481CF80918B0181608093C4
:105140008B01BACF8B2D0E94020C811119C0D8019E
:1051500011968C9111978A1113C08C918B1110C0EC
:10516000E1100EC015963C92C8010E94B91C86E061
:10517000F801A6E8B1E001900D928A95E1F75DCFC4
:10518000C8010E94B30E882309F1EE20F9F0809146
:105190008B01803270F02091860130918701388731
:1051A0002F831986DB86CA868C87CE0107960E94DC
:1051B000B91C86E0F801A6E8B1E001900D928A954D
:1051C000E1F70E942527FF24F39437CFC8010E94FE
:1051D000B91CF9CF832D807F09F463CF90908601AD
:1051E000809087014091890150918A01682D892D15
:1051F0000E94020C811113C0F801818188110FC037
:10520000808189110CC0E1100AC03582C8010E945A
:10521000B91C86E0D5011D928A95E9F70ECFC80129
:105220000E94B30E882391F2EE2081F280918B01CF
:10523000803208F4BECF20918601309187013A83F5
:1052400029831B82DD82CC828E83CE010196AFCF73
:1052500086E891E00E94E30E8091F2029091F302C1
:1052600088169906B0F6FE2CEE2009F4AFCFE09038
:105270008601D09087014091890150918A016D2D5E
:105280008E2D0E94020C81111FC0F80181818D11A9
:105290001BC080818E1118C08091F70282FD67CFFC
:1052A00090918B0190FD63CF907F09F460CF809146
:1052B0008B018583903F09F457CF982F907F905FA3
:1052C0008F70892B858350CFC8010E94B30E811146
:1052D00070CF80918B01816080938B01C8010E9407
:1052E000B91CABCEEE2009F471CFC8010E94B30EF9
:1052F000F82E882309F46ACF86E0F801A6E8B1E029
:1053000001900D928A95E1F7809186019091870135
:105310000E94A70E0E94252790CE1F93CF93DF9364
:10532000CDB7DEB767970FB6F894DEBF0FBECDBF1F
:10533000942F4B8B252F5C8B6D8B7E8B8F8B4E89A7
:105340005F89622F892F0E94020C811109C0809110
:105350008101909182010196909382018093810155
:105360008D8981111092DB031A8A198A85E0FE016A
:105370007396DE011D9601900D928A95E1F780915A
:10538000A10282FD1EC08091DC029091DD02892B7A
:10539000C1F00E94F6052091BF013091C001821B2F
:1053A000930B2091DC023091DD028217930720F0ED
:1053B0008091C10182FF76C00E949C0B81110E94E6
:1053C000620B86E0FE013D96DE01179601900D927C
:1053D0008A95E1F7CE0107960E949827811111C0A6
:1053E00086E0FE013796DE01119601900D928A95B6
:1053F000E1F74A855B8568858F810E94020C8823CE
:1054000089F016E08091BD0190918C01891337C01D
:1054100067960FB6F894DEBF0FBECDBFDF91CF9178
:105420001F91089520918C0130E0C9010196877089
:1054300099274091BD014817190699F096E0929F6F
:10544000D001939FB00D1124A357BE4FFE0131969A
:1054500001900D929A95E1F780938C010E940D0CBA
:10546000D0CF0E948B1410928C011092BD0186E067
:10547000E6E8F1E0DF011D928A95E9F7C2CF819F4E
:10548000C001112483579E4F0E949827882309F456
:10549000BFCF8091BD0190E00196877099278093DE
:1054A000BD01B0CF82E00E94351486CFCF93DF9349
:1054B00000D000D00F92CDB7DEB790939D028093BD
:1054C0009C02811520E2920748F40F900F900F90F4
:1054D0000F900F90DF91CF910C94F7198EEF898385
:1054E0008A831B820E94F6058160782F9D838C83BE
:1054F00049815A816B818D810F900F900F900F9091
:105500000F90DF91CF910C948D290F931F93CF9320
:10551000DF938C01EB0167E072E08C2F0E94950F06
:10552000892BA1F48091F8029091F9020E94D60D86
:10553000DD27C150DE4F8881F80110821882833048
:1055400009F148F4813059F0823081F0DF91CF9138
:105550001F910F9108958430D1F08530B9F7809173
:10556000070290910802009789F306C08091090212
:1055700090910A02009799F3DF91CF911F910F91BB
:105580000C94562A80910B0290910C02F3CF8091DB
:105590000D0290910E02009779F720910702309149
:1055A00008028091090290910A0221153105D9F271
:1055B000009711F7C901E0CFCF93DF9300D000D05F
:1055C0000F92CDB7DEB790939D0280939C02811518
:1055D00020E2920748F40F900F900F900F900F90D9
:1055E000DF91CF910C94D21B8EEF89838A8381E067
:1055F0008B830E94F6058160782F9D838C8349817F
:105600005A816B818D810F900F900F900F900F90AA
:10561000DF91CF910C948D29CF93DF93EC010E9401
:10562000DC2A8091F8029091F9020E94D60DCE01F9
:10563000DF91CF910C94562A0F931F93CF93DF9352
:105640008C01862F67E072E00E94950F892BC9F4C8
:10565000C0910702D0910802209799F0F80180814B
:10566000833069F4CE010E940C2BCE010E940C2BDA
:10567000CE01DF91CF911F910F910C940C2B8430B0
:10568000B8F7DF91CF911F910F9108950F931F935A
:10569000CF93DF938C01EB0167E072E08C2F0E94C7
:1056A000950F892B09F064C0FE01FF27D8018C916A
:1056B000E150FE4F8130D9F419969C9119979923A6
:1056C00011F080830CC01A969C919923D1F382E04B
:1056D00080838091090290910A020097D9F4809109
:1056E000070290910802009709F442C013C082306B
:1056F000E9F519968C91199781112DC01A968C9104
:1057000081110EC083E0808380910B0290910C0286
:10571000009719F1DF91CF911F910F910C94DC2A22
:1057200084E0808380910D0290910E02009791F7A2
:1057300080910702909108020097F9F00E940C2BCB
:105740008091090290910A02009721F78091070247
:1057500090910802DFCF85E08083809107029091CD
:105760000802009729F00E940C2BF0CF86E080837E
:10577000DF91CF911F910F9108958091090290912F
:105780000A02B1CF1F920F920FB60F9211242F93DE
:105790003F934F935F936F937F938F939F93AF93B9
:1057A000BF93CF93DF93EF93FF93D091E900DF7026
:1057B0008091EC00C82FC17080FDC0E81092E90014
:1057C0008091F000877F8093F00078940E94961477
:1057D0001092E9008091F00088608093F000CD2B5A
:1057E000CF70C093E900FF91EF91DF91CF91BF910E
:1057F000AF919F918F917F916F915F914F913F9169
:105800002F910F900FBE0F901F9018951F920F921F
:105810000FB60F9211242F933F934F935F936F9383
:105820007F938F939F93AF93BF93EF93FF93809159
:10583000E10082FF15C08091E20082FF11C08091DB
:10584000E1008B7F8093E1002091C3032F5F822FC3
:1058500062E30E941C35992309F4C0C02093C3035E
:105860008091DA0080FF28C08091D80080FF24C09A
:105870008091DA008E7F8093DA008091D90080FFDA
:10588000E3C080E189BD82E189BD09B400FEFDCF9E
:1058900081E08093D10384ED95E00E94AB03809179
:1058A000C403811109C00E944D040E941805809113
:1058B000E20084608093E2008091E10080FF1BC0E1
:1058C0008091E20080FF17C08091E2008E7F80937C
:1058D000E2008091E20080618093E2008091D80034
:1058E00080628093D80019BC85E08093D1038CED51
:1058F00095E00E94AB038091E10084FF2FC080916E
:10590000E20084FF2BC080E189BD82E189BD89B5B9
:10591000982F917080FFFBCF8091D8008F7D80936E
:10592000D8008091E1008F7E8093E1008091E200B9
:105930008F7E8093E2008091E20081608093E2009C
:105940008091D203882309F489C084E08093D10335
:1059500080EE95E00E94AB038091D1038091E1003D
:1059600083FF2BC08091E20083FF27C08091E1007C
:10597000877F8093E10082E08093D1031092D2036D
:105980008091E1008E7F8093E1008091E2008E7F24
:105990008093E2008091E20080618093E20042E027
:1059A00060E080E00E94E6048091F00088608093CF
:1059B000F00084EE95E00E94AB03FF91EF91BF9160
:1059C000AF919F918F917F916F915F914F913F9197
:1059D0002F910F900FBE0F901F9018951092C30338
:1059E0008091C203882309F43BCF8091D103843096
:1059F000C1F49091E9009F702091EC00822F81709A
:105A000020FD80E8892B95E09093E9009091EB00D0
:105A100090FF04C09091EE0097FD08C08F708093B6
:105A2000E9001092C2031CCF1092F1009091E8009F
:105A300095FDFACF9091E80090FFF0CF9091E800AB
:105A40009E779093E800EACF19BC1092D10388EDBD
:105A500095E00E94AB031092C4032ECF8091E30027
:105A600087FD93E09093D10373CF78941F921FB674
:105A70001F9211248F939F93AF93BF938091BA038A
:105A80009091BB03A091BC03B091BD030196A11DF1
:105A9000B11D8093BA039093BB03A093BC03B09352
:105AA000BD03BF91AF919F918F911F901FBE1F901B
:105AB00018951F921FB61F9211248F939F93AF9337
:105AC000BF938091B903811113C08091BA03909163
:105AD000BB03A091BC03B091BD034196A11DB11DB4
