:100000000C9466030C949E030C949E030C949E0324
:100010000C949E030C949E030C949E030C949E03DC
:100020000C949E030C949E030C94182B0C94D42ACD
:100030000C946B2C0C949E030C949E030C949E03C6
:100040000C949E030C949E030C949E030C949E03AC
:100050000C949E030C94472C0C949E030C949E03CA
:100060000C949E030C949E030C949E030C949E038C
:100070000C949E030C949E030C949E030C949E037C
:100080000C949E030C949E030C949E030C949E036C
:100090000C949E030C949E030C949E030C949E035C
:1000A0000C949E030C949E030C949E030631FF094E
:1000B00074A1010975150026FF00952075088102BD
:1000C0000976150026FF00952075089102C00501EC
:1000D0000902A10185020901A100050919012905EB
:1000E00015002501950575018102950175038101B2
:1000F0000501093009311581257F950275088106B2
:1001000009381581257F950175088106050C0A3887
:10011000021581257F950175088106C0C00501097A
:1001200080A101850319012AB700150126B70095A2
:100130000175108100C0050C0901A1018504190198
:100140002AA002150126A002950175108100C006A3
:1001500060FF0961A1010962150026FF0095207565
:100160000881020963150026FF0095207508910299
:10017000C005010906A101050719E029E7150025B9
:10018000019508750181029501750881010507191E
:100190000029FF150026FF00950675088100050857
:1001A00019012905950575019102950175039101C4
:1001B000C00A00253464005B735D000A00253038F6
:1001C00062003A200025303258000A722F63203036
:1001D000313233343536370A00643214FD377A58F9
:1001E0005A000004E6D6B4460200210116000000C1
:1001F000742FE5A3E000FE00BE5D003D8889C65473
:1002000036C3174FE4F3759B85931F9162B1626605
:10021000F4D45D5D3F2CBBEAFAA219371A20B3B9BA
:100220009DF82DEF93C9550355AEF456C9A73AF47E
:1002300078DEE75DD21875C809D6AE7E5F0A6449DC
:10024000BAF7C377A4E2FFD0EF43DAAB16F0B0DA27
:1002500067E2331CE11C0505706A57EF0DDAD7150C
:10026000EC1A8CDFFC9E19AF9DF79C05B61BBD5D9B
:100270002F8EE429F85724079169B32F3C54DCAD45
:100280008F74873DC0A01F813182DD6DA09EB8466E
:10029000CAF2B43A2CB053A20EE2EDD8735A2F969C
:1002A000A2AA0B4E3A0B4EC39188E6D1996DB25675
:1002B000F5C2918943F02CD200000000FCFE567577
:1002C000953D1D100001DA01FF010000E2AE5792DA
:1002D000B1C467FB020000000004595A290A002536
:1002E00075002F002575005D28002564002000257D
:1002F0006400200025640020002564007C00253077
:100300003258006D6F7573656B6579205B62746E32
:100310007C782079207620685D287265702F616373
:100320006C293A205B00000101010101010101017A
:100330000202020202020202020303030303030396
:100340000304040404040404050505050506060663
:100350000606070707070708080808090909090A20
:100360000A0A0B0B0B0C0C0C0D0D0D0E0E0E0F0FC5
:100370000F10101111111212131314141515161653
:100380001717181819191A1A1B1B1C1D1D1E1E1FC2
:100390002020212222232424252626272829292A11
:1003A0002B2C2D2D2E2F3031323233343536373839
:1003B000393A3B3C3D3E3F40414243444546474835
:1003C000494A4C4D4E4F50515354555658595A5B0B
:1003D0005D5E5F616264656668696B6C6D6F7072AB
:1003E000737577787A7B7D7E8082838587888A8C17
:1003F0008E8F91939596989A9C9EA0A2A3A5A7A94B
:10040000ABADAFB1B3B5B7BABCBEC0C2C4C6C9CB41
:10041000CDCFD1D4D6D8DBDDDFE2E4E7E9EBEEF0F7
:10042000F3F5F8FAFDFF2800010001009403090F1D
:100430003B0F0000020002009003090F3B0F000079
:10044000030001009503090F3B0F000004000200A8
:100450007A03090F3B0F4607050001009603090FB9
:100460003B0F0000060002007C03090F3B0F000059
:10047000070002009203090F3B0F00000800010073
:100480009703090F3B0F0000090002007E03090FCC
:100490003B0F21070A0002008003090F3B0F2107D1
:1004A0000B0002008203090F3B0F21070C00020022
:1004B0008403090F3B0F21070D0002008603090F7B
:1004C0003B0F21070E0002008803090F3B0F210795
:1004D0000F0002008A03090F3B0F210710000200E2
:1004E0008C03090F3B0F2107110002008E03090F37
:1004F0003B0F2107120002009803090F3B0F000079
:10050000130002009A03090F3B0F000014000100C2
:100510009C03090F3B0F0000150000000000A70618
:100520009C1700005B435D005B445D005B535D0016
:100530005B575D005B525D0009027B00040100A077
:10054000FA09040000010301010009211101000161
:10055000224000070581030800010904010002038D
:100560000000000921110100012222000705820379
:100570002000010705030320000109040200010314
:1005800000000009211101000122810007058403F8
:1005900020000109040300020300000009211101E9
:1005A000000122220007058503200001070505033D
:1005B000200001120100020000000869637C6B0149
:1005C00000010203011C037600690061006C003A1F
:1005D00000660036003400630032006200330063BE
:1005E000000000200369007300300054006F0070A9
:1005F00000720065002000280033003200750034CE
:100600000029000000100343006900700075006CB1
:10061000006F0074000000040309040000000000E3
:1006200000000000000000000000000000000000CA
:100630000000000000000000000000000000007E3C
:100640000F00D4FFFFFFC70000007800000000008B
:100650000000002A2B28000000000000000000001D
:1006600000000000000029000000002C1E342021A2
:100670002224342627252E362D3738271E1F2021E9
:1006800022232425263333362E37381F0405060748
:1006900008090A0B0C0D0E0F101112131415161762
:1006A00018191A1B1C1D2F3130232D350405060780
:1006B00008090A0B0C0D0E0F101112131415161742
:1006C00018191A1B1C1D2F3130354C0011241FBE68
:1006D000CFEFDAE0DEBFCDBF04B603FE18C08091D5
:1006E000A4039091A503A091A603B091A70387301E
:1006F000904BA740B04B59F41092A4031092A5035D
:100700001092A6031092A703E0E0F8E3099511E028
:10071000A0E0B1E0E4ECFAE602C005900D92A23749
:10072000B107D9F723E0A2E7B1E001C01D92A43AD6
:10073000B207E1F70E94922C0C943C350C94000017
:10074000FF93EF93E0917201F0917301309709F0FC
:100750000995EF91FF910895FC018591803011F08A
:10076000EFDFFBCF0895FF27E0E230E247FF0CC048
:10077000419597FF09C0EDE2609570958095909541
:10078000611D711D811D911D27FF02C0219530E360
:1007900050E2AA27660F771F881F991FAA1FA41768
:1007A00010F0A41B63955A95A9F7AA3008F0A95F29
:1007B000A05DAF93F395611571058105910541F732
:1007C000ED3211F4EF93F395F21718F43F93F3958C
:1007D000FBCF8F91B5DFFA95E1F70895E991F99193
:1007E0008591803021F0853219F0AADFF9CF089584
:1007F00020E0E89455915532C1F3503311F46894D8
:1008000055915A3348F4505390F3220F022E220F81
:10081000220F200D250FF4CF0EF421958991999187
:10082000533619F3533729F1533559F1BC01882751
:100830009927E8945C3621F48991999168945591AF
:10084000543639F446EF7EF077FF0DC08FEF9FEFFF
:100850000AC055374AE039F0583540E121F05236A8
:1008600042E009F00895FF93EF937DDFEF91FF9150
:10087000B7CFFF93EF93FC0181918030B9F360DF34
:10088000FBCFFF93EF9368DFF1CFDF93CF93CDB72B
:10089000DEB72596A3DFCF91DF910895E8EDF0E074
:1008A00080818E7F80831092E2001092DA00109295
:1008B000E100A0EEB0E08C9181608C9380818F7715
:1008C000808319BCA7EDB0E08C918E7F8C938081E2
:1008D0008F7E80831092620308952091E40030910E
:1008E000E50095E6A9012091EC00822F817020FFA0
:1008F00006C08091E80080FF06C080E00895209146
:10090000E80022FD1AC080916F03882389F08530AA
:1009100089F08091EB0085FD0FC02091E4003091BB
:10092000E50042175307F9F29150E1F684E008958B
:1009300082E0089583E0089581E00895EF92FF92A8
:100940000F931F93CF937C018B010E946D04C82FDE
:10095000811117C08091E80085FD0BC08091E800EF
:100960008E778093E8000E946D04882399F3C82F46
:1009700008C0F70181917F018093F10001501109B6
:1009800049F78C2FCF911F910F91FF90EF90089511
:100990008091710387FF13C08091E80082FF06C039
:1009A0008091E8008B778093E80004C080916F030A
:1009B0008111F2CF089580916F038823D9F380913C
:1009C000E80080FFF8CF8091E8008E77ECCF982F79
:1009D0009093E900242F762F50E0891731F0709121
:1009E000EC002091ED005091F00021FD07C09F5FC9
:1009F000973071F78093E90081E008953091EB0022
:100A00003E7F3093EB003091ED003D7F3093ED0061
:100A10003091EB0031603093EB007093EC00209349
:100A2000ED005093F0002091EE0027FDE0CF80E034
:100A30000895B0E0A0E0EFE1F5E00C947C34C8ED5F
:100A4000D0E088818F7E8883E7EDF0E0808181604F
:100A5000808384E082BF81E08093620388818E7FFF
:100A6000888302EE10E0F80110821092DA0081EE25
:100A7000C82ED12CF601108288818F7788838881D7
:100A80008068888388818F7D888319BC10926F036A
:100A90001092700310926E0310926D0390EEE92E87
:100AA000F12CF70180818B7F80838881816088832E
:100AB00042E060E080E00E94E704F60180818E7FE2
:100AC0008083F80180818160808380818860808359
:100AD000F70180818E7F8083888180618883CDB794
:100AE000DEB7E8E00C949834FC0180917703909194
:100AF000780386179707A0F06115710529F4909186
:100B0000E8009E779093E80090E06115710551F43C
:100B1000911108C08091E80082FF34C080E0089500
:100B2000BC01F2CF80916F038823C1F18530C1F100
:100B30008091E80083FD30C08091E80082FDEACF1B
:100B40008091E80080FFE1CF8091F3002091F200D6
:100B5000382F6115710519F02830310558F091E0F2
:100B60002830310509F090E02091E8002E7720939D
:100B7000E800CBCF81918093F100615071092F5F24
:100B80003F4FE7CF80916F03882341F0853041F0DC
:100B90008091E80083FFBECF81E0089582E0089550
:100BA00083E0089508958091640308959C014FB7F0
:100BB000F8948091580390915903A0915A03B091F1
:100BC0005B034FBF821B930B08952FB7F89460917E
:100BD00058037091590380915A0390915B032FBF82
:100BE00008952FB7F8948091580390915903A091DC
:100BF0005A03B0915B032FBF0895209155033091A4
:100C000056032817390771F09093560380935503C4
:100C1000E0915303F0915403309721F00084F18563
:100C2000E02D099508952091510330915203281722
:100C3000390771F09093520380935103E09153036D
:100C4000F0915403309721F00680F781E02D09954B
:100C50000895E0915303F0915403309729F00190E7
:100C6000F081E02D0995089580E00895CF93DF93FA
:100C7000EC01409141035091420360914303709114
:100C800044032FB7F8948091580390915903A09191
:100C90005A03B0915B032FBF841B950BA60BB70BB8
:100CA000843F9140A105B10518F5809141039091D1
:100CB0004203A0914303B091440380933D0390937A
:100CC0003E03A0933F03B093400384EF91E0A0E084
:100CD000B0E08093390390933A03A0933B03B09321
:100CE0003C03D0934903C0934803DF91CF9108950B
:100CF0000E94E50560933D0370933E0380933F039C
:100D00009093400382E390E0A0E0B0E0E2CFFC01EA
:100D10008481862351F492819923B9F069238085D7
:100D200083FF05C081E061110FC080E00895892F25
:100D30008F7092959F70982B862F8F7062956F7031
:100D4000682B81E09613F1CF089581E0FDCFB0E0EC
:100D5000A0E0EDEAF6E00C947A348FEF9FEF443098
:100D6000510508F469C04091120341FB882780F9BE
:100D700090E0880F991F42FB002700F910E0000F58
:100D8000111F000F111F802B912B40FBCC24C0F8AA
:100D9000D12C8C299D2943FB222720F9C22FE0E08A
:100DA000DE2F53E0CC0FDD1F5A95E1F78C2B9D2BE6
:100DB00044FBAA27A0F9B0E0E4E0AA0FBB1FEA9524
:100DC000E1F78A2B9B2B45FBEE27E0F9F0E0A5E04D
:100DD000EE0FFF1FAA95E1F78E2B9F2B46FB2227D4
:100DE00020F930E0B6E0220F331FBA95E1F7822BED
:100DF000932B47FB222720F930E03695322F22270C
:100E000037952795822B932B20911303322F317026
:100E1000F32EE82EF92A26952170B22EBB0CA82EAF
:100E2000BF28C501BB0CAA0BBB0BFB0180839183C0
:100E3000A283B38390E080E0CDB7DEB7EAE00C9404
:100E40009634EAE7F3E0848195812AE030E0B90145
:100E50000E943D346093180186818093170182853A
:100E60008093160184858093150186859785B90145
:100E70000E943D346093140180898093130182891C
:100E800080931201848980931101089580917A03DF
:100E900090917B0390931A01809319010895E3E1E7
:100EA000F2E090E080E06DE27AE244E55AE222EA84
:100EB00039E2778366835187408733872287958716
:100EC000848701963E968830910599F7089581159B
:100ED0002CE5920741F420910F0130911001232B52
:100EE00011F490E080E00895FA01811101C0FB0146
:100EF00009950895089580919E03982F9E7F29F467
:100F00008170826080939E0308958031E8F3817040
:100F10008E60F8CFAF92BF92DF92EF92FF920F9365
:100F20001F93CF93DF93082F162FE901E42FF0E0F2
:100F3000EA5DFC4F611110C0E4915E2F4E2F498392
:100F4000E8835A83DF91CF911F910F91FF90EF902B
:100F5000DF90BF90AF900895E62EF12C4491D42EEF
:100F6000E42FF0E026E0829FC00111242FEF30E053
:100F7000B9010E943D34802F90E0880F991F55E5FC
:100F8000569FD001579FB00D11248A1B9B0B982FA1
:100F9000990F890F5901AE18BF08AE9ED001AF9EC0
:100FA000B00DBE9EB00D11245B2F189F800111243F
:100FB000012F11275901A01AB10AAE9E8001AF9EE0
:100FC000100DBE9E100D11245901A81AB108AE9C37
:100FD000C001AF9C900DBE9C900D1124892F9927C4
:100FE000281B390B2E9FC0012F9F900D3E9F900D07
:100FF0001124E92F62307105A1F050F461157105DB
:1010000009F49DCF6130710581F0EB2F512F97CFFF
:101010006430710569F080F06630710509F48FCF96
:10102000F4CFE42F4B2F592F8ACFE42F412F87CFB6
:10103000EB2F542F492F83CF4B2F5D2DE12F7FCFE7
:101040009091F201803F59F48091F30187FF0DC028
:101050001092F30191110BC01092EA0108C0813F78
:1010600081F48091F30118169CF3992381F080910B
:10107000F4019091F501892B09F064C01092E80108
:101080000895823F49F497FFF0CF1092F2018091CA
:10109000F3018111ECCFE0CF833F19F41916ACF3C3
:1010A000E4CF2091F401893F29F41216F4F610924E
:1010B000F401DBCF8A3F19F427FFD7CFF8CF209177
:1010C000F5018B3F29F427FFD0CF1092F501CDCF4A
:1010D0008C3F19F41216CCF3C8CF843F31F48091C1
:1010E000F1018E7F8093F101C0CF853F21F4809183
:1010F000F1018D7FF7CF863F21F48091F1018B7F45
:10110000F1CF873F21F48091F101877FEBCF883FBA
:1011100021F48091F1018F7EE5CF8D3F31F48091F4
:10112000E9018E7F8093E901A0CF8E3F21F4809169
:10113000E9018D7FF7CF8F3F09F097CF8091E901CB
:101140008B7FF0CF08958091E90180FF0CC0609102
:10115000120170E075956795759567956115710534
:1011600049F1862F089581FF06C06091120170E059
:1011700075956795F3CF6091120182FD0BC0909138
:10118000E8019923A1F06091110180911201961755
:1011900038F0682F70E06038710500F38FE708952C
:1011A000899FC001112470E00E945134F4CF61E0A6
:1011B00070E0D7CF81E008958091E90160918203CA
:1011C0007091830380FF16C020911601269FC001F5
:1011D000279F900D1124BC017695679576956795AC
:1011E0006038710508F043C06115710509F441C00C
:1011F000862F089581FF0BC020911601269FC00104
:10120000279F900D1124BC0176956795E9CF82FF49
:1012100009C0809116019B01829FB001839F700DD0
:101220001124DECF2091EA012223D1F29091150101
:1012300080911601482F50E0291748F0CB01849F78
:10124000B001859F700D949F700D1124C9CF289F08
:1012500090011124269FA001279F500D369F500D0D
:101260001124692F70E0CA010E943D34B9CF8FE785
:10127000089581E00895803F31F40E94DC08819553
:101280008093F3010895813F19F40E94DC08F8CFA0
:10129000823F31F40E94DC0881958093F201089529
:1012A000833F19F40E94DC08F8CF893F29F40E949B
:1012B000A3088093F40108958A3F21F40E94A308B3
:1012C0008195F7CF8B3F31F40E94A30881958093DD
:1012D000F50108958C3F19F40E94A308F8CF843FCC
:1012E00031F48091F10181608093F1010895853F8F
:1012F00021F48091F1018260F7CF863F21F4809143
:10130000F1018460F1CF873F21F48091F101886081
:10131000EBCF883F21F48091F1018061E5CF8D3FD3
:1013200031F48091E90181608093E90108958E3F55
:1013300021F48091E9018260F7CF8F3FB9F7809166
:10134000E9018460F1CF9091120392FF06C0282F2B
:1013500028712830F9F4877F846093FF06C0282F16
:1013600028712831F1F4877E84612091130320FFD6
:1013700006C0382F38713830D9F4877F816021FF5B
:1013800006C0282F28712831D1F4877E816194FD11
:10139000877E0895282F24712430F9F68B7F88608A
:1013A000DCCF282F2471243101F78B7E8861DDCFBB
:1013B000382F3171313019F78E7F8860E0CF282FB8
:1013C0002171213121F78E7E8861E1CFCF93DF93A8
:1013D000EC0182389105B1F108F040C081339105EC
:1013E00009F49DC048F58932910509F48DC08A97AA
:1013F00009F49CC0C11521E5D20708F0C3C0C1158E
:1014000030E5D30708F01EC1C83ED10508F0A3C0DF
:10141000C03ED10588F5C83AD10508F08EC0C53A5E
:10142000D10508F007C1C130D10531F1209721F174
:10143000C430D10508F545C08533910509F45FC076
:10144000C997C1F680911203837009F043C180915E
:10145000130383FF11C0C9E2D0E00EC0833E9105A3
:1014600099F170F4803E910501F1823E910511F6EB
:101470008091120382FD21C0CE01DF91CF910895AA
:10148000863E910561F1873E910571F1843E91059B
:1014900009F0B0CF8091130381FFEECF809112034A
:1014A000C7EED0E084FD0DC0E7CF8091120380FD30
:1014B00033C09091130390FFDFCFC3EED0E084FFE1
:1014C000DBCFD0E0C0E0D8CF8091120382FDFFC017
:1014D0009091130390FDFEC084FFCECFF2CF809198
:1014E000120383FDDDCFC8CF8091120383FDF5C0C9
:1014F0009091130391FFF0CFC4EED0E0BDCF809167
:10150000120385FFB9CFA7CF8091120385FDE8C0F4
:101510008091130383FFB0CFC9E3D0E0ADCF8091BA
:10152000120386FFA9CFCAE2D0E0A6CF80911203B2
:1015300086FFA2CFC1E3D0E09FCFCF3BD10508F615
:10154000C85AD0E0CC0FDD1FC85DDE4F0990D881AE
:10155000C02DD46491CFC11540E2D40758F4C11511
:1015600081E0D80708F088CFC03FD10508F4A9CFA3
:10157000D06582CFC11520E4D20708F4A2CFDF7076
:10158000D06A7ACFC11535E5D30718F5C11544E502
:10159000D40708F084C0C11583E5D80708F06BC0F4
:1015A000C11522E5D20708F461C0CE0183709927E6
:1015B00021E030E002C0220F331F8A95E2F7C69582
:1015C000C69580E2C89FE0011124C22BD32BDC68B2
:1015D00053CFC11539E5D307A8F4C11548E5D407A1
:1015E00008F062C0C11586E5D80708F06ACF8C2FD5
:1015F0000E94A309C82FD0E0DC2FCC27CC27DF71B5
:10160000D0623ACFC1152AE5D20708F452C0CE0104
:1016100090568115904208F054CF8D2F8F710E9403
:10162000A30990E0982F882788279F719C012C2B75
:10163000E901E6CFC55AD0E0CB5DDE4FC881D0E0EE
:10164000D0641ACFCE018370992721E030E002C028
:10165000220F331F8A95E2F7C695C69540E2C49FD4
:10166000E0011124C22BD32BDD6806CFDC2FCC2761
:10167000C16FD06A01CFCE018370992721E030E09D
:1016800002C0220F331F8A95E2F7C695C69540E245
:10169000C49FE0011124C22BD32BDA68EDCEDC2FDE
:1016A000CC27C46FD06AE8CEDC2FCC27C06FD06ABD
:1016B000E3CE8C2F8F700E94A30934E0D695C79596
:1016C0003A95E1F7CF709C2FEC01D069D5CEC2EEF0
:1016D000D0E0D2CEC0EED0E0CFCEC6EED0E0CCCEC1
:1016E000C5E3D0E0C9CE8091CA01882331F01092C1
:1016F000CA011092C9011092C8010895CF93C82F52
:101700008091130382FF0CC08091CA018C1741F0B5
:101710000E94F1059093C9018093C801C093CA014A
:10172000CF910895809590917903982390937903B0
:10173000089580959091140398239093140308952D
:1017400090911403892B8093140308951092BF0184
:101750001092BE011092BD01089580917C0390917A
:101760007D03892B89F00E94F1052091C8013091F9
:10177000C901AC01421B530B81E020917C033091E5
:101780007D034217530708F480E081700895E6E76F
:10179000F1E09191891303C0DF0111971C9291E050
:1017A000EC37F907B1F70895A6E7B1E0EFEF90E065
:1017B0002D91821751F0EF3F19F4211101C0E92F4B
:1017C0009F5F9630A9F7EF3F09F408950E2E000CA5
:1017D000FF0BEC58FE4F828308952091BC0190913D
:1017E0008B0156E0291302C080E0089530E0529F3B
:1017F000F001539FF00D1124E457FE4F71817613D1
:1018000006C07081781303C07281741304C02F5F07
:101810003F4F2770E7CF81E00895452B39F06823CB
:1018200081E06F3F09F080E08170089581E0FCCF96
:101830008091BC0190918B01981301C008958F5F36
:101840008770FACF892BB1F480918301482F4170C2
:1018500050E0440F551F809182018170842B90913C
:101860008401292F217030E0220F331F220F331FF4
:10187000822B089580E00895892BB1F4E2E8F1E02D
:1018800090E080E070E02191DF011197AB01082E1C
:1018900002C0569547950A94E2F740FB20F92C9335
:1018A00001968330910579F7089592959F7096304F
:1018B00091F058F4925F9F70923058F4803F19F085
:1018C00030F4883E30F481E008959A5FF4CF843F8D
:1018D000D1F380E00895883EB0F3813FD1F7F3CF94
:1018E000829590E09C01220F331F220F331F2C7C26
:1018F00095958795959587958373282B30E0C90139
:10190000880F991F8A7A359527952575822B08951A
:101910009C013A9521153F4150F5FC01EE27F170ED
:10192000BC0166277270AC01442754709C012227C9
:10193000387094FF0EC080E1EF2B09F480E0672B34
:1019400009F08062452B09F08064232B89F08068C0
:10195000089581E0EF2B09F480E0672B09F08260A5
:10196000452B09F08460232B19F08860089580E0EE
:1019700008959FB7F894109260039FBF90916F03F2
:10198000943009F048C02091E9002F703091EC00AC
:10199000932F917030FD90E8922B25E02093E90081
:1019A0002091EB0020FF34C02091EE0027FF30C0D3
:1019B00020915F03222321F02091E80025FF28C019
:1019C00010925F0326E03091E80035FF14C0809349
:1019D000F1008091E80085FD27C08091E80080FF3C
:1019E000FCCF8091E8008E778093E8009F70909301
:1019F000E90080E0089530916F03343049F430916C
:101A0000EB0035FD05C0215041F481E080935F0378
:101A10009F709093E9008FEF0895EFE9FFE0319711
:101A2000F1F700C00000CFCF8FB7F89421E02093EA
:101A300060038FBFDBCF80935C0370935E03609382
:101A40005D0380916F038430F9F48093E9008FEF98
:101A50009091E800815095FD06C095ED9A95F1F7BB
:101A600000008111F5CF8091E80085FF0DC050E0A6
:101A700040E063E070E08CE593E00E949E0480917A
:101A8000E8008E778093E8000895BC0184E00E940E
:101A90001B0D0895BC0183E00E941B0D08959C015D
:101AA00084E08093E9009FEF8091E800915085FDEC
:101AB00006C085ED8A95F1F700009111F5CF809170
:101AC000E80085FF0CC050E040E066E070E0C9012E
:101AD0000E949E048091E8008E778093E80008952C
:101AE000CF93DF93EC0181E08093E9008FEF909139
:101AF000E800815095FD06C095ED9A95F1F700003C
:101B00008111F5CF8091E80085FF14C050E040E0DE
:101B100068E070E0CE010E949E048091E8008E771C
:101B20008093E80088E0FE01A5E6B3E001900D9205
:101B30008A95E1F7DF91CF91089581E08093E000ED
:101B400080E28093D8001092C9008FE19EE4019753
:101B5000F1F700C0000087E090EBDC018093A40364
:101B60009093A503A093A603B093A70388E19CE0FC
:101B70000FB6F894A895809360000FBE9093600014
:101B8000FFCF019708F40895EFE9FFE03197F1F7EF
:101B900000C00000F6CF80919E0380FF27C0849A8A
:101BA00031B33F7E21B320614FB7F8948EEF91E0BF
:101BB000FC015191CF0168E021BB000000C057FF3C
:101BC00031BB550F000000C000C000C031BB00C0D9
:101BD0006A9591F7F2E081309F0751F74FBF8FE58B
:101BE00094E00197F1F700C0000008951092FF0102
:101BF0001092FE0110920002D2CFCF93DF93EC013E
:101C00002EEF31E04091A1036091A0038C810E94EE
:101C10008A070E94CB0D9A818C8190FF05C08F5F4F
:101C20008C83DF91CF9108958150FACF0F931F934A
:101C3000CF93DF930AE713E0C9E2D0E0CE010E9420
:101C4000EC34F80181938F012196CD34D105B1F7A1
:101C5000C2E3D4E0FE0185919491009711F0FC015C
:101C600009952C96F5E0CE32DF07A1F7DF91CF91F1
:101C70001F910F910895CF93DF932091100330911E
:101C80001103232B41F4703F49F480910E0390918E
:101C90000F03603FA9F090E080E012C0762B782B14
:101CA000D1F787E290E00E94EC34C82FD0E0DC2F1F
:101CB000CC2788E290E00E94EC349E01282BC901D9
:101CC000DF91CF910895CF92DF92FF920F931F93F0
:101CD000CF93DF936C010091A3038091CB01082B7C
:101CE000C7E0D0E010E0FC2EC8010C2E02C0959594
:101CF00087950A94E2F780FD0CC02197A0F7F12C9C
:101D00008F2DDF91CF911F910F91FF90DF90CF909A
:101D10000895B6018C2F0E943B0E0E94E6090197A0
:101D200061F3EECFCF93DF93EC010E94630EBE010F
:101D30000E943B0E0E94E609DF91CF910895CF9358
:101D4000DF93EC014B815C81698188810E940D0CDD
:101D5000811109C0888199810E94920E0E94550CC0
:101D6000DF91CF91089580E0FBCFA5E0B0E0EBEBF1
:101D7000FEE00C94813449835A8389819A816623D9
:101D800099F0222389F00E94630E182F682F898111
:101D90009A810E943C0C69817A81812F0E943B0EBE
:101DA0002596E3E00C949D340E94220C182FF3CF6B
:101DB000FC01262F408151816281738184810E94C0
:101DC000B50E089583E290E00E94EC34833989F4E3
:101DD00084E290E00E94EC34873D59F485E290E083
:101DE0000E94EC3491E08D3709F090E0892F8170EA
:101DF000089580E0FCCFCF9384E090E00E94EC3423
:101E0000C82F82E290E00E94EC34982F8C2FCF9163
:101E10000895DB01FC013296259134914217530756
:101E200058F0FC01349665917491A901CD010E948E
:101E3000CC3490E080E008958FEF9FEF08950F93EA
:101E40001F93CF93DF930AE713E0C9E2D0E0CE01FE
:101E50000E94EC34F80161918F01681719F0CE01EE
:101E60000E9400352196CD34D10589F7DF91CF91BD
:101E70001F910F910895DA019C012E5F3F4FF901E8
:101E800045915491F90125913491A217B30758F067
:101E9000FC013496859194910E94CC340E941F0FCE
:101EA00090E080E008958FEF9FEF0895CF93DF9348
:101EB000CDEED0E060E0CE010E9400352196C11544
:101EC00084E0D807B9F7DF91CF910895CF93C82F59
:101ED0006FEF811163E983E290E00E9400356FEFBC
:101EE000C11167ED84E290E00E9400356FEFC111EF
:101EF0006DE785E290E00E940035CF910895CF9381
:101F0000C92F682F84E090E00E9400356C2F82E298
:101F100090E00E940035CF9108959B01883070F4C5
:101F20009AE0899FB0011124635B7F4F4AE050E043
:101F3000C9010E94DC3490E080E008958FEF9FEFAC
:101F40000895AAE0B0E0E7EAFFE00C948234BE0115
:101F50006F5F7F4F0E948D0F892B31F489859A85A1
:101F60002A96E2E00C949E34809192039091930320
:101F7000F7CFAAE0B0E0EFEBFFE00C94783406E98D
:101F800012E084E8C82E82E0D82E9DE9E92EF12CDB
:101F900027E0922E33E8A32E32E0B32E88248394D8
:101FA000D6010D931D936D014AE050E0B701CE01BB
:101FB00001960E94DC34F8013896DF01892D1D92CC
:101FC0008A95E9F789819A81D80111969C938E931D
:101FD0008F8112968C9312978D8113968C93139701
:101FE000888514968C931497898515968C931597EC
:101FF0008B819C8117969C938E93169718961C92B2
:1020000018978A8587FF3BC01E961C921E921D97CB
:1020100080FF03C0D80118968C9281FF04C0F8019C
:1020200090859260908782FF07C0D80118969C9196
:102030001897946018969C9383FF04C0F8019085CC
:102040009860908784FF07C0D80118969C911897D4
:10205000906118969C9385FF04C0F801808580628A
:102060008087015F1F4FFAE0EF0EF11C8DEEE8163E
:10207000F10409F095CF2A96ECE00C949434F80121
:10208000B686A586C5CFCF92DF92EF92FF926B0105
:102090007C010E947B07B701A60188E090E00E94C6
:1020A0001235FF90EF90DF90CF900895A3E0B0E05D
:1020B000ECE5F0E10C947E34182F062FF42EE22E7E
:1020C00080919E0380FF27C0E82FE695F0E0EA5A52
:1020D000FE4F90819093FC018E7F823001F59E012E
:1020E0002F5F3F4F812F0E948A0780919E0380FDC2
:1020F0001BC010939F030093A003F092A103EE2056
:1021000051F060919E0370919F038091A003909184
:10211000A1030E9443102396E6E00C949A34923077
:1021200041F710919F03E5CF8B8199812A812093FC
:10213000FF019093FE01809300020E94CB0DD9CF46
:10214000EEE9F3E0438121E1421B08F440E021E0A5
:10215000628181810E9456100895EEE9F3E0438187
:1021600021E1420F08F44FEF21E0628181810E945A
:1021700056100895EEE9F3E0628121E1621B08F454
:1021800060E021E0438181810E9456100895EEE9CC
:10219000F3E0628121E1620F08F46FEF21E04381F7
:1021A00081810E9456100895EEE9F3E0818121E0DB
:1021B0004381628188500E9456100895EEE9F3E051
:1021C000818121E043816281885F0E9456100895D9
:1021D0008091A203882319F081508093A20360911B
:1021E0009E0370919F038091A0039091A1030E9490
:1021F000431008958091A203833018F48F5F809379
:10220000A20360919E0370919F038091A00390911F
:10221000A1030E944310089590919E0390FF2CC04B
:10222000917081112AC0926090939E03662351F0B1
:1022300060919E0370919F038091A0039091A103F0
:102240000E94431060919E03669570E041E050E06B
:102250008EE091E00E94B234892BB1F01092FD0122
:1022600081E08093F90120E04091A1036091A003F7
:1022700080919F030E9456100895883010F09E6050
:10228000D3CF880F982BD0CF81E08093FD010E949F
:10229000F1059093F7018093F601E2CF80919E03C0
:1022A0008695815009F487E061E00E940C11089541
:1022B00080919E0386958F5F883008F081E061E011
:1022C0000E940C11089580919E0380FF08C086959E
:1022D00082588F77853018F40E945811089561E074
:1022E00082E00E940C110895EEE9F3E083E0808320
:1022F00011828FEF82838383148260817181828156
:1023000093810E94431008958091EB0183FF7EC06A
:1023100083E093E00E94AC038091F1011F928F93C0
:102320008EEF92E09F938F930E9445048CEF92E092
:102330000E94AC038091F201282F082E000C330B71
:102340003F938F9389EF92E09F938F930E94450470
:1023500087EF92E00E94AC038091F301282F082EB2
:10236000000C330B3F938F9384EF92E09F938F93F6
:102370000E94450482EF92E00E94AC038091F40138
:10238000282F082E000C330B3F938F938FEE92E093
:102390009F938F930E9445048DEE92E00E94AC03C0
:1023A0008091F501282F082E000C330B3F938F935B
:1023B0008AEE92E09F938F930E94450487EE92E00D
:1023C0000E94AC038091EA011F928F9384EE92E009
:1023D0009F938F930E94450482EE92E00E94AC038B
:1023E0008091E9011F928F938FED92E09F938F93DD
:1023F0000E9445048CED92E00E94AC038DB79EB71D
:102400004C960FB6F8949EBF0FBE8DBF0E94F1058B
:102410009C019091F2018091F301982B21F030936F
:10242000EF012093EE019091F4018091F501982B3A
:1024300021F03093ED012093EC01E0915303F091F2
:102440005403309749F082E08093F0010480F581D5
:10245000E02D80EF91E009950895CF932F98F8949F
:102460006E9876982F9A86E880937A0080EA809317
:102470007B0080910101816080937C0080917A00D3
:10248000806480937A0080917A0086FDFCCF8091F1
:1024900078009091790020917A002F7720937A002C
:1024A00078946E9A9093CD018093CC012091D701BE
:1024B00020FF0AC04091D3015091D4012E7F841790
:1024C000950750F0C0E00BC04091D5015091D60166
:1024D00048175907B8F721602093D701C1E0209130
:1024E000CE013091CF01A9014F5F5F4F2C323140B7
:1024F00019F15093CF014093CE01CC2391F181E0AB
:102500008093D2010E94F1059093D1018093D00174
:102510008091D0019091D1010E94D605059728F1B4
:102520008091D7019091E701981711F18093E7010D
:1025300081E01092D2011AC01092CF011092CE0108
:102540009F938F9383EB91E09F938F930E94450419
:1025500081EB91E00E94AC030F900F900F900F90D1
:10256000CCCF8091D2018111D3CF80E0CF9108955B
:1025700080E0DFCF8091140390917903892B8093C1
:1025800074018091CA01882309F180917C039091A4
:102590007D03892B29F00E94AD0B81110E94730BE2
:1025A000809174019091CA01892B8093740120E07D
:1025B00086E791E0FC013191CF0131112F5FF1E00D
:1025C0008C379F07B9F721110E94730B8091450347
:1025D000809590917401892390914603892B809373
:1025E000740148E050E060EC71E084E791E00E9403
:1025F000BF34892BA9F088E0E4E7F1E0A0ECB1E07A
:1026000001900D928A95E1F7E0915303F091540304
:10261000309731F00280F381E02D84E791E0099555
:102620000895CF93DF93EC01EA85FB85309719F08D
:102630006C857D8509958B810E94920B8C810E940F
:10264000990B0E94BA1286E0FE0111928A95E9F771
:10265000DF91CF910895CF93DF93EC018D8181FDC0
:1026600015C082608D83809179039B81892B809333
:1026700079038C810E94A00B0E94BA12E885F9852B
:10268000309721F06C857D85CE010995109250031D
:1026900010924F038D8180FD03C0CE010E94111363
:1026A000DF91CF91089580911B01877F80931B015B
:1026B00082E00E94920B80911B0184FF06C08F7EF6
:1026C00080931B0182E00E94A00B80911B0185FF7B
:1026D00006C08F7D80931B0180E20E94A00B0E94A8
:1026E000BA12089590E080E00E94130690E080E026
:1026F0000E94FD05109279030E94BA1286E0E0EF75
:10270000F1E0DF011D928A95E9F71092EA0110923B
:10271000E8011092E9010E94841108958093A303B7
:102720000E94721308958091A303982F967096309B
:1027300021F488600E948E130895877FFBCF21E0EB
:1027400030E001C0220F8A95EAF720958091A3031B
:1027500082230E948E1308959091BF018095892352
:102760008093BF01282F277091F4282F082E000C8A
:10277000330B9217130659F09091130392FF07C081
:102780008595859585950E949F130E94A60B0895B7
:102790009091130392FB222720F9281769F080FB00
:1027A00092F99093130380911203909113030E9466
:1027B0007F0F82E00E94AC13089521E030E001C059
:1027C000220F8A95EAF78091A303822B0E948E1331
:1027D00008959091130392FF10C098E0899F900193
:1027E0001124622B6093BF010E94DD130E94F1054A
:1027F0009093BE018093BD0108950E94DD1308955A
:102800008093CB010E947213089510921403E6E79F
:10281000F1E086E0DF011D928A95E9F70E947213CC
:102820000895AAE2B0E0E7E1F4E10C94813481E795
:1028300093E02091F100DC012D93CD01B3E08937C5
:102840009B07B9F780917203833009F472C0B8F422
:10285000813009F449C0823009F4B3C08091E800A6
:1028600083FF9CC280917103909172039A3008F0AB
:1028700095C2E92FF0E0E25CFA4C0C9465348A30A2
:1028800009F48EC08B3009F471C0893039F780911A
:102890007103813219F78091750390917603009747
:1028A00011F00297D9F68091E800877F8093E800C5
:1028B0008091E80082FF38C09091F3008091F2008F
:1028C000029731F48091F100813011F0863021F4CB
:1028D0008091F100809364038091E8008B7780936E
:1028E000E8000E94C804BACF80917103813A09F0D0
:1028F000B5CF8091E800877F8093E80080917503D1
:1029000090917603892B61F468E085E693E070E0AE
:102910000E9474058091E8008B778093E8009ECF39
:1029200060E090E080E0F3CF80916F038111C0CF31
:1029300095CF80917103813A09F090CF8091750312
:1029400090917603892B09F089CF8091E800877FE9
:102950008093E8008091E80080FFFCCF80911C010B
:102960008093F1008091E8008E77B9CF8091710358
:10297000813209F073CF8091750390917603892B92
:1029800009F06CCF8091E800877F8093E8000E9477
:10299000C8048091730380931C010E9405145ECFCC
:1029A00080917103813209F059CF8091E800877FCF
:1029B0008093E8000E94C8048091740380936303AD
:1029C0004DCF80917103813A09F048CF8091E800A2
:1029D000877F8093E8008091E80080FFFCCF8091A2
:1029E0006303BECF803899F0823809F0D7C1809157
:1029F00075038F70873008F0D1C18093E900809112
:102A0000EB0085FB882780F91092E90006C08091D1
:102A10006D0390916E03911182609091E800977F11
:102A20009093E8008093F1001092F1008091E8000B
:102A30008E77B0C1882309F49EC1823009F0AEC1FF
:102A4000809173038111A1C1809175038F702FEF65
:102A5000280F263008F0A2C18093E9002091EB00F6
:102A600020FF93C1933031F48091EB00806280931A
:102A7000EB008BC19091EB0090619093EB0021E013
:102A800030E001C0220F8A95EAF72093EA00109205
:102A9000EA008091EB008860EACF81117FC110913C
:102AA00073031F778091E3008078812B8093E3008C
:102AB0008091E800877F8093E8000E94C80480919D
:102AC000E80080FFFCCF8091E30080688093E30002
:102AD00082E0111183E080936F0360C180588230DF
:102AE00008F05CC120917303309174032C3DE3E046
:102AF0003E07A1F583E08A838AE289834FB7F89481
:102B0000DE01139620E03EE051E2E32FF0E0509327
:102B10005700E49120FF03C0E295EF703F5FEF7034
:102B20008E2F90E0EA30C0F0C7968D939D932F5F73
:102B3000243159F74FBF8091E800877F8093E800E8
:102B40006AE270E0CE0101960E9474058091E8006F
:102B50008B778093E80022C1C096E7CF8091750300
:102B600090917603432F55274330510509F44AC00D
:102B700078F54130510509F485C08BE790E0E8E332
:102B8000F5E04230510509F009C12091E800277FA6
:102B90002093E80020917703309178038217930700
:102BA00008F49C0140E02115310509F070C0411185
:102BB0006EC08091E80082FDC9CF80916F038823A9
:102BC00029F2853019F28091E80083FFF2CFBECF61
:102BD0004132510509F447C04232510509F0DEC0C7
:102BE0008430910508F0DAC0FC01EE0FFF1FEE59AA
:102BF000FE4F0190F081E02D825A9E4FDC018C91B6
:102C000090E01DC0332721303105E9F02115310551
:102C100079F022303105F9F02330310509F0BEC0DA
:102C2000E5ECF5E0E4918E2F90E0E5ECF5E007C0EF
:102C3000E7E1F6E0E4918E2F90E0E7E1F6E000971F
:102C400009F4ACC0A2CFE5E0F6E0E4918E2F90E06D
:102C5000E5E0F6E0F4CFE3EEF5E0E4918E2F90E0CE
:102C6000E3EEF5E0ECCF8430910508F097C0880FD3
:102C7000991FFC01E659FE4F0190F081E02D89E09B
:102C800090E083CF82E190E0E3EBF5E07ECF8091AE
:102C90006F03882309F45ACF853009F457CF809108
:102CA000E80083FD53CF8091E80082FD82CF8091C0
:102CB000E80080FF78CF9091F3008091F200211519
:102CC000310519F08830910550F041E0089709F07E
:102CD00040E08091E8008E778093E80064CF4491D3
:102CE0004093F1003196215031090196E8CF8038A8
:102CF00009F054C08091E800877F8093E8008091BC
:102D000070038093F10092CE811148C0109173033B
:102D1000123008F043C08091E800877F8093E8007C
:102D2000109370030E94C804112311F084E005C0C1
:102D30008091E30087FDFACF81E080936F0342E04A
:102D400061EC81E00E94E70442E261EC84E00E94D1
:102D5000E70442E261EC82E00E94E70442E260ECB8
:102D600083E00E94E70442E261EC85E00E94E70410
:102D700080916F0313C080917303813079F481E0F7
:102D8000933009F080E080936E031092E900809107
:102D9000E800877F8093E8000E94C8048091E800E3
:102DA00083FF0AC08091E800877F8093E8008091CC
:102DB000EB0080628093EB00AA96E3E00C949D34D4
:102DC000EAE7F3E0128E138E8FEA90E0918380831E
:102DD00025E0248F88E893E1938382838AE090E062
:102DE0009583848344E150E05783468368E070E034
:102DF00071876087938782874EE150E055874487CB
:102E00009787868740E550E0518B408B738B628BB0
:102E100068E270E0758B648B62E370E0778B668BA1
:102E200068EC70E0718F608F158E978F868F51A33D
:102E300040A322A30E941F0F0E94051410921303A7
:102E400010921203E3E1F3E080818460808380913B
:102E50001203909113030E947F0F0E94160E089593
:102E6000A4E1B0E0E6E3F7E10C947C34C0900F01FC
:102E7000D090100181E090E09093100180930F01B9
:102E8000E6E2F4E005911491612F87E290E00E9460
:102E90000035602F88E290E00E9400350E94E01625
:102EA0001A8219821C821B821E821D8218861F8232
:102EB00088EC90E09A8789870DE410E04AE050E0C2
:102EC000B801CE0101960E942435065F1F4F0D39CF
:102ED0001105A1F77E018BE0E80EF11C8AE0F701F5
:102EE00011928A95E9F78FEF9FEF988B8F8787E094
:102EF0008C8B4AE050E0B801C7010E942435065F80
:102F00001F4F0D3E1105A9F7D0921001C0920F017D
:102F10006496E8E00C94983480E00E94660F60E0CC
:102F200086E290E00E9400350E9430170E94560F02
:102F300081E00E94660F0895CF92DF92EF92FF9298
:102F40008FEF9FEF4430510508F46AC0FB01C08049
:102F5000D180E280F3800E94051480911203C0FAB0
:102F600080F9B701A601769567955795479540FB7F
:102F700081F9B701A60122E07695679557954795A7
:102F80002A95D1F740FB82F9B701A60133E0769587
:102F90006795579547953A95D1F740FB83F9B70167
:102FA000A601E4E07695679557954795EA95D1F7A0
:102FB00040FB84F9B701A601F5E076956795579532
:102FC0004795FA95D1F740FB85F9B701A601A6E030
:102FD0007695679557954795AA95D1F740FB86F961
:102FE000B701A601B7E07695679557954795BA95CD
:102FF000D1F740FB87F98093120380911303D0FA35
:1030000080F9D1FACC24C0F8C0FA81F98093130377
:1030100080911203909113030E947F0F90E080E053
:10302000FF90EF90DF90CF9008950E9405142FEF4E
:1030300084E39CE0215080409040E1F700C0000014
:1030400088E19CE00FB6F894A895809360000FBECD
:1030500090936000FFCF882321F00E94920B0E9482
:10306000BA120895882339F090917903982B9093A0
:1030700079030E94BA120895882321F00E94990BC7
:103080000E94BA120895882321F00E94A00B0E948A
:10309000BA120895882309F455C0823879F40E9441
:1030A000290681FF4FC089E30E94D40B0E94BA1207
:1030B00089E30E94C70B0E94BA120895833859F41D
:1030C0000E94290680FF3EC083E50E94D40B0E9427
:1030D000BA1283E5EECF843859F40E94290682FFA4
:1030E00031C087E40E94D40B0E94BA1287E4E1CF7A
:1030F0009CEF980F913AE8F290E2980F983050F4D4
:10310000877091E001C0990F8A95EAF7892F0E9494
:10311000990BD1CF9BE5980F933028F490E080E095
:103120000E941306089598E5980F973128F490E0CF
:1031300080E00E94FD050895803F20F00E94200855
:103140000E9484110895FF920F931F93CF93DF93F2
:10315000F82E00914A0310914B030115110509F453
:1031600049C01092490310924803109245031092EF
:103170004603D8011696CD91DC919E013A95211512
:103180003F4108F4D07ED1E0C11101C0D0E0D801A8
:103190001996ED91FC911A97309731F01B966D912D
:1031A0007C9180E00995D823DD2339F08CEF8C0FDA
:1031B000813A30F58C2F0E94C70BFF2099F0E091E7
:1031C0004A03F0914B03808584FD0CC08091470336
:1031D000882341F0808191819C0121503109203B5D
:1031E0003D45A0F00E94BA1210924B0310924A0380
:1031F00010924703C801CDB7DEB7E5E00C949B34CD
:103200000E94BA128C2F0E944A18D7CF0E9436060D
:10321000E9CFCF93DF93EC010E944A18CE010E94C0
:10322000880C9E01205E31092830310510F0CD2B2D
:1032300029F40E943C18DF91CF9108950E942B1829
:10324000FACFCF93C82F8823C9F08238C9F40E94DF
:10325000290681FD13C089E30E94D40B0E94BA1293
:103260002FEF87EE93E0215080409040E1F700C0BF
:10327000000089E30E94C70B0E94BA12CF91089503
:103280008338A1F40E94290680FDF8CF83E50E94CF
:10329000D40B0E94BA122FEF81EE94E021508040AF
:1032A0009040E1F700C0000083E5E4CF8438A1F44A
:1032B0000E94290682FDE2CF87E40E94D40B0E947F
:1032C000BA122FEF81EE94E0215080409040E1F758
:1032D00000C0000087E4CECF8CEF8C0F813A68F4F9
:1032E000E6E7F1E08191C817C1F121E0EC37F20780
:1032F000C9F78C2F0E94D40BBFCF80E28C0F88308F
:1033000048F4C77081E001C0880FCA95EAF70E94AF
:10331000A00BB2CFEBE5EC0FE33040F4F0E0EB5D57
:10332000FE4F808190E00E941306A8CFE8E5EC0FE5
:10333000E73150F4F0E0EE0FFF1FE85DFE4F8081B3
:1033400091810E94FD059ACFC03F08F497CF8C2F42
:103350000E943B090E94841191CF8C2F0E94C70BC1
:103360000E94BA12C6CF1F93CF93DF93182FC0913C
:103370009A03D0919B03893321F0C0919803D09197
:103380009903812F0E942119209739F4812F0E94DF
:103390004A18DF91CF911F9108958FE99FE001971F
:1033A000F1F700C000002197EFCFB0E0A0E0EBED17
:1033B000F9E10C947A34EC018AE0A82E28812223CA
:1033C00009F48FC02130C9F599818A81913021F4A7
:1033D00022960E94B31905C0923029F422960E94C9
:1033E00021192196EBCF933021F422960E944A189E
:1033F000F8CF943011F02196F4CF229630E020E0FF
:10340000AE014F5F5F4F8053990B8A30910550F0AA
:103410002150310930F38FE99FE00197F1F700C0A7
:103420000000F6CFA29EB001A39E700D11249C0156
:10343000260F371F8981EA01E3CFE22FF0E0E55B39
:10344000F94FB490822F86958695869590E0FC0181
:10345000E55CF94FE4902770F12C022E02C0F59440
:10346000E7940A94E2F731E0E322FF24FC01E55DF2
:10347000F94FC490D12C022E02C0D594C7940A945F
:10348000E2F731E0C322DD24FC01E55EF94F04914F
:1034900010E002C0159507952A95E2F701701127F3
:1034A000E114F10419F081EE0E942119C114D10434
:1034B00019F086EE0E9421198B2D0E94B319C114B8
:1034C000D10419F086EE0E944A18E114F10419F0B3
:1034D00081EE0E944A180115110509F482CF8CE291
:1034E00078CFCDB7DEB7EAE00C949634B0E0A0E038
:1034F000ECE7FAE10C947C346B01C42FD22FFC0171
:1035000082818823A9F040934E030E94F105909395
:103510004D0380934C03C77081E001C0880FCA95AA
:10352000EAF70E944318CDB7DEB7E8E00C94983470
:1035300010914E03141337C080914C0390914D03AA
:103540000E94D6057C01C6010E94A10FE816F9066B
:1035500050F5C0E2CD0F1D17C1F080E2810F883019
:1035600048F4177081E0012E01C0880F0A94EAF731
:103570000E943C18C83048F481E09D2F977001C02C
:10358000880F9A95EAF70E944318802F0E94B3197A
:10359000C83048F6D77081E001C0880FDA95EAF7A5
:1035A0000E943C18C0CFC77081E001C0880FCA9547
:1035B000EAF7F6CFCF93DF93EC010E94880C9E01CF
:1035C000205E31092830310510F0209741F40E9427
:1035D00043188C2F0E942119DF91CF9108950E94EA
:1035E0003218F7CF662329F02091790322602093C7
:1035F00079039C013056211540E2340720F0305EFB
:103600002115304108F499270E94DA1A0895B0E094
:10361000A0E0EDE0FBE10C947D347C018B01D42E25
:1036200080911B0182FF8CC0C0913703D091380379
:10363000CE15DF0521F0E114F10409F081C080917D
:103640001B018B7F80931B0181FD73C0809135032B
:1036500090913603A801481B590B81E02091190174
:1036600030911A014217530708F480E08170F82E58
:1036700080911B01F0FA81F980931B01FE0183E028
:10368000F695E7958A95E1F7EE71FF27EB5EFC4F23
:1036900020813181AE014F70552781E090E002C05A
:1036A000880F991F4A95E2F7FF2009F444C0822B46
:1036B000932B918380838091140381FF08C08091B4
:1036C0001B01806180931B0182E00E94990B809115
:1036D000140385FF08C080911B01806280931B0149
:1036E00080E20E94990B6F2DCE010E94F21ADD201C
:1036F00031F08091950385FF02C086FF3BC0809129
:103700009803909199030E94C10D80913703909185
:1037100038039C013056211540E2340720F0305E1A
:103720002115304108F499270E9409190E9453136A
:103730001DC081E09BCF8095909582239323B9CFC4
:10374000C701992797013056211540E2340728F028
:10375000305E2115304108F0C7010E94091980919F
:103760003703909138038E159F0501F310933603AC
:1037700000933503CDB7DEB7E7E00C94993468EEDB
:103780007EEF90E080E00E941E3560E082E090E0F5
:103790000E94003560E083E090E00E9400351092C6
:1037A000CB0160E084E090E00E94003564E082E2BA
:1037B00090E00E94003560E085E090E00E940035D6
:1037C00060E086E090E00E9400356FEF87E090E0D7
:1037D0000E94003540E050E0BA0188E090E00E948D
:1037E000123560E08DE090E00E94003540E050E04E
:1037F000BA0188E190E00E94123560E087E190E034
:103800000E94003540E050E0BA018CE190E00E9457
:10381000123570E060E080E290E00E941E3540E0EA
:1038200050E0BA0188E190E00E94123580E00E94E9
:10383000660F0E948C1740E050E0BA018FE090E0E4
:103840000E94123540E050E0BA0183E190E00E940E
:1038500012350895A7E0B0E0E0E3FCE10C94723487
:103860007C01DC0113964D915C91149711966C913B
:1038700011978C910E940D0C8111EDC061E0C70180
:103880000E94D80E8C01F70182818823E1F080919B
:103890004F03909150030097B1F00817190799F062
:1038A000FEE08F9FC0011124FC01E85EFD4F2081E6
:1038B000246020838D5E9D4FDC010D931C930E943C
:1038C0002B1310927903F7018281882311F40C9451
:1038D0006F25C80182519F45409710F00C946125D7
:1038E0008FEF93E00E94EC348111A6C07EEED72EBC
:1038F000D00E0DEE10E0D11036C019821A821B8254
:103900001C8299249A9468012FEFC21AD20AC80126
:103910000E94EC3489831A82882309F48DC0813097
:1039200009F07FC0580132E0A30EB11CC6010E940D
:10393000EC34C82E8A83882309F47EC0C5010E9416
:10394000EC34D82E8FEF8C0D8330D8F4580143E03F
:10395000A40EB11CDB82DD2021F0CE0101960E9475
:10396000D5198501D0CF0115F4E01F0709F464C013
:10397000C8010E94EC34811101C0DA940F5F1F4F1F
:10398000BACF8BEF8C0D833030F5C8010396DB8204
:103990005C01DD2031F3580154E0A50EB11C0E94FA
:1039A000EC348C838823E9F28B819C818130AFEFEA
:1039B0009A0710F0982F8827B6E0CB1631F0E7E091
:1039C000CE1631F00E941C2ACCCF0E94F629C9CF16
:1039D0000E947D29C6CFF4E0CF12C3CF580124E066
:1039E000A20EB11CC80103960E94EC34DD2021F127
:1039F000882311F18150990B989E9001999E300D6A
:103A000011244D2D4150550BCA01820F931F019770
:103A100008F4A7CFAFE9BFE01197F1F700C00000AD
:103A2000F6CFCE0101960E94D51956019ACF81E0BA
:103A30000E94DD130E9493138091BF01877059F09B
:103A4000F7018281882339F08091130382FF03C03C
:103A500082E00E94AC132796E2E10C948E3481E060
:103A60000E949F13E7CF82E0FBCF823011F00C94CD
:103A7000B12580910D0290910E02892B11F40C94C6
:103A8000B1252EE02C9DC0012D9D900D1124FC012F
:103A9000E85EFD4F20812E7F20838D5E9D4F0E942A
:103AA0002B130C94B12581E080930001C5CF809148
:103AB0000001882309F430C7480120EE821A9108DA
:103AC0004090CA0180917F01482A80911403482ABE
:103AD00038E08316910408F08AC0980127703327D4
:103AE00081E090E001C0880F2A95EAF7552009F49B
:103AF0007BC0482AD7018D919C910E94220C21E025
:103B000030E0F90102C0EE0FFF1F8A95E2F7FF8354
:103B1000EE8320904A0330904B0360907C017090BC
:103B20007D011D822D81E22FF0E0EE0FFF1FEC578B
:103B3000FD4FC080D180C114D10409F451C7411098
:103B400005C0D60112968C9181118CC0F60183813B
:103B500090E02E813F8182239323892B09F482C038
:103B60008085982F977009F487E038E083169104D8
:103B700008F057C0552009F450C0869581708823FD
:103B800009F470C0D601AD90BC900A151B0519F45C
:103B9000552009F467C0C214D30409F463C0D601E8
:103BA0001D96ED91FC91309721F08081882309F4D6
:103BB00059C0642DC6010E948706882309F452C0AB
:103BC0000A151B0511F00C9442260115110511F47C
:103BD0000C94482651100C944A26A614B70409F0F8
:103BE00041C0512C0C944A268095482283CF552001
:103BF00009F4DFC610937D0100937C010E94E50566
:103C00006093410370934203809343039093440372
:103C100010924903109248036DCF82FB882780F9E8
:103C2000AECF5520F9F08170AACF0E944A180C94AB
:103C30006A260497813A910548F48A2D0E94D40B94
:103C4000552009F469C60E94BA12F6CE0E94BA1233
:103C50008FE39CE90197F1F700C000008A2D0E94D4
:103C60002119EECF9D819F5F9D835CCFFC01208158
:103C700031810217130709F048C6511048C6109247
:103C8000470380E00E94A31847C6902F812F8CC65F
:103C9000F901858181FFB8C6C9010E941113B4C61C
:103CA00080911B01816080931B01DCC680911B0108
:103CB0008E7F80931B010E945313D4C680911B01F9
:103CC0008F7E013E110531F0053E1105C9F480914A
:103CD0001B018F7D80931B0180911B0180FFD1C64A
:103CE000D70112968C910832110528F50E31110575
:103CF00008F072C00430110580F58111BEC6C1C63E
:103D0000C8019056811540E2940720F0905E81151D
:103D1000904110F780911B0182FFB3C680919703F9
:103D200081FDAFC62EED31E040E0B60190E080E0CD
:103D30000E94071BA6C60933110558F40D32110560
:103D400018F40B321105C9F69091950392FDD5CF69
:103D500008C004361105C1F3D0CF9091950394FDAE
:103D6000CCCF882309F4A7C08091CA019091140395
:103D7000892B8D7FB1F11092380310923703809117
:103D8000950381FD2EC0F80143E0F695E7954A952D
:103D9000E1F7EE71FF27EB5EFC4F98012F703327A0
:103DA00081E090E002C0880F991F2A95E2F7809584
:103DB000909520813181822393239183808360E0D9
:103DC000C8010E94F21A8091CA018D7F0E947E0B69
:103DD00082E00E94AC1330CE9091950393FD8DCF7D
:103DE000C0CF86E0F701AEEDB1E001900D928A956B
:103DF000E1F71092E0011092E2011092E10180914E
:103E000037039091380308171907C9F520919503D6
:103E100025FF35C030911B0131FF02C026FF2FC0A6
:103E200020913503309136035601A21AB30A0E943D
:103E3000A10FA816B90618F58091140381FF08C0D8
:103E400080911B01806180931B0182E00E94990B8D
:103E50008091140385FF08C080911B0180628093CC
:103E60001B0180E20E94990B60911B0166956170B5
:103E700080913703909138030E94F21ADDCD809132
:103E8000CA0190911403982B20911B0191FB21F9F9
:103E900020931B018D7F0E947E0B109338030093AB
:103EA0003703D0923603C092350380911B018460A2
:103EB00080931B018DCF970140E0B601C8010E949D
:103EC000071BBACD053F4CE5140709F463C008F49D
:103ED0005BC0063F8CE5180709F462C0D701129653
:103EE0003C91332309F461C610924E030330BDE5C3
:103EF0001B0708F061C00A3FECE51E0730F4C8015B
:103F000082509C45449708F062C00E94FB0E90933B
:103F100013038093120302315CE5150709F47DC198
:103F200008F0CDC009309CE5190709F454C108F028
:103F300097C00530BCE51B0709F441C108F07EC0FD
:103F40000330FCE51F0709F432C108F034C1809149
:103F50001203816002303CE5130709F4ADC0809183
:103F60001203909113030E947F0F0E94051464CDE9
:103F700007E225EE45EE68ED7CE59EC506E221EE02
:103F800040EE63EF7CE598C507E225EE44EE64EF72
:103F90007CE592C506E221EE42EE65EF7CE58CC53C
:103FA00007E225EE46EE66EF7CE586C508E221E0F5
:103FB00045EE69ED7CE580C5053AFDE51F0709F48E
:103FC000A4CFB0F501364DE5140709F49ECF0631B4
:103FD0005CE5150709F0E6C180911403982F9A7AE1
:103FE0002091940320FF04C0482F447409F090E00E
:103FF00021FF04C0482F417109F090E022FF04C066
:10400000482F487809F090E023FF03C0827209F03E
:1040100090E0332309F42BC181E0911101C080E0CD
:1040200080937E0189E2911185E30E94D40B0BCE2F
:10403000C8018D5A9D45039750F667CF80911203B2
:10404000806207304CE51407B9F18091120380615A
:1040500008305CE5150780F18091120380642CC064
:104060000D308CE5180709F4C0C090F4809112035C
:104070008E7F0B30ACE51A07F9F0809112038C604B
:104080000C30BCE51B07C0F0809112038D7F14C07B
:104090000F30ECE51E0709F4B8C008F4AAC00031DF
:1040A0002CE5120709F4B5C0809112038F7B013112
:1040B0003CE5130709F053CF8093120350CF0F3F15
:1040C0004CE5140709F4B3C0A8F50A3F8CE51807BE
:1040D00009F479C0C0F40431ACE51A0709F4B5C09D
:1040E00008F4A1C00531ECE51E0709F038CF809136
:1040F000120382FB992790F921E0922790FB82F925
:1041000090FB83F9D9CF0C3FFCE51F0709F475C07C
:1041100008F45DC00D3F3CE5130709F472C08091BF
:10412000130383600E3F4CE5140709F018CF80930A
:10413000130315CF01365DE5150709F491C090F41E
:1041400001309DE5190709F489C008F474C060E0E6
:104150000230BDE51B0709F002CF8EE090E00E941F
:104160000035FDCE0D3AEDE51E07E9F060F49091C3
:104170001203892F8E7F90FF8160053A2DE512078B
:1041800009F49ACFECCE0E3A3DE5130751F10F3A00
:104190004DE5140709F0E3CE90911303892F877F33
:1041A00093FF8860C4CF809113038860C0CF809153
:1041B0001203826081CF8091120384607DCF809151
:1041C0001203886079CF809113038160B0CF809112
:1041D00013038260ACCF0E940514809112038068A3
:1041E0006BCF80911303877FA2CF809112038B7FC7
:1041F00063CF80911203877F5FCF809113038E7FFF
:1042000096CF809113038D7F92CF809112038F7E82
:1042100053CF809112038F7D4FCF0E940514809160
:1042200012038F7749CF80911203837F45CF80910E
:1042300013038C7F7CCF80911303982F90959170FE
:104240008E7F892B90FB81F972CF0E94051490918B
:104250001203892F97FB87F980582ECF61E07DCF1D
:1042600090911203892F8F7E94FF806125CF8091DA
:104270007E01811104C089E20E94C70BE4CC85E372
:10428000FBCF073C4CE5140709F478C008F471C073
:10429000083C9CE5190709F476C040EA50E16DEA54
:1042A00070E1093CACE51A0709F0A1C40E9474074B
:1042B000C3CB003DBCE51B07A8F40E3CECE51E0794
:1042C00008F0BACB0C3CFCE51F0709F466C048EEC9
:1042D00050E16AEF70E10D3C2CE5120738F361E024
:1042E00081E035C0063D3CE5130740F4013D4CE557
:1042F000140708F0A1CB0E9463119ECB0D35100767
:1043000009F49ACB74C480919E0380FF1BC08E7FFA
:1043100080939E0360919E0370919F038091A00300
:104320009091A1030E9443101092FD018FEF90E73E
:10433000A2E081509040A040E1F700C000000E9440
:10434000CB0D7ACB816080939E0361E086950E94BD
:104350000C1172CB4EE451E168E571E1A7CF48E55D
:1043600051E16EE471E1A2CF44ED50E16EED70E1F8
:104370009DCF4EED50E164ED70E198CF4AEB50E1F6
:1043800067EC70E193CF47EC50E16AEB70E18ECFC0
:104390004DEA50E160EA70E189CF4AEF50E168EE02
:1043A00070E184CF0A35BDE51B0771F158F40115A2
:1043B000FCE51F0791F00E3D1C4509F018C40E9452
:1043C000BF1B09C00C353DE51307A1F0F8F0073A13
:1043D0001D4509F00CC40E9415180E9405148FEFAA
:1043E00094E3ACE081509040A040E1F700C00000B1
:1043F0000E949D0D8091130382FB882780F991E034
:1044000089270E94C813F3C381E0FBCF80E0F9CF76
:10441000C8010E94220CD82EFBC3202F2F70B22E71
:10442000802F807F19F0B29490EFB922DD20A9F09F
:10443000BB2059F080E2810F883010F0811007C056
:104440008B2D0E94A00B0E94BA12812F5BC080911D
:104450007903B82AB0927903F6CF812F0E944A18C7
:10446000BB2009F451C080E2810F883010F0811028
:1044700004C08B2D0E94990B03C08B2D0E94920BC0
:104480000E94BA1241C0302F3F70B32E802F807F20
:10449000803219F0B29480EFB822882029F141E0EF
:1044A000841609F4AEC0DD2009F4B7C0CC2009F4AD
:1044B0007FC020E0D7014C9111965C911197129624
:1044C0006C91129713967C91139714968C910E947D
:1044D000B50E8091970381FDB8CFF701858180FFEC
:1044E000B4CF8F70858364C08091130382FD40C078
:1044F000DD20C1F1BB2029F08B2D0E94A00B0E9472
:10450000BA1280E00E942119292D2850330B243043
:10451000310510F40E942906812F902F0E94550C1E
:104520008111CDC11092810110928001AA20A9F0C1
:104530008091BF0180FD11C0F7011282859585959C
:1045400085950E94DD13C7010E942A1C8091BF013E
:104550008595859585950E949F1360E0C7010E940F
:10456000D80E79CA80E00E944A18BB2069F281CF38
:10457000DD2011F1C11004C08091CA018B2919C03E
:1045800051E0C51206C08091CA018B290E947E0BA2
:10459000BBCF80919603823078F3C812EDCF0E9492
:1045A000730B90917F018B2D892B891380937F0151
:1045B0008B2D0E944318A8CFC11003C00E94730B1B
:1045C00017C08091960391E0C91216C0823008F49A
:1045D0009BCF809114038B2109F496CF0E94730B1B
:1045E00090917F018B2D80958923891380937F0182
:1045F0008B2D0E943C1888CF823000F3C812DECF8A
:1046000083CF80919C03DD2021F08C1508F47CCFB2
:10461000CFCFC81608F078CFEBCFCC2049F3F9E321
:104620008F1245C180919A0390919B030E94C10D06
:10463000812F0E944A1868CF802F869586958370B7
:1046400069F0813009F060CF812F902F9370D110E5
:1046500002C090E080E00E94FD0556CF812F902F90
:104660009370D11002C090E080E00E9413064CCFFE
:10467000812FDD2029F00E943B090E94841144CF44
:104680000E942008FACF802F837091F5D1103CCF83
:10469000412F429546954770440F440F812F8F70EC
:1046A000042E01C0880F0A94EAF7212F207114FF0D
:1046B00007C02FE030E001C0220F4A95EAF72095AD
:1046C000302F369536953370323069F050F4409182
:1046D000CB01313029F0822B84230E94001414CFA7
:1046E000842B822BFACF282B8091CB018227F5CF08
:1046F0008695DD2011F0802F8170882309F404CF86
:10470000412F429546954770440F440F812F8F707B
:10471000042E01C0880F0A94EAF7212F207114FF9C
:1047200007C02FE030E001C0220F4A95EAF720953C
:10473000302F369536953370323069F050F4409111
:10474000A303313029F0822B84230E948E13DCCE08
:10475000842B822BFACF282B8091A3038227F5CFBD
:10476000202F2F70B22EDD2029F0822F0E94DD1322
:10477000812F1FCF812F0E943C188B2D0E949F13E9
:10478000C3CE812F32EF8316B1F1381570F040EFB0
:104790008416D1F051EF851691F0DD2009F482C026
:1047A000C11053CE802F8F712AC093EF891651F11B
:1047B000A4EF8A12F2CF8091130382FD2FC0802FC5
:1047C0008F71DD20D9F21BC080919C03DD2079F030
:1047D000C81608F099CE202F2F7181E090E001C01B
:1047E000880F2A95EAF79091A3038927AECF8C15FD
:1047F00008F48ACEF0CF802F8F71D110BFCF0E94E6
:10480000DD1382CE80E0DD2009F49FCF81E0902F80
:104810009F7101C0880F9A95EAF797CF8091960310
:10482000823040F1DD20D1F09091BF01977094303B
:1048300041F40E94A60B802F8F710E949F13A12C20
:1048400063CEC816E0F7B02FBF71BB2E8B2F0E942E
:10485000DD1363E08B2D0E94E913F1CFC81630F011
:104860000E94A60B64E0802F8F71F5CF81E00E943B
:10487000AC13E5CFDD2059F0E02FEF71BE2E8E2F67
:104880000E94DD1363E08B2D0E94E9133DCE81E091
:104890000E94AC13F1E0FC1508F036CE82E00E94D5
:1048A000AC1332CECC2041F0893309F4BBCE8091D9
:1048B000980390919903BACE802F8F715FCFDD203E
:1048C00019F0C1102FCE32CEC1102CCE20E0D7016E
:1048D0004C9111965C91119712966C9112971396C8
:1048E0007C91139714968C910E94B50E809197033A
:1048F00083FF18CE8091800190918101029709F089
:1049000011CE812F0E94B3190DCE552029F0DC0164
:1049100018968C9185FFB5C9C80197558F3F9105B1
:1049200011F008F071C05801BB24BEE00B9FF001EC
:1049300011249F012D5E3D4F6901D70112968C9184
:10494000E85EFD4F908180FB90F99083882309F405
:104950009FC90E94F1059093DD018093DC01F6016F
:1049600082818F5F82838091790390911403892BD8
:1049700083838091CA0184830680F781E02D30977C
:1049800031F0D6011C966D917C91C60109958EE09F
:104990008A9DF0018B9DF00D1124ED5EFD4F858108
:1049A00081FF73C990E080E090934F0380935003A0
:1049B0002BC080917C0190917D010817190781F42B
:1049C00010927D0110927C011092410310924203DB
:1049D000109243031092440310924903109248032B
:1049E00080914A0390914B03009709F495CFA8E07A
:1049F0008A16910408F03AC9642D0E948706811135
:104A000003C081E00E94A3188091950380FF39C004
:104A10000E94F1056C01D70112968C91882309F44C
:104A20004DC980911B0182FF08C02EED31E040E0AE
:104A3000B60190E080E00E94071B0B31BCE51B072C
:104A400009F42EC90C31ECE51E0709F42FC9909129
:104A50001B01892F8E7F90FF81600A31FCE51F07C3
:104A600009F427C9C8019056811520E2920728F061
:104A7000905E8115904108F02FC910923803109272
:104A80003703033FBCE51B0709F478CA08F01ACACC
:104A9000083DFCE51F0709F46BCA093D2CE5120728
:104AA00009F484CA073D3CE5130709F017CA06E27A
:104AB00021EE41EE67ED7CE5C7010E94761A0C9469
:104AC0001C1D0031BFE51B0711F40C94171D0131AB
:104AD000EFE51E0709F045C082E00C94181D003177
:104AE000FFE51F0711F40C942F1D01312FE512076C
:104AF00011F40C94331D6801E7E5DE1AFFEFCF16C1
:104B0000D10409F070F569E072E08C2D0E948D0FE0
:104B1000892B39F58EE08C9DF0018D9DF00D1124CF
:104B2000ED5EFD4F8281813011F00C94351D809136
:104B3000090290910A02892BA1F080910B029091B9
:104B40000C02892B71F080910D0290910E02209140
:104B50000F0230911002822B932B892B11F40C94AD
:104B6000411DD70112965C90552011F40C94571DED
:104B70000F35BDE51B0711F40C94531D0036EDE510
:104B80001E0761F00E35FDE51F0711F00C94571D4F
:104B900080910001882311F40C94531D10920001A0
:104BA00080E00E94A3180C941C1D06314CE51407EC
:104BB00009F412CA8091140382720A3C9CE5190719
:104BC00009F4E6CB08F075CB053CBCE51B0709F4FE
:104BD000CBCB08F056CB033CFCE51F0709F4BACB5E
:104BE00008F0BDCB023C3CE5130709F48CCBD701A0
:104BF00012968C9112970D911C91882309F408CC80
:104C0000C8010E94630ED82E682FC8010E943C0C78
:104C1000B8018D2D0E943B0E0E94E609182F092F26
:104C2000882EF701D280C580C2943FE0C3228091D4
:104C3000BF018770C1F0AD2CDD20B1F0892F807FDE
:104C4000803421F080E2810F883068F08091130376
:104C500082FF09C082E00E94AC138091BF0187707F
:104C6000AA24A3948111A12C902E92942FE0922239
:104C7000FBE0F91508F448CCE92DF0E0E85BFA4CCC
:104C80000C946534A114B10411F00C94ED1D512C59
:104C9000B12CA12C80E00E94A318D0924B03C092AB
:104CA0004A0381E080934703D60115968C91809347
:104CB000450351100FC0AB2869F0F6018081918146
:104CC0009C0124503109213A310510F00C94151E35
:104CD0000E94C70BD6011696AD90BC90C5019A955F
:104CE00081159F4110F4E0EEBE2277247394C50134
:104CF0000197803B9D4508F0712CD6011996ED91E6
:104D0000FC911A97309731F01B966D917C9181E060
:104D100009957822772081F0F601868197810E949B
:104D2000880C80934603C501F8E08F16910410F0BB
:104D30000C94191E0E9436060E94BA120C94201E72
:104D4000B0E0A0E0E6EAF6E20C947B3480918A01C0
:104D5000807F09F050C080918701882309F44BC0FF
:104D6000C091BC0186E0B82E80918B018C1709F4AC
:104D700042C0F0908501E0908601C0908801D090FB
:104D80008901A6016E2D8F2D0E940D0CD0E081119E
:104D900037C0BC9E8001BD9E100D1124F801E45760
:104DA000FE4F81818E112CC080818F1129C082819C
:104DB000811126C0E380F480EC18FD0860E085E8EE
:104DC00091E00E94D80E0E94A10FE816F906C0F4E7
:104DD00080918A018F70806180938A01F801EF567B
:104DE000FE4F80818F708061808385E891E00E9412
:104DF0002A1C0E94180CCDB7DEB7E9E00C9497345A
:104E00002196C770B1CFA1E1B0E0E9E0F7E20C94E0
:104E100075348C0185E0F801DE011D9601900D923C
:104E20008A95E1F7D8015C9011966C9011971296D3
:104E3000EC9012971396CD90DC9060E085E891E0BD
:104E40000E94D80E85E8A82E81E0B82E80908801B7
:104E500090908901A40160918601809185010E9452
:104E60000D0C811172C1F0908701F601E819F90962
:104E70004F0160E0FF2009F420C1C5010E94D80E57
:104E80000E94A10F70908A018816990608F0D7C079
:104E90004091880150918901B0908501A0908601D0
:104EA000872D807F6A2D09F082C08B2D0E940D0C0A
:104EB000FE2C81111DC0D80111968C9111978A1179
:104EC00017C08C918B1114C0E11012C0872D8F7008
:104ED000806180938A0185E891E00E942A1C80917C
:104EE0008A01F80185838F2D6196EFE00C9491344F
:104EF000A601662D852D0E940D0CD82E81E08E25F1
:104F0000D11080E080FF18C04E2D662D852D0E94A7
:104F1000ED0B882389F08091970380FF0DC085E811
:104F200091E00E942A1C86E0E5E8F1E0DF011D9295
:104F30008A95E9F7F12CD7CF81E08E25D11080E05A
:104F4000B82FB170CB2E80FF29C04E2D662D852D38
:104F50000E94ED0BD82E811121C05D866E868D8555
:104F60009E850E94920E292F22952F70223050F09C
:104F7000243078F49F7051F0F8019581907F31F4DE
:104F8000FD2CB1CF9F7011F08823D1F3805E883063
:104F9000B8F3C8010E942A1CDC2CF2CFEE2009F4E1
:104FA000A2CF80918A01816080938A01C3CF8B2D2B
:104FB0000E940D0C811119C0D80111968C91119786
:104FC0008A1113C08C918B1110C0E1100EC0159680
:104FD0007C92C8010E942A1C86E0F801A5E8B1E095
:104FE00001900D928A95E1F77ECFC8010E949F0E35
:104FF000882309F1EE20F9F080918A01803270F067
:10500000209185013091860138872F831986DB86B0
:10501000CA868C87CE0107960E942A1C86E0F8017A
:10502000A5E8B1E001900D928A95E1F70E94A026D3
:10503000FF24F39458CFC8010E942A1CF9CF872D72
:10504000807F09F46CCF909085018090860140911B
:10505000880150918901682D892D0E940D0C8111C4
:1050600013C0F801818188110FC0808189110CC0A3
:10507000E1100AC07582C8010E942A1C86E0D50191
:105080001D928A95E9F72FCFC8010E949F0E8823B1
:1050900091F2EE2081F280918A01803208F4BECF35
:1050A00020918501309186013A8329831B82DD821C
:1050B000CC828E83CE010196AFCF85E891E00E942D
:1050C000D80E0E94A10F88169906C0F6FE2CEE207D
:1050D00009F4B1CFE0908501D0908601409188011C
:1050E000509189016D2D8E2D0E940D0C81111FC0D4
:1050F000F80181818D111BC080818E1118C08091B3
:10510000970382FD69CF90918A0190FD65CF907FD2
:1051100009F462CF80918A018583903F09F459CFC9
:10512000982F907F905F8F70892B858352CFC80115
:105130000E949F0E811172CF80918A0181608093BD
:105140008A01C8010E942A1CCECEEE2009F473CF3A
:10515000C8010E949F0EF82E882309F46CCF86E0C8
:10516000F801A5E8B1E001900D928A95E1F78091F0
:105170008501909186010E94920E0E94A026B3CED6
:10518000A7E1B0E0E6ECF8E20C948134942F4B8B6D
:10519000252F5C8B6D8B7E8B8F8B4E895F89622F69
:1051A000892F0E940D0C811109C08091800190917E
:1051B0008101019690938101809380018D898111F5
:1051C000109279031A8A198A85E0FE017396DE012E
:1051D0001D9601900D928A95E1F78091130382FF4D
:1051E0001EC080917C0390917D03892BC1F00E94A9
:1051F000F1052091BD013091BE01821B930B2091DE
:105200007C0330917D038217930720F08091BF01CA
:1052100082FF6FC00E94AD0B81110E94730B86E06C
:10522000FE013D96DE01179601900D928A95E1F7F9
:10523000CE0107960E940327811111C086E0FE016E
:105240003796DE01119601900D928A95E1F74A8515
:105250005B8568858F810E940D0C882359F016E0CC
:105260008091BC0190918B01891331C06796E3E076
:105270000C949D3420918B0130E0C9010196877018
:1052800099274091BC014817190699F096E0929F22
:10529000D001939FB00D1124A457BE4FFE0131964B
:1052A00001900D929A95E1F780938B010E94180C62
:1052B000D6CF0E94051410928B011092BC0186E09B
:1052C000E5E8F1E0DF011D928A95E9F7C8CF819FFB
:1052D000C001112484579E4F0E940327882331F276
:1052E0008091BC0190E00196877099278093BC0162
:1052F000B7CF82E00E94AC138DCFA5E0B0E0E3E829
:10530000F9E20C94823490930F0380930E0381157D
:1053100020E2920730F40E9409192596E2E00C94ED
:105320009E3480EF89838A831B820E94F10581600D
:10533000782F9D838C8349815A816B818D810E9456
:10534000C028EBCF0F931F93CF93DF938C01EB011A
:1053500069E072E08C2F0E948D0F892BA1F480915F
:105360009803909199030E94C10DDD27CF5FDD4F17
:105370008881F801128218828330F1F048F481307C
:1053800059F0823081F0DF91CF911F910F910895F4
:105390008430B9F08530B9F78091090290910A0202
:1053A000009789F306C080910B0290910C02009740
:1053B00099F30E947D29E7CF80910D0290910E0212
:1053C000F6CF80910F0290911002009791F72091F3
:1053D000090230910A0280910B0290910C02211572
:1053E0003105F1F2009729F7C901E3CFA5E0B0E05C
:1053F000ECEFF9E20C94823490930F0380930E0348
:10540000811520E2920730F40E94DA1A2596E2E034
:105410000C949E3480EF89838A8381E08B830E9481
:10542000F1058160782F9D838C8349815A816B813E
:105430008D810E94C028EACFCF93DF93EC010E94B8
:10544000F62980919803909199030E94C10DCE0195
:105450000E947D29DF91CF9108950F931F93CF93E1
:10546000DF938C01862F69E072E00E948D0F892BFB
:10547000B1F4C0910902D0910A02209781F0F8019D
:105480008281833051F4CE010E941C2ACE010E94F9
:105490001C2ACE010E941C2A02C08430D0F7DF9162
:1054A000CF911F910F9108950F931F93CF93DF9387
:1054B0008C01EB0169E072E08C2F0E948D0F892B2B
:1054C00009F05CC0FE01FF27D80112968C9112975B
:1054D000EF5FFD4F8130B9F415969C9192FF02C0A9
:1054E00080830AC090FFFCCF82E0808380910B0212
:1054F00090910C020097B9F48091090290910A02F0
:105500000097E1F110C08230B9F515968C9182FDBB
:1055100028C080FD0BC083E0808380910D029091B4
:105520000E02009701F10E94F62928C084E08083D2
:1055300080910F02909110020097A9F780910902C3
:1055400090910A020097F9F00E941C2A80910B02A8
:1055500090910C02009739F78091090290910A020C
:10556000E2CF85E080838091090290910A02009742
:1055700029F00E941C2AF0CF86E08083DF91CF9132
:105580001F910F91089580910B0290910C02B8CF5A
:1055900090E080E00E94FA34883E9E4F19F40E9409
:1055A000E20E089580E008951F920F920FB60F92B9
:1055B00011242F933F934F935F936F937F938F9318
:1055C0009F93AF93BF93CF93DF93EF93FF93D091CC
:1055D000E900DF708091EC00C82FC17080FDC0E849
:1055E0001092E9008091F000877F8093F00078941A
:1055F0000E9411141092E9008091F000886080935D
:10560000F000CD2BCF70C093E900FF91EF91DF91B7
:10561000CF91BF91AF919F918F917F916F915F914A
:105620004F913F912F910F900FBE0F901F901895A3
:105630001F920F920FB60F9211242F933F934F9307
:105640005F936F937F938F939F93AF93BF93EF93EA
:10565000FF938091E10082FF15C08091E20082FFFC
:1056600011C08091E1008B7F8093E1002091610364
:105670002F5F822F62E30E943134992309F4C0C066
:10568000209361038091DA0080FF28C08091D800C8
:1056900080FF24C08091DA008E7F8093DA008091B1
:1056A000D90080FFE3C080E189BD82E189BD09B4F2
:1056B00000FEFDCF81E080936F0384E295E00E94BD
:1056C000AC0380916203811109C00E944E040E94C4
:1056D00019058091E20084608093E2008091E100EE
:1056E00080FF1BC08091E20080FF17C08091E20024
:1056F0008E7F8093E2008091E20080618093E200DF
:105700008091D80080628093D80019BC85E0809396
:105710006F038CE295E00E94AC038091E10084FF6E
:105720002FC08091E20084FF2BC080E189BD82E11F
:1057300089BD89B5982F917080FFFBCF8091D800EB
:105740008F7D8093D8008091E1008F7E8093E1006F
:105750008091E2008F7E8093E2008091E200816080
:105760008093E20080917003882309F489C084E06B
:1057700080936F0380E395E00E94AC0380916F03F8
:105780008091E10083FF2BC08091E20083FF27C05E
:105790008091E100877F8093E10082E080936F0336
:1057A000109270038091E1008E7F8093E1008091E0
:1057B000E2008E7F8093E2008091E200806180931E
:1057C000E20042E060E080E00E94E7048091F000A7
:1057D00088608093F00084E395E00E94AC03FF9121
:1057E000EF91BF91AF919F918F917F916F915F9159
:1057F0004F913F912F910F900FBE0F901F901895D2
:105800001092610380916003882309F43BCF80915B
:105810006F038430C1F49091E9009F702091EC00F7
:10582000822F817020FD80E8892B95E09093E9001C
:105830009091EB0090FF04C09091EE0097FD08C09E
:105840008F708093E900109260031CCF1092F100DA
:105850009091E80095FDFACF9091E80090FFF0CF8D
:105860009091E8009E779093E800EACF19BC1092DF
:105870006F0388E295E00E94AC03109262032ECF82
:105880008091E30087FD93E090936F0373CF78944A
:105890001F921FB61F9211248F939F93AF93BF93B4
:1058A0008091580390915903A0915A03B0915B03E2
:1058B0000196A11DB11D8093580390935903A093A5
:1058C0005A03B0935B03BF91AF919F918F911F904B
:1058D0001FBE1F9018951F921FB61F9211248F9301
:1058E0009F93AF93BF9380915703811113C0809111
:1058F000580390915903A0915A03B0915B034196CC
:10590000A11DB11D8093580390935903A0935A038E
:10591000B0935B03BF91AF919F918F911F901FBE7A
:105920001F901895CDB7DEB7E4970FB6F894DEBF99
:105930000FBECDBF85B7806885BF85B7806885BF3E
:1059400084B7877F84BF0FB6F894A89580916000D4
:10595000886180936000109260000FBE80E890E044
:105960000FB6F89480936100909361000FBE89EBAD
:105970009CE090937301809372010E944F070E94F4
:10598000B90F0E94160E0E944E040E9419058091C4
:10599000E20084608093E200789480916F03882312
:1059A000A1F01091E9001F709091EC00892F817097
:1059B00090FD80E8182B1092E9008091E80083FDAB
:1059C0000E9411141F701093E90082E084BD93E0DF
:1059D00095BD9AEF97BD80936E000E94E20E8111F3
:1059E00002C00E948C1784E690E09093D4018093CB
:1059F000D30188EC90E09093D6018093D5017698FE
:105A00006E9A279A2F9880E4809301011092D70113
:105A10001092E7010E94C82A811102C00E94BF1B98
:105A200082E090E00E94EC348093EB010E94FB0E38
:105A300090931303809312030E942D122FEF36E7E9
:105A400041E0215030404040E1F700C000000E949A
:105A50002D128091E70180FF08C06FEF7FEF90E08B
:105A600080E00E941E350E949D0D83E090E00E9420
:105A7000EC340E9400148091D801811133C00E943F
:105A8000C82A811104C00E94BF1B0E94741188E0C3
:105A900090E00E94F43460939E0370939F03809380
:105AA000A0039093A1036E7F71F40E94741188E0AB
:105AB00090E00E94F43460939E0370939F03809360
:105AC000A0039093A1030E947B071092FD01809197
:105AD0009E0380FF04C060E086950E940C1181E067
